{
  "contractName": "FestivalNFT",
  "abi": [
    {
      "inputs": [
        {
          "internalType": "string",
          "name": "festName",
          "type": "string"
        },
        {
          "internalType": "string",
          "name": "FestSymbol",
          "type": "string"
        },
        {
          "internalType": "uint256",
          "name": "ticketPrice",
          "type": "uint256"
        },
        {
          "internalType": "uint256",
          "name": "totalSupply",
          "type": "uint256"
        },
        {
          "internalType": "address",
          "name": "organiser",
          "type": "address"
        }
      ],
      "stateMutability": "nonpayable",
      "type": "constructor"
    },
    {
      "anonymous": false,
      "inputs": [
        {
          "indexed": true,
          "internalType": "address",
          "name": "owner",
          "type": "address"
        },
        {
          "indexed": true,
          "internalType": "address",
          "name": "approved",
          "type": "address"
        },
        {
          "indexed": true,
          "internalType": "uint256",
          "name": "tokenId",
          "type": "uint256"
        }
      ],
      "name": "Approval",
      "type": "event"
    },
    {
      "anonymous": false,
      "inputs": [
        {
          "indexed": true,
          "internalType": "address",
          "name": "owner",
          "type": "address"
        },
        {
          "indexed": true,
          "internalType": "address",
          "name": "operator",
          "type": "address"
        },
        {
          "indexed": false,
          "internalType": "bool",
          "name": "approved",
          "type": "bool"
        }
      ],
      "name": "ApprovalForAll",
      "type": "event"
    },
    {
      "anonymous": false,
      "inputs": [
        {
          "indexed": true,
          "internalType": "bytes32",
          "name": "role",
          "type": "bytes32"
        },
        {
          "indexed": true,
          "internalType": "bytes32",
          "name": "previousAdminRole",
          "type": "bytes32"
        },
        {
          "indexed": true,
          "internalType": "bytes32",
          "name": "newAdminRole",
          "type": "bytes32"
        }
      ],
      "name": "RoleAdminChanged",
      "type": "event"
    },
    {
      "anonymous": false,
      "inputs": [
        {
          "indexed": true,
          "internalType": "bytes32",
          "name": "role",
          "type": "bytes32"
        },
        {
          "indexed": true,
          "internalType": "address",
          "name": "account",
          "type": "address"
        },
        {
          "indexed": true,
          "internalType": "address",
          "name": "sender",
          "type": "address"
        }
      ],
      "name": "RoleGranted",
      "type": "event"
    },
    {
      "anonymous": false,
      "inputs": [
        {
          "indexed": true,
          "internalType": "bytes32",
          "name": "role",
          "type": "bytes32"
        },
        {
          "indexed": true,
          "internalType": "address",
          "name": "account",
          "type": "address"
        },
        {
          "indexed": true,
          "internalType": "address",
          "name": "sender",
          "type": "address"
        }
      ],
      "name": "RoleRevoked",
      "type": "event"
    },
    {
      "anonymous": false,
      "inputs": [
        {
          "indexed": true,
          "internalType": "address",
          "name": "from",
          "type": "address"
        },
        {
          "indexed": true,
          "internalType": "address",
          "name": "to",
          "type": "address"
        },
        {
          "indexed": true,
          "internalType": "uint256",
          "name": "tokenId",
          "type": "uint256"
        }
      ],
      "name": "Transfer",
      "type": "event"
    },
    {
      "inputs": [],
      "name": "DEFAULT_ADMIN_ROLE",
      "outputs": [
        {
          "internalType": "bytes32",
          "name": "",
          "type": "bytes32"
        }
      ],
      "stateMutability": "view",
      "type": "function"
    },
    {
      "inputs": [],
      "name": "MINTER_ROLE",
      "outputs": [
        {
          "internalType": "bytes32",
          "name": "",
          "type": "bytes32"
        }
      ],
      "stateMutability": "view",
      "type": "function"
    },
    {
      "inputs": [
        {
          "internalType": "address",
          "name": "to",
          "type": "address"
        },
        {
          "internalType": "uint256",
          "name": "tokenId",
          "type": "uint256"
        }
      ],
      "name": "approve",
      "outputs": [],
      "stateMutability": "nonpayable",
      "type": "function"
    },
    {
      "inputs": [
        {
          "internalType": "address",
          "name": "owner",
          "type": "address"
        }
      ],
      "name": "balanceOf",
      "outputs": [
        {
          "internalType": "uint256",
          "name": "",
          "type": "uint256"
        }
      ],
      "stateMutability": "view",
      "type": "function"
    },
    {
      "inputs": [],
      "name": "baseURI",
      "outputs": [
        {
          "internalType": "string",
          "name": "",
          "type": "string"
        }
      ],
      "stateMutability": "view",
      "type": "function"
    },
    {
      "inputs": [
        {
          "internalType": "uint256",
          "name": "tokenId",
          "type": "uint256"
        }
      ],
      "name": "getApproved",
      "outputs": [
        {
          "internalType": "address",
          "name": "",
          "type": "address"
        }
      ],
      "stateMutability": "view",
      "type": "function"
    },
    {
      "inputs": [
        {
          "internalType": "bytes32",
          "name": "role",
          "type": "bytes32"
        }
      ],
      "name": "getRoleAdmin",
      "outputs": [
        {
          "internalType": "bytes32",
          "name": "",
          "type": "bytes32"
        }
      ],
      "stateMutability": "view",
      "type": "function"
    },
    {
      "inputs": [
        {
          "internalType": "bytes32",
          "name": "role",
          "type": "bytes32"
        },
        {
          "internalType": "uint256",
          "name": "index",
          "type": "uint256"
        }
      ],
      "name": "getRoleMember",
      "outputs": [
        {
          "internalType": "address",
          "name": "",
          "type": "address"
        }
      ],
      "stateMutability": "view",
      "type": "function"
    },
    {
      "inputs": [
        {
          "internalType": "bytes32",
          "name": "role",
          "type": "bytes32"
        }
      ],
      "name": "getRoleMemberCount",
      "outputs": [
        {
          "internalType": "uint256",
          "name": "",
          "type": "uint256"
        }
      ],
      "stateMutability": "view",
      "type": "function"
    },
    {
      "inputs": [
        {
          "internalType": "bytes32",
          "name": "role",
          "type": "bytes32"
        },
        {
          "internalType": "address",
          "name": "account",
          "type": "address"
        }
      ],
      "name": "grantRole",
      "outputs": [],
      "stateMutability": "nonpayable",
      "type": "function"
    },
    {
      "inputs": [
        {
          "internalType": "bytes32",
          "name": "role",
          "type": "bytes32"
        },
        {
          "internalType": "address",
          "name": "account",
          "type": "address"
        }
      ],
      "name": "hasRole",
      "outputs": [
        {
          "internalType": "bool",
          "name": "",
          "type": "bool"
        }
      ],
      "stateMutability": "view",
      "type": "function"
    },
    {
      "inputs": [
        {
          "internalType": "address",
          "name": "owner",
          "type": "address"
        },
        {
          "internalType": "address",
          "name": "operator",
          "type": "address"
        }
      ],
      "name": "isApprovedForAll",
      "outputs": [
        {
          "internalType": "bool",
          "name": "",
          "type": "bool"
        }
      ],
      "stateMutability": "view",
      "type": "function"
    },
    {
      "inputs": [],
      "name": "name",
      "outputs": [
        {
          "internalType": "string",
          "name": "",
          "type": "string"
        }
      ],
      "stateMutability": "view",
      "type": "function"
    },
    {
      "inputs": [
        {
          "internalType": "uint256",
          "name": "tokenId",
          "type": "uint256"
        }
      ],
      "name": "ownerOf",
      "outputs": [
        {
          "internalType": "address",
          "name": "",
          "type": "address"
        }
      ],
      "stateMutability": "view",
      "type": "function"
    },
    {
      "inputs": [
        {
          "internalType": "bytes32",
          "name": "role",
          "type": "bytes32"
        },
        {
          "internalType": "address",
          "name": "account",
          "type": "address"
        }
      ],
      "name": "renounceRole",
      "outputs": [],
      "stateMutability": "nonpayable",
      "type": "function"
    },
    {
      "inputs": [
        {
          "internalType": "bytes32",
          "name": "role",
          "type": "bytes32"
        },
        {
          "internalType": "address",
          "name": "account",
          "type": "address"
        }
      ],
      "name": "revokeRole",
      "outputs": [],
      "stateMutability": "nonpayable",
      "type": "function"
    },
    {
      "inputs": [
        {
          "internalType": "address",
          "name": "from",
          "type": "address"
        },
        {
          "internalType": "address",
          "name": "to",
          "type": "address"
        },
        {
          "internalType": "uint256",
          "name": "tokenId",
          "type": "uint256"
        }
      ],
      "name": "safeTransferFrom",
      "outputs": [],
      "stateMutability": "nonpayable",
      "type": "function"
    },
    {
      "inputs": [
        {
          "internalType": "address",
          "name": "from",
          "type": "address"
        },
        {
          "internalType": "address",
          "name": "to",
          "type": "address"
        },
        {
          "internalType": "uint256",
          "name": "tokenId",
          "type": "uint256"
        },
        {
          "internalType": "bytes",
          "name": "_data",
          "type": "bytes"
        }
      ],
      "name": "safeTransferFrom",
      "outputs": [],
      "stateMutability": "nonpayable",
      "type": "function"
    },
    {
      "inputs": [
        {
          "internalType": "address",
          "name": "operator",
          "type": "address"
        },
        {
          "internalType": "bool",
          "name": "approved",
          "type": "bool"
        }
      ],
      "name": "setApprovalForAll",
      "outputs": [],
      "stateMutability": "nonpayable",
      "type": "function"
    },
    {
      "inputs": [
        {
          "internalType": "bytes4",
          "name": "interfaceId",
          "type": "bytes4"
        }
      ],
      "name": "supportsInterface",
      "outputs": [
        {
          "internalType": "bool",
          "name": "",
          "type": "bool"
        }
      ],
      "stateMutability": "view",
      "type": "function"
    },
    {
      "inputs": [],
      "name": "symbol",
      "outputs": [
        {
          "internalType": "string",
          "name": "",
          "type": "string"
        }
      ],
      "stateMutability": "view",
      "type": "function"
    },
    {
      "inputs": [
        {
          "internalType": "uint256",
          "name": "index",
          "type": "uint256"
        }
      ],
      "name": "tokenByIndex",
      "outputs": [
        {
          "internalType": "uint256",
          "name": "",
          "type": "uint256"
        }
      ],
      "stateMutability": "view",
      "type": "function"
    },
    {
      "inputs": [
        {
          "internalType": "address",
          "name": "owner",
          "type": "address"
        },
        {
          "internalType": "uint256",
          "name": "index",
          "type": "uint256"
        }
      ],
      "name": "tokenOfOwnerByIndex",
      "outputs": [
        {
          "internalType": "uint256",
          "name": "",
          "type": "uint256"
        }
      ],
      "stateMutability": "view",
      "type": "function"
    },
    {
      "inputs": [
        {
          "internalType": "uint256",
          "name": "tokenId",
          "type": "uint256"
        }
      ],
      "name": "tokenURI",
      "outputs": [
        {
          "internalType": "string",
          "name": "",
          "type": "string"
        }
      ],
      "stateMutability": "view",
      "type": "function"
    },
    {
      "inputs": [],
      "name": "totalSupply",
      "outputs": [
        {
          "internalType": "uint256",
          "name": "",
          "type": "uint256"
        }
      ],
      "stateMutability": "view",
      "type": "function"
    },
    {
      "inputs": [
        {
          "internalType": "address",
          "name": "from",
          "type": "address"
        },
        {
          "internalType": "address",
          "name": "to",
          "type": "address"
        },
        {
          "internalType": "uint256",
          "name": "tokenId",
          "type": "uint256"
        }
      ],
      "name": "transferFrom",
      "outputs": [],
      "stateMutability": "nonpayable",
      "type": "function"
    },
    {
      "inputs": [
        {
          "internalType": "uint256",
          "name": "numOfTickets",
          "type": "uint256"
        },
        {
          "internalType": "address",
          "name": "operator",
          "type": "address"
        }
      ],
      "name": "bulkMintTickets",
      "outputs": [],
      "stateMutability": "nonpayable",
      "type": "function"
    },
    {
      "inputs": [
        {
          "internalType": "address",
          "name": "buyer",
          "type": "address"
        }
      ],
      "name": "transferTicket",
      "outputs": [],
      "stateMutability": "nonpayable",
      "type": "function"
    },
    {
      "inputs": [
        {
          "internalType": "address",
          "name": "buyer",
          "type": "address"
        },
        {
          "internalType": "uint256",
          "name": "saleTicketId",
          "type": "uint256"
        }
      ],
      "name": "secondaryTransferTicket",
      "outputs": [],
      "stateMutability": "nonpayable",
      "type": "function"
    },
    {
      "inputs": [
        {
          "internalType": "uint256",
          "name": "ticketId",
          "type": "uint256"
        },
        {
          "internalType": "uint256",
          "name": "sellingPrice",
          "type": "uint256"
        },
        {
          "internalType": "address",
          "name": "operator",
          "type": "address"
        }
      ],
      "name": "setSaleDetails",
      "outputs": [],
      "stateMutability": "nonpayable",
      "type": "function"
    },
    {
      "inputs": [],
      "name": "getTicketPrice",
      "outputs": [
        {
          "internalType": "uint256",
          "name": "",
          "type": "uint256"
        }
      ],
      "stateMutability": "view",
      "type": "function"
    },
    {
      "inputs": [],
      "name": "getOrganiser",
      "outputs": [
        {
          "internalType": "address",
          "name": "",
          "type": "address"
        }
      ],
      "stateMutability": "view",
      "type": "function"
    },
    {
      "inputs": [],
      "name": "ticketCounts",
      "outputs": [
        {
          "internalType": "uint256",
          "name": "",
          "type": "uint256"
        }
      ],
      "stateMutability": "view",
      "type": "function"
    },
    {
      "inputs": [],
      "name": "getNextSaleTicketId",
      "outputs": [
        {
          "internalType": "uint256",
          "name": "",
          "type": "uint256"
        }
      ],
      "stateMutability": "view",
      "type": "function"
    },
    {
      "inputs": [
        {
          "internalType": "uint256",
          "name": "ticketId",
          "type": "uint256"
        }
      ],
      "name": "getSellingPrice",
      "outputs": [
        {
          "internalType": "uint256",
          "name": "",
          "type": "uint256"
        }
      ],
      "stateMutability": "view",
      "type": "function"
    },
    {
      "inputs": [],
      "name": "getTicketsForSale",
      "outputs": [
        {
          "internalType": "uint256[]",
          "name": "",
          "type": "uint256[]"
        }
      ],
      "stateMutability": "view",
      "type": "function"
    },
    {
      "inputs": [
        {
          "internalType": "uint256",
          "name": "ticketId",
          "type": "uint256"
        }
      ],
      "name": "getTicketDetails",
      "outputs": [
        {
          "internalType": "uint256",
          "name": "purchasePrice",
          "type": "uint256"
        },
        {
          "internalType": "uint256",
          "name": "sellingPrice",
          "type": "uint256"
        },
        {
          "internalType": "bool",
          "name": "forSale",
          "type": "bool"
        }
      ],
      "stateMutability": "view",
      "type": "function"
    },
    {
      "inputs": [
        {
          "internalType": "address",
          "name": "customer",
          "type": "address"
        }
      ],
      "name": "getTicketsOfCustomer",
      "outputs": [
        {
          "internalType": "uint256[]",
          "name": "",
          "type": "uint256[]"
        }
      ],
      "stateMutability": "view",
      "type": "function"
    }
  ],
  "bytecode": "0x60806040523480156200001157600080fd5b506040516200310638038062003106833981810160405260a08110156200003757600080fd5b81019080805160405193929190846401000000008211156200005857600080fd5b9083019060208201858111156200006e57600080fd5b82516401000000008111828201881017156200008957600080fd5b82525081516020918201929091019080838360005b83811015620000b85781810151838201526020016200009e565b50505050905090810190601f168015620000e65780820380516001836020036101000a031916815260200191505b50604052602001805160405193929190846401000000008211156200010a57600080fd5b9083019060208201858111156200012057600080fd5b82516401000000008111828201881017156200013b57600080fd5b82525081516020918201929091019080838360005b838110156200016a57818101518382015260200162000150565b50505050905090810190601f168015620001985780820380516001836020036101000a031916815260200191505b5060409081526020820151908201516060909201519093509091508484620001e07f01ffc9a700000000000000000000000000000000000000000000000000000000620002ed565b8151620001f5906007906020850190620004d3565b5080516200020b906008906020840190620004d3565b50620002377f80ac58cd00000000000000000000000000000000000000000000000000000000620002ed565b620002627f5b5e139f00000000000000000000000000000000000000000000000000000000620002ed565b6200028d7f780e9d6300000000000000000000000000000000000000000000000000000000620002ed565b50620002bc90507f9f2df0fed2c77648de5860a4cc508cd0818c85b8b8a1ab4ceeef8d981c8956a682620003bf565b601092909255601155600d80546001600160a01b0319166001600160a01b03909216919091179055506200056f9050565b7fffffffff0000000000000000000000000000000000000000000000000000000080821614156200037f57604080517f08c379a000000000000000000000000000000000000000000000000000000000815260206004820152601c60248201527f4552433136353a20696e76616c696420696e7465726661636520696400000000604482015290519081900360640190fd5b7fffffffff00000000000000000000000000000000000000000000000000000000166000908152600160208190526040909120805460ff19169091179055565b620003cb8282620003cf565b5050565b600082815260208181526040909120620003f4918390620017f662000448821b17901c565b15620003cb576200040462000468565b6001600160a01b0316816001600160a01b0316837f2f8788117e7eff1d82e926ec794901d17c78024a50270940304540a733656f0d60405160405180910390a45050565b60006200045f836001600160a01b0384166200046c565b90505b92915050565b3390565b60006200047a8383620004bb565b620004b25750815460018181018455600084815260208082209093018490558454848252828601909352604090209190915562000462565b50600062000462565b60009081526001919091016020526040902054151590565b828054600181600116156101000203166002900490600052602060002090601f016020900481019282601f106200051657805160ff191683800117855562000546565b8280016001018555821562000546579182015b828111156200054657825182559160200191906001019062000529565b506200055492915062000558565b5090565b5b8082111562000554576000815560010162000559565b612b87806200057f6000396000f3fe608060405234801561001057600080fd5b50600436106102325760003560e01c80636afadefb11610130578063a22cb465116100b8578063ca15c8731161007c578063ca15c873146107f5578063d539139314610812578063d547741f1461081a578063e3278ad614610846578063e985e9c51461084e57610232565b8063a22cb46514610692578063b632c9e4146106c0578063b88d4fde146106e6578063c83b4590146107ac578063c87b56dd146107d857610232565b806387bb7ae0116100ff57806387bb7ae01461062b5780639010d07c1461063357806391d148541461065657806395d89b4114610682578063a217fddf1461068a57610232565b80636afadefb146105ab5780636c0360eb146105d157806370a08231146105d9578063750e024c146105ff57610232565b806324c14160116101be57806342842e0e1161018257806342842e0e146104ec5780634f6ccce714610522578063569e35db1461053f5780636352211e1461055c57806364d7f44f1461057957610232565b806324c14160146103d35780632f2ff15d146104105780632f745c591461043c57806335fe12d81461046857806336568abe146104c057610232565b8063095ea7b311610205578063095ea7b3146103425780630b7055781461037057806318160ddd1461037857806323b872dd14610380578063248a9ca3146103b657610232565b806301ffc9a714610237578063065366ee1461027257806306fdde031461028c578063081812fc14610309575b600080fd5b61025e6004803603602081101561024d57600080fd5b50356001600160e01b03191661087c565b604080519115158252519081900360200190f35b61027a61089f565b60408051918252519081900360200190f35b6102946108b0565b6040805160208082528351818301528351919283929083019185019080838360005b838110156102ce5781810151838201526020016102b6565b50505050905090810190601f1680156102fb5780820380516001836020036101000a031916815260200191505b509250505060405180910390f35b6103266004803603602081101561031f57600080fd5b5035610946565b604080516001600160a01b039092168252519081900360200190f35b61036e6004803603604081101561035857600080fd5b506001600160a01b0381351690602001356109a8565b005b610326610a83565b61027a610a92565b61036e6004803603606081101561039657600080fd5b506001600160a01b03813581169160208101359091169060400135610a9e565b61027a600480360360208110156103cc57600080fd5b5035610af5565b6103f0600480360360208110156103e957600080fd5b5035610b0a565b604080519384526020840192909252151582820152519081900360600190f35b61036e6004803603604081101561042657600080fd5b50803590602001356001600160a01b0316610b2f565b61027a6004803603604081101561045257600080fd5b506001600160a01b038135169060200135610b9b565b610470610bc6565b60408051602080825283518183015283519192839290830191858101910280838360005b838110156104ac578181015183820152602001610494565b505050509050019250505060405180910390f35b61036e600480360360408110156104d657600080fd5b50803590602001356001600160a01b0316610c1d565b61036e6004803603606081101561050257600080fd5b506001600160a01b03813581169160208101359091169060400135610c7e565b61027a6004803603602081101561053857600080fd5b5035610c99565b61027a6004803603602081101561055557600080fd5b5035610caf565b6103266004803603602081101561057257600080fd5b5035610cc4565b61036e6004803603606081101561058f57600080fd5b50803590602081013590604001356001600160a01b0316610cec565b61036e600480360360208110156105c157600080fd5b50356001600160a01b0316610e22565b610294610f40565b61027a600480360360208110156105ef57600080fd5b50356001600160a01b0316610fa1565b61036e6004803603604081101561061557600080fd5b50803590602001356001600160a01b0316611009565b61027a6110cf565b6103266004803603604081101561064957600080fd5b50803590602001356110d5565b61025e6004803603604081101561066c57600080fd5b50803590602001356001600160a01b03166110ed565b610294611105565b61027a611166565b61036e600480360360408110156106a857600080fd5b506001600160a01b038135169060200135151561116b565b610470600480360360208110156106d657600080fd5b50356001600160a01b0316611270565b61036e600480360360808110156106fc57600080fd5b6001600160a01b0382358116926020810135909116916040820135919081019060808101606082013564010000000081111561073757600080fd5b82018360208201111561074957600080fd5b8035906020019184600183028401116401000000008311171561076b57600080fd5b91908080601f0160208091040260200160405190810160405280939291908181526020018383808284376000920191909152509295506112dc945050505050565b61036e600480360360408110156107c257600080fd5b506001600160a01b038135169060200135611334565b610294600480360360208110156107ee57600080fd5b50356114a5565b61027a6004803603602081101561080b57600080fd5b5035611728565b61027a61173f565b61036e6004803603604081101561083057600080fd5b50803590602001356001600160a01b0316611763565b61027a6117bc565b61025e6004803603604081101561086457600080fd5b506001600160a01b03813581169160200135166117c8565b6001600160e01b0319811660009081526001602052604090205460ff165b919050565b60006108ab600c61180b565b905090565b60078054604080516020601f600260001961010060018816150201909516949094049384018190048102820181019092528281526060939092909183018282801561093c5780601f106109115761010080835404028352916020019161093c565b820191906000526020600020905b81548152906001019060200180831161091f57829003601f168201915b5050505050905090565b60006109518261180f565b61098c5760405162461bcd60e51b815260040180806020018281038252602c8152602001806129fc602c913960400191505060405180910390fd5b506000908152600560205260409020546001600160a01b031690565b60006109b382610cc4565b9050806001600160a01b0316836001600160a01b03161415610a065760405162461bcd60e51b8152600401808060200182810382526021815260200180612a806021913960400191505060405180910390fd5b806001600160a01b0316610a1861181c565b6001600160a01b03161480610a395750610a3981610a3461181c565b6117c8565b610a745760405162461bcd60e51b81526004018080602001828103825260388152602001806129216038913960400191505060405180910390fd5b610a7e8383611820565b505050565b600d546001600160a01b031690565b60006108ab600361188e565b610aaf610aa961181c565b82611899565b610aea5760405162461bcd60e51b8152600401808060200182810382526031815260200180612aa16031913960400191505060405180910390fd5b610a7e83838361193d565b60009081526020819052604090206002015490565b600090815260126020526040902080546001820154600290920154909260ff90911690565b600082815260208190526040902060020154610b5290610b4d61181c565b6110ed565b610b8d5760405162461bcd60e51b815260040180806020018281038252602f81526020018061281e602f913960400191505060405180910390fd5b610b978282611a89565b5050565b6001600160a01b0382166000908152600260205260408120610bbd9083611af2565b90505b92915050565b6060600f80548060200260200160405190810160405280929190818152602001828054801561093c57602002820191906000526020600020905b815481526020019060010190808311610c00575050505050905090565b610c2561181c565b6001600160a01b0316816001600160a01b031614610c745760405162461bcd60e51b815260040180806020018281038252602f815260200180612b01602f913960400191505060405180910390fd5b610b978282611afe565b610a7e838383604051806020016040528060008152506112dc565b600080610ca7600384611b67565b509392505050565b60009081526012602052604090206001015490565b6000610bc0826040518060600160405280602981526020016129836029913960039190611b83565b600083815260126020526040902054826064606e830204820111610d415760405162461bcd60e51b8152600401808060200182810382526022815260200180612b306022913960400191505060405180910390fd5b610d6d7f9f2df0fed2c77648de5860a4cc508cd0818c85b8b8a1ab4ceeef8d981c8956a6610b4d61181c565b15610da95760405162461bcd60e51b815260040180806020018281038252602f815260200180612ad2602f913960400191505060405180910390fd5b600084815260126020526040902060018082018590556002909101805460ff19169091179055610dd884611b9a565b610e1257600f80546001810182556000919091527f8d1108e10bcb7c27dddfc02ed9d693a074039d026cf4ea4240b40f7d581ac802018490555b610e1c82856109a8565b50505050565b610e2c600c611be2565b6000610e38600c61180b565b9050610e4381610cc4565b6001600160a01b0316336001600160a01b031614610ea8576040805162461bcd60e51b815260206004820152601d60248201527f4f6e6c7920696e697469616c20707572636861736520616c6c6f776564000000604482015290519081900360640190fd5b610ebb610eb482610cc4565b8383610a9e565b610ec482611beb565b610f1457600e80546001810182556000919091527fbb7b4a454dc3493923482f07822329ed19e8244eff582cc204f8554c3620c3fd0180546001600160a01b0319166001600160a01b0384161790555b6001600160a01b0390911660009081526013602090815260408220805460018101825590835291200155565b600a8054604080516020601f600260001961010060018816150201909516949094049384018190048102820181019092528281526060939092909183018282801561093c5780601f106109115761010080835404028352916020019161093c565b60006001600160a01b038216610fe85760405162461bcd60e51b815260040180806020018281038252602a815260200180612959602a913960400191505060405180910390fd5b6001600160a01b0382166000908152600260205260409020610bc09061188e565b601154611016600b61180b565b10611068576040805162461bcd60e51b815260206004820152601e60248201527f4d6178696d756d207469636b6574206c696d6974206578636565646564210000604482015290519081900360640190fd5b6103e8826110746117bc565b0111156110b25760405162461bcd60e51b815260040180806020018281038252602e8152602001806129ac602e913960400191505060405180910390fd5b60005b82811015610a7e576110c682611c3d565b506001016110b5565b60105490565b6000828152602081905260408120610bbd9083611af2565b6000828152602081905260408120610bbd9083611d1a565b60088054604080516020601f600260001961010060018816150201909516949094049384018190048102820181019092528281526060939092909183018282801561093c5780601f106109115761010080835404028352916020019161093c565b600081565b61117361181c565b6001600160a01b0316826001600160a01b031614156111d9576040805162461bcd60e51b815260206004820152601960248201527f4552433732313a20617070726f766520746f2063616c6c657200000000000000604482015290519081900360640190fd5b80600660006111e661181c565b6001600160a01b03908116825260208083019390935260409182016000908120918716808252919093529120805460ff19169215159290921790915561122a61181c565b6001600160a01b03167f17307eab39ab6107e8899845ad3d59bd9653f200f220920489ca2b5937696c318360405180821515815260200191505060405180910390a35050565b6001600160a01b0381166000908152601360209081526040918290208054835181840281018401909452808452606093928301828280156112d057602002820191906000526020600020905b8154815260200190600101908083116112bc575b50505050509050919050565b6112ed6112e761181c565b83611899565b6113285760405162461bcd60e51b8152600401808060200182810382526031815260200180612aa16031913960400191505060405180910390fd5b610e1c84848484611d2f565b60008181526012602052604090208054600190910154829190806064606e8402048301116113935760405162461bcd60e51b8152600401808060200182810382526022815260200180612b306022913960400191505060405180910390fd5b600061139e85610cc4565b6000868152601260205260409020600101549091506113be828888610a9e565b6113c787611beb565b61141757600e80546001810182556000919091527fbb7b4a454dc3493923482f07822329ed19e8244eff582cc204f8554c3620c3fd0180546001600160a01b0319166001600160a01b0389161790555b6001600160a01b03871660009081526013602090815260408220805460018101825590835291200186905561144c8287611d81565b61145586611ea0565b604080516060810182529182526000602080840182815284840183815299835260129091529190209151825551600182015594516002909501805460ff1916951515959095179094555050505050565b60606114b08261180f565b6114eb5760405162461bcd60e51b815260040180806020018281038252602f815260200180612a51602f913960400191505060405180910390fd5b60008281526009602090815260409182902080548351601f60026000196101006001861615020190931692909204918201849004840281018401909452808452606093928301828280156115805780601f1061155557610100808354040283529160200191611580565b820191906000526020600020905b81548152906001019060200180831161156357829003601f168201915b505050505090506060611591610f40565b90508051600014156115a55750905061089a565b8151156116665780826040516020018083805190602001908083835b602083106115e05780518252601f1990920191602091820191016115c1565b51815160209384036101000a600019018019909216911617905285519190930192850191508083835b602083106116285780518252601f199092019160209182019101611609565b6001836020036101000a038019825116818451168082178552505050505050905001925050506040516020818303038152906040529250505061089a565b8061167085611f41565b6040516020018083805190602001908083835b602083106116a25780518252601f199092019160209182019101611683565b51815160209384036101000a600019018019909216911617905285519190930192850191508083835b602083106116ea5780518252601f1990920191602091820191016116cb565b6001836020036101000a0380198251168184511680821785525050505050509050019250505060405160208183030381529060405292505050919050565b6000818152602081905260408120610bc09061188e565b7f9f2df0fed2c77648de5860a4cc508cd0818c85b8b8a1ab4ceeef8d981c8956a681565b60008281526020819052604090206002015461178190610b4d61181c565b610c745760405162461bcd60e51b81526004018080602001828103825260308152602001806128cf6030913960400191505060405180910390fd5b60006108ab600b61180b565b6001600160a01b03918216600090815260066020908152604080832093909416825291909152205460ff1690565b6000610bbd836001600160a01b03841661201c565b5490565b6000610bc0600383612066565b3390565b600081815260056020526040902080546001600160a01b0319166001600160a01b038416908117909155819061185582610cc4565b6001600160a01b03167f8c5be1e5ebec7d5bd14f71427d1e84f3dd0314c0f7b2291e5b200ac8c7c3b92560405160405180910390a45050565b6000610bc08261180b565b60006118a48261180f565b6118df5760405162461bcd60e51b815260040180806020018281038252602c8152602001806128a3602c913960400191505060405180910390fd5b60006118ea83610cc4565b9050806001600160a01b0316846001600160a01b031614806119255750836001600160a01b031661191a84610946565b6001600160a01b0316145b80611935575061193581856117c8565b949350505050565b826001600160a01b031661195082610cc4565b6001600160a01b0316146119955760405162461bcd60e51b8152600401808060200182810382526029815260200180612a286029913960400191505060405180910390fd5b6001600160a01b0382166119da5760405162461bcd60e51b815260040180806020018281038252602481526020018061287f6024913960400191505060405180910390fd5b6119e5838383610a7e565b6119f0600082611820565b6001600160a01b0383166000908152600260205260409020611a129082612072565b506001600160a01b0382166000908152600260205260409020611a35908261207e565b50611a426003828461208a565b5080826001600160a01b0316846001600160a01b03167fddf252ad1be2c89b69c2b068fc378daa952ba7f163c4a11628f55a4df523b3ef60405160405180910390a4505050565b6000828152602081905260409020611aa190826117f6565b15610b9757611aae61181c565b6001600160a01b0316816001600160a01b0316837f2f8788117e7eff1d82e926ec794901d17c78024a50270940304540a733656f0d60405160405180910390a45050565b6000610bbd83836120a0565b6000828152602081905260409020611b169082612104565b15610b9757611b2361181c565b6001600160a01b0316816001600160a01b0316837ff6391f5c32d9c69d2a47ea670b442974b53935d1edc7fd64eb21e047a839171b60405160405180910390a45050565b6000808080611b768686612119565b9097909650945050505050565b6000611b90848484612194565b90505b9392505050565b6000805b600f54811015611bd95782600f8281548110611bb657fe5b90600052602060002001541415611bd157600191505061089a565b600101611b9e565b50600092915050565b80546001019055565b6000805b600e54811015611bd957826001600160a01b0316600e8281548110611c1057fe5b6000918252602090912001546001600160a01b03161415611c3557600191505061089a565b600101611bef565b6000611c6b7f9f2df0fed2c77648de5860a4cc508cd0818c85b8b8a1ab4ceeef8d981c8956a6610b4d61181c565b611ca65760405162461bcd60e51b81526004018080602001828103825260228152602001806128ff6022913960400191505060405180910390fd5b611cb0600b611be2565b6000611cbc600b61180b565b9050611cc8838261225e565b60408051606081018252601054815260006020808301828152838501838152868452601290925293909120915182559151600182015590516002909101805460ff191691151591909117905592915050565b6000610bbd836001600160a01b03841661238c565b611d3a84848461193d565b611d46848484846123a4565b610e1c5760405162461bcd60e51b815260040180806020018281038252603281526020018061284d6032913960400191505060405180910390fd5b6001600160a01b038216600090815260136020526040812054905b81811015610e1c576001600160a01b0384166000908152601360205260409020805484919083908110611dcb57fe5b90600052602060002001541415611e9857600181015b82811015611e5f576001600160a01b0385166000908152601360205260409020805482908110611e0d57fe5b906000526020600020015460136000876001600160a01b03166001600160a01b031681526020019081526020016000206001830381548110611e4b57fe5b600091825260209091200155600101611de1565b506001600160a01b0384166000908152601360205260409020805480611e8157fe5b600190038181906000526020600020016000905590555b600101611d9c565b600f5460005b81811015610a7e5782600f8281548110611ebc57fe5b90600052602060002001541415611f3957600181015b82811015611f1657600f8181548110611ee757fe5b9060005260206000200154600f6001830381548110611f0257fe5b600091825260209091200155600101611ed2565b50600f805480611f2257fe5b600190038181906000526020600020016000905590555b600101611ea6565b606081611f6657506040805180820190915260018152600360fc1b602082015261089a565b8160005b8115611f7e57600101600a82049150611f6a565b60608167ffffffffffffffff81118015611f9757600080fd5b506040519080825280601f01601f191660200182016040528015611fc2576020820181803683370190505b50859350905060001982015b831561201357600a840660300160f81b82828060019003935081518110611ff157fe5b60200101906001600160f81b031916908160001a905350600a84049350611fce565b50949350505050565b6000612028838361238c565b61205e57508154600181810184556000848152602080822090930184905584548482528286019093526040902091909155610bc0565b506000610bc0565b6000610bbd838361238c565b6000610bbd838361250c565b6000610bbd838361201c565b6000611b9084846001600160a01b0385166125d2565b815460009082106120e25760405162461bcd60e51b81526004018080602001828103825260228152602001806127fc6022913960400191505060405180910390fd5b8260000182815481106120f157fe5b9060005260206000200154905092915050565b6000610bbd836001600160a01b03841661250c565b81546000908190831061215d5760405162461bcd60e51b81526004018080602001828103825260228152602001806129da6022913960400191505060405180910390fd5b600084600001848154811061216e57fe5b906000526020600020906002020190508060000154816001015492509250509250929050565b6000828152600184016020526040812054828161222f5760405162461bcd60e51b81526004018080602001828103825283818151815260200191508051906020019080838360005b838110156121f45781810151838201526020016121dc565b50505050905090810190601f1680156122215780820380516001836020036101000a031916815260200191505b509250505060405180910390fd5b5084600001600182038154811061224257fe5b9060005260206000209060020201600101549150509392505050565b6001600160a01b0382166122b9576040805162461bcd60e51b815260206004820181905260248201527f4552433732313a206d696e7420746f20746865207a65726f2061646472657373604482015290519081900360640190fd5b6122c28161180f565b15612314576040805162461bcd60e51b815260206004820152601c60248201527f4552433732313a20746f6b656e20616c7265616479206d696e74656400000000604482015290519081900360640190fd5b61232060008383610a7e565b6001600160a01b0382166000908152600260205260409020612342908261207e565b5061234f6003828461208a565b5060405181906001600160a01b038416906000907fddf252ad1be2c89b69c2b068fc378daa952ba7f163c4a11628f55a4df523b3ef908290a45050565b60009081526001919091016020526040902054151590565b60006123b8846001600160a01b0316612669565b6123c457506001611935565b60606124d2630a85bd0160e11b6123d961181c565b88878760405160240180856001600160a01b03168152602001846001600160a01b0316815260200183815260200180602001828103825283818151815260200191508051906020019080838360005b83811015612440578181015183820152602001612428565b50505050905090810190601f16801561246d5780820380516001836020036101000a031916815260200191505b5095505050505050604051602081830303815290604052906001600160e01b0319166020820180516001600160e01b03838183161783525050505060405180606001604052806032815260200161284d603291396001600160a01b038816919061266f565b905060008180602001905160208110156124eb57600080fd5b50516001600160e01b031916630a85bd0160e11b1492505050949350505050565b600081815260018301602052604081205480156125c8578354600019808301919081019060009087908390811061253f57fe5b906000526020600020015490508087600001848154811061255c57fe5b60009182526020808320909101929092558281526001898101909252604090209084019055865487908061258c57fe5b60019003818190600052602060002001600090559055866001016000878152602001908152602001600020600090556001945050505050610bc0565b6000915050610bc0565b600082815260018401602052604081205480612637575050604080518082018252838152602080820184815286546001818101895560008981528481209551600290930290950191825591519082015586548684528188019092529290912055611b93565b8285600001600183038154811061264a57fe5b9060005260206000209060020201600101819055506000915050611b93565b3b151590565b6060611b9084846000858561268385612669565b6126d4576040805162461bcd60e51b815260206004820152601d60248201527f416464726573733a2063616c6c20746f206e6f6e2d636f6e7472616374000000604482015290519081900360640190fd5b60006060866001600160a01b031685876040518082805190602001908083835b602083106127135780518252601f1990920191602091820191016126f4565b6001836020036101000a03801982511681845116808217855250505050505090500191505060006040518083038185875af1925050503d8060008114612775576040519150601f19603f3d011682016040523d82523d6000602084013e61277a565b606091505b509150915061278a828286612795565b979650505050505050565b606083156127a4575081611b93565b8251156127b45782518084602001fd5b60405162461bcd60e51b81526020600482018181528451602484015284518593919283926044019190850190808383600083156121f45781810151838201526020016121dc56fe456e756d657261626c655365743a20696e646578206f7574206f6620626f756e6473416363657373436f6e74726f6c3a2073656e646572206d75737420626520616e2061646d696e20746f206772616e744552433732313a207472616e7366657220746f206e6f6e20455243373231526563656976657220696d706c656d656e7465724552433732313a207472616e7366657220746f20746865207a65726f20616464726573734552433732313a206f70657261746f7220717565727920666f72206e6f6e6578697374656e7420746f6b656e416363657373436f6e74726f6c3a2073656e646572206d75737420626520616e2061646d696e20746f207265766f6b6555736572206d7573742068617665206d696e74657220726f6c6520746f206d696e744552433732313a20617070726f76652063616c6c6572206973206e6f74206f776e6572206e6f7220617070726f76656420666f7220616c6c4552433732313a2062616c616e636520717565727920666f7220746865207a65726f20616464726573734552433732313a206f776e657220717565727920666f72206e6f6e6578697374656e7420746f6b656e4e756d626572206f66207469636b6574732065786365656473206d6178696d756d207469636b657420636f756e74456e756d657261626c654d61703a20696e646578206f7574206f6620626f756e64734552433732313a20617070726f76656420717565727920666f72206e6f6e6578697374656e7420746f6b656e4552433732313a207472616e73666572206f6620746f6b656e2074686174206973206e6f74206f776e4552433732314d657461646174613a2055524920717565727920666f72206e6f6e6578697374656e7420746f6b656e4552433732313a20617070726f76616c20746f2063757272656e74206f776e65724552433732313a207472616e736665722063616c6c6572206973206e6f74206f776e6572206e6f7220617070726f76656446756e6374696f6e616c697479206f6e6c7920616c6c6f77656420666f72207365636f6e64617279206d61726b6574416363657373436f6e74726f6c3a2063616e206f6e6c792072656e6f756e636520726f6c657320666f722073656c6652652d73656c6c696e67207072696365206973206d6f7265207468616e2031313025a264697066735822122068209c3a8849629589a808b65daefcdbc6b7e3b91d169abcc8cf43798085db7064736f6c634300060c0033",
  "immutableReferences": {},
  "source": "pragma solidity ^0.6.0;\n\nimport \"@openzeppelin/contracts/utils/Context.sol\";\nimport \"@openzeppelin/contracts/access/AccessControl.sol\";\nimport \"@openzeppelin/contracts/token/ERC721/ERC721.sol\";\nimport \"@openzeppelin/contracts/utils/Counters.sol\";\n\ncontract FestivalNFT is Context, AccessControl, ERC721 {\n    using Counters for Counters.Counter;\n\n    Counters.Counter private _ticketIds;\n    Counters.Counter private _saleTicketId;\n\n    bytes32 public constant MINTER_ROLE = keccak256(\"MINTER_ROLE\");\n\n    struct TicketDetails {\n        uint256 purchasePrice;\n        uint256 sellingPrice;\n        bool forSale;\n    }\n\n    address private _organiser;\n    address[] private customers;\n    uint256[] private ticketsForSale;\n    uint256 private _ticketPrice;\n    uint256 private _totalSupply;\n\n    mapping(uint256 => TicketDetails) private _ticketDetails;\n    mapping(address => uint256[]) private purchasedTickets;\n\n    constructor(\n        string memory festName,\n        string memory FestSymbol,\n        uint256 ticketPrice,\n        uint256 totalSupply,\n        address organiser\n    ) public ERC721(festName, FestSymbol) {\n        _setupRole(MINTER_ROLE, organiser);\n\n        _ticketPrice = ticketPrice;\n        _totalSupply = totalSupply;\n        _organiser = organiser;\n    }\n\n    modifier isValidTicketCount {\n        require(\n            _ticketIds.current() < _totalSupply,\n            \"Maximum ticket limit exceeded!\"\n        );\n        _;\n    }\n\n    modifier isMinterRole {\n        require(\n            hasRole(MINTER_ROLE, _msgSender()),\n            \"User must have minter role to mint\"\n        );\n        _;\n    }\n\n    modifier isValidSellAmount(uint256 ticketId) {\n        uint256 purchasePrice = _ticketDetails[ticketId].purchasePrice;\n        uint256 sellingPrice = _ticketDetails[ticketId].sellingPrice;\n\n        require(\n            purchasePrice + ((purchasePrice * 110) / 100) > sellingPrice,\n            \"Re-selling price is more than 110%\"\n        );\n        _;\n    }\n\n    /*\n     * Mint new tickets and assign it to operator\n     * Access controlled by minter only\n     * Returns new ticketId\n     */\n    function mint(address operator)\n        internal\n        virtual\n        isMinterRole\n        returns (uint256)\n    {\n        _ticketIds.increment();\n        uint256 newTicketId = _ticketIds.current();\n        _mint(operator, newTicketId);\n\n        _ticketDetails[newTicketId] = TicketDetails({\n            purchasePrice: _ticketPrice,\n            sellingPrice: 0,\n            forSale: false\n        });\n\n        return newTicketId;\n    }\n\n    /*\n     * Bulk mint specified number of tickets to assign it to a operator\n     * Modifier to check the ticket count is less than total supply\n     */\n    function bulkMintTickets(uint256 numOfTickets, address operator)\n        public\n        virtual\n        isValidTicketCount\n    {\n        require(\n            (ticketCounts() + numOfTickets) <= 1000,\n            \"Number of tickets exceeds maximum ticket count\"\n        );\n\n        for (uint256 i = 0; i < numOfTickets; i++) {\n            mint(operator);\n        }\n    }\n\n    /*\n     * Primary purchase for the tickets\n     * Adds new customer if not exists\n     * Adds buyer to tickets mapping\n     * Update ticket details\n     */\n    function transferTicket(address buyer) public {\n        _saleTicketId.increment();\n        uint256 saleTicketId = _saleTicketId.current();\n\n        require(\n            msg.sender == ownerOf(saleTicketId),\n            \"Only initial purchase allowed\"\n        );\n\n        transferFrom(ownerOf(saleTicketId), buyer, saleTicketId);\n\n        if (!isCustomerExist(buyer)) {\n            customers.push(buyer);\n        }\n        purchasedTickets[buyer].push(saleTicketId);\n    }\n\n    /*\n     * Secondary purchase for the tickets\n     * Modifier to validate that the selling price shouldn't exceed 110% of purchase price for peer to peer transfers\n     * Adds new customer if not exists\n     * Adds buyer to tickets mapping\n     * Remove ticket from the seller and from sale\n     * Update ticket details\n     */\n    function secondaryTransferTicket(address buyer, uint256 saleTicketId)\n        public\n        isValidSellAmount(saleTicketId)\n    {\n        address seller = ownerOf(saleTicketId);\n        uint256 sellingPrice = _ticketDetails[saleTicketId].sellingPrice;\n\n        transferFrom(seller, buyer, saleTicketId);\n\n        if (!isCustomerExist(buyer)) {\n            customers.push(buyer);\n        }\n\n        purchasedTickets[buyer].push(saleTicketId);\n\n        removeTicketFromCustomer(seller, saleTicketId);\n        removeTicketFromSale(saleTicketId);\n\n        _ticketDetails[saleTicketId] = TicketDetails({\n            purchasePrice: sellingPrice,\n            sellingPrice: 0,\n            forSale: false\n        });\n    }\n\n    /*\n     * Add ticket for sale with its details\n     * Validate that the selling price shouldn't exceed 110% of purchase price\n     * Organiser can not use secondary market sale\n     */\n    function setSaleDetails(\n        uint256 ticketId,\n        uint256 sellingPrice,\n        address operator\n    ) public {\n        uint256 purchasePrice = _ticketDetails[ticketId].purchasePrice;\n\n        require(\n            purchasePrice + ((purchasePrice * 110) / 100) > sellingPrice,\n            \"Re-selling price is more than 110%\"\n        );\n\n        // Should not be an organiser\n        require(\n            !hasRole(MINTER_ROLE, _msgSender()),\n            \"Functionality only allowed for secondary market\"\n        );\n\n        _ticketDetails[ticketId].sellingPrice = sellingPrice;\n        _ticketDetails[ticketId].forSale = true;\n\n        if (!isSaleTicketAvailable(ticketId)) {\n            ticketsForSale.push(ticketId);\n        }\n\n        approve(operator, ticketId);\n    }\n\n    // Get ticket actual price\n    function getTicketPrice() public view returns (uint256) {\n        return _ticketPrice;\n    }\n\n    // Get organiser's address\n    function getOrganiser() public view returns (address) {\n        return _organiser;\n    }\n\n    // Get current ticketId\n    function ticketCounts() public view returns (uint256) {\n        return _ticketIds.current();\n    }\n\n    // Get next sale ticketId\n    function getNextSaleTicketId() public view returns (uint256) {\n        return _saleTicketId.current();\n    }\n\n    // Get selling price for the ticket\n    function getSellingPrice(uint256 ticketId) public view returns (uint256) {\n        return _ticketDetails[ticketId].sellingPrice;\n    }\n\n    // Get all tickets available for sale\n    function getTicketsForSale() public view returns (uint256[] memory) {\n        return ticketsForSale;\n    }\n\n    // Get ticket details\n    function getTicketDetails(uint256 ticketId)\n        public\n        view\n        returns (\n            uint256 purchasePrice,\n            uint256 sellingPrice,\n            bool forSale\n        )\n    {\n        return (\n            _ticketDetails[ticketId].purchasePrice,\n            _ticketDetails[ticketId].sellingPrice,\n            _ticketDetails[ticketId].forSale\n        );\n    }\n\n    // Get all tickets owned by a customer\n    function getTicketsOfCustomer(address customer)\n        public\n        view\n        returns (uint256[] memory)\n    {\n        return purchasedTickets[customer];\n    }\n\n    // Utility function to check if customer exists to avoid redundancy\n    function isCustomerExist(address buyer) internal view returns (bool) {\n        for (uint256 i = 0; i < customers.length; i++) {\n            if (customers[i] == buyer) {\n                return true;\n            }\n        }\n        return false;\n    }\n\n    // Utility function used to check if ticket is already for sale\n    function isSaleTicketAvailable(uint256 ticketId)\n        internal\n        view\n        returns (bool)\n    {\n        for (uint256 i = 0; i < ticketsForSale.length; i++) {\n            if (ticketsForSale[i] == ticketId) {\n                return true;\n            }\n        }\n        return false;\n    }\n\n    // Utility function to remove ticket owned by customer from customer to ticket mapping\n    function removeTicketFromCustomer(address customer, uint256 ticketId)\n        internal\n    {\n        uint256 numOfTickets = purchasedTickets[customer].length;\n\n        for (uint256 i = 0; i < numOfTickets; i++) {\n            if (purchasedTickets[customer][i] == ticketId) {\n                for (uint256 j = i + 1; j < numOfTickets; j++) {\n                    purchasedTickets[customer][j - 1] = purchasedTickets[\n                        customer\n                    ][j];\n                }\n                purchasedTickets[customer].pop();\n            }\n        }\n    }\n\n    // Utility function to remove ticket from sale list\n    function removeTicketFromSale(uint256 ticketId) internal {\n        uint256 numOfTickets = ticketsForSale.length;\n\n        for (uint256 i = 0; i < numOfTickets; i++) {\n            if (ticketsForSale[i] == ticketId) {\n                for (uint256 j = i + 1; j < numOfTickets; j++) {\n                    ticketsForSale[j - 1] = ticketsForSale[j];\n                }\n                ticketsForSale.pop();\n            }\n        }\n    }\n}\n",
  "sourcePath": "/app/contracts/FestivalNFT.sol",
  "compiler": {
    "name": "solc",
    "version": "0.6.12+commit.27d51765.Emscripten.clang"
  },
  "schemaVersion": "3.3.3",
  "updatedAt": "2021-09-24T09:10:49.599Z",
  "devdoc": {
    "kind": "dev",
    "methods": {
      "approve(address,uint256)": {
        "details": "See {IERC721-approve}."
      },
      "balanceOf(address)": {
        "details": "See {IERC721-balanceOf}."
      },
      "baseURI()": {
        "details": "Returns the base URI set via {_setBaseURI}. This will be automatically added as a prefix in {tokenURI} to each token's URI, or to the token ID if no specific URI is set for that token ID."
      },
      "getApproved(uint256)": {
        "details": "See {IERC721-getApproved}."
      },
      "getRoleAdmin(bytes32)": {
        "details": "Returns the admin role that controls `role`. See {grantRole} and {revokeRole}. To change a role's admin, use {_setRoleAdmin}."
      },
      "getRoleMember(bytes32,uint256)": {
        "details": "Returns one of the accounts that have `role`. `index` must be a value between 0 and {getRoleMemberCount}, non-inclusive. Role bearers are not sorted in any particular way, and their ordering may change at any point. WARNING: When using {getRoleMember} and {getRoleMemberCount}, make sure you perform all queries on the same block. See the following https://forum.openzeppelin.com/t/iterating-over-elements-on-enumerableset-in-openzeppelin-contracts/2296[forum post] for more information."
      },
      "getRoleMemberCount(bytes32)": {
        "details": "Returns the number of accounts that have `role`. Can be used together with {getRoleMember} to enumerate all bearers of a role."
      },
      "grantRole(bytes32,address)": {
        "details": "Grants `role` to `account`. If `account` had not been already granted `role`, emits a {RoleGranted} event. Requirements: - the caller must have ``role``'s admin role."
      },
      "hasRole(bytes32,address)": {
        "details": "Returns `true` if `account` has been granted `role`."
      },
      "isApprovedForAll(address,address)": {
        "details": "See {IERC721-isApprovedForAll}."
      },
      "name()": {
        "details": "See {IERC721Metadata-name}."
      },
      "ownerOf(uint256)": {
        "details": "See {IERC721-ownerOf}."
      },
      "renounceRole(bytes32,address)": {
        "details": "Revokes `role` from the calling account. Roles are often managed via {grantRole} and {revokeRole}: this function's purpose is to provide a mechanism for accounts to lose their privileges if they are compromised (such as when a trusted device is misplaced). If the calling account had been granted `role`, emits a {RoleRevoked} event. Requirements: - the caller must be `account`."
      },
      "revokeRole(bytes32,address)": {
        "details": "Revokes `role` from `account`. If `account` had been granted `role`, emits a {RoleRevoked} event. Requirements: - the caller must have ``role``'s admin role."
      },
      "safeTransferFrom(address,address,uint256)": {
        "details": "See {IERC721-safeTransferFrom}."
      },
      "safeTransferFrom(address,address,uint256,bytes)": {
        "details": "See {IERC721-safeTransferFrom}."
      },
      "setApprovalForAll(address,bool)": {
        "details": "See {IERC721-setApprovalForAll}."
      },
      "supportsInterface(bytes4)": {
        "details": "See {IERC165-supportsInterface}. Time complexity O(1), guaranteed to always use less than 30 000 gas."
      },
      "symbol()": {
        "details": "See {IERC721Metadata-symbol}."
      },
      "tokenByIndex(uint256)": {
        "details": "See {IERC721Enumerable-tokenByIndex}."
      },
      "tokenOfOwnerByIndex(address,uint256)": {
        "details": "See {IERC721Enumerable-tokenOfOwnerByIndex}."
      },
      "tokenURI(uint256)": {
        "details": "See {IERC721Metadata-tokenURI}."
      },
      "totalSupply()": {
        "details": "See {IERC721Enumerable-totalSupply}."
      },
      "transferFrom(address,address,uint256)": {
        "details": "See {IERC721-transferFrom}."
      }
    },
    "version": 1
  },
  "userdoc": {
    "kind": "user",
    "methods": {},
    "version": 1
  }
}