{
  "contractName": "Event",
  "abi": [
    {
      "inputs": [
        {
          "internalType": "uint256",
          "name": "eventID",
          "type": "uint256"
        },
        {
          "internalType": "string",
          "name": "eventName",
          "type": "string"
        },
        {
          "internalType": "string",
          "name": "eventSymbol",
          "type": "string"
        },
        {
          "internalType": "uint256",
          "name": "ticketPrice",
          "type": "uint256"
        },
        {
          "internalType": "uint256",
          "name": "totalSupply",
          "type": "uint256"
        },
        {
          "internalType": "uint256",
          "name": "eventDate",
          "type": "uint256"
        },
        {
          "internalType": "address",
          "name": "organizer",
          "type": "address"
        },
        {
          "internalType": "address",
          "name": "reseller",
          "type": "address"
        }
      ],
      "stateMutability": "nonpayable",
      "type": "constructor"
    },
    {
      "anonymous": false,
      "inputs": [
        {
          "indexed": true,
          "internalType": "address",
          "name": "owner",
          "type": "address"
        },
        {
          "indexed": true,
          "internalType": "address",
          "name": "approved",
          "type": "address"
        },
        {
          "indexed": true,
          "internalType": "uint256",
          "name": "tokenId",
          "type": "uint256"
        }
      ],
      "name": "Approval",
      "type": "event"
    },
    {
      "anonymous": false,
      "inputs": [
        {
          "indexed": true,
          "internalType": "address",
          "name": "owner",
          "type": "address"
        },
        {
          "indexed": true,
          "internalType": "address",
          "name": "operator",
          "type": "address"
        },
        {
          "indexed": false,
          "internalType": "bool",
          "name": "approved",
          "type": "bool"
        }
      ],
      "name": "ApprovalForAll",
      "type": "event"
    },
    {
      "anonymous": false,
      "inputs": [
        {
          "indexed": true,
          "internalType": "bytes32",
          "name": "role",
          "type": "bytes32"
        },
        {
          "indexed": true,
          "internalType": "bytes32",
          "name": "previousAdminRole",
          "type": "bytes32"
        },
        {
          "indexed": true,
          "internalType": "bytes32",
          "name": "newAdminRole",
          "type": "bytes32"
        }
      ],
      "name": "RoleAdminChanged",
      "type": "event"
    },
    {
      "anonymous": false,
      "inputs": [
        {
          "indexed": true,
          "internalType": "bytes32",
          "name": "role",
          "type": "bytes32"
        },
        {
          "indexed": true,
          "internalType": "address",
          "name": "account",
          "type": "address"
        },
        {
          "indexed": true,
          "internalType": "address",
          "name": "sender",
          "type": "address"
        }
      ],
      "name": "RoleGranted",
      "type": "event"
    },
    {
      "anonymous": false,
      "inputs": [
        {
          "indexed": true,
          "internalType": "bytes32",
          "name": "role",
          "type": "bytes32"
        },
        {
          "indexed": true,
          "internalType": "address",
          "name": "account",
          "type": "address"
        },
        {
          "indexed": true,
          "internalType": "address",
          "name": "sender",
          "type": "address"
        }
      ],
      "name": "RoleRevoked",
      "type": "event"
    },
    {
      "anonymous": false,
      "inputs": [
        {
          "indexed": true,
          "internalType": "address",
          "name": "from",
          "type": "address"
        },
        {
          "indexed": true,
          "internalType": "address",
          "name": "to",
          "type": "address"
        },
        {
          "indexed": true,
          "internalType": "uint256",
          "name": "tokenId",
          "type": "uint256"
        }
      ],
      "name": "Transfer",
      "type": "event"
    },
    {
      "inputs": [],
      "name": "DEFAULT_ADMIN_ROLE",
      "outputs": [
        {
          "internalType": "bytes32",
          "name": "",
          "type": "bytes32"
        }
      ],
      "stateMutability": "view",
      "type": "function"
    },
    {
      "inputs": [],
      "name": "MINTER_ROLE",
      "outputs": [
        {
          "internalType": "bytes32",
          "name": "",
          "type": "bytes32"
        }
      ],
      "stateMutability": "view",
      "type": "function"
    },
    {
      "inputs": [
        {
          "internalType": "address",
          "name": "",
          "type": "address"
        },
        {
          "internalType": "uint256",
          "name": "",
          "type": "uint256"
        }
      ],
      "name": "_purchasedTickets",
      "outputs": [
        {
          "internalType": "uint256",
          "name": "",
          "type": "uint256"
        }
      ],
      "stateMutability": "view",
      "type": "function"
    },
    {
      "inputs": [
        {
          "internalType": "uint256",
          "name": "",
          "type": "uint256"
        }
      ],
      "name": "_ticketsToCheck",
      "outputs": [
        {
          "internalType": "address",
          "name": "",
          "type": "address"
        }
      ],
      "stateMutability": "view",
      "type": "function"
    },
    {
      "inputs": [
        {
          "internalType": "address",
          "name": "to",
          "type": "address"
        },
        {
          "internalType": "uint256",
          "name": "tokenId",
          "type": "uint256"
        }
      ],
      "name": "approve",
      "outputs": [],
      "stateMutability": "nonpayable",
      "type": "function"
    },
    {
      "inputs": [
        {
          "internalType": "address",
          "name": "owner",
          "type": "address"
        }
      ],
      "name": "balanceOf",
      "outputs": [
        {
          "internalType": "uint256",
          "name": "",
          "type": "uint256"
        }
      ],
      "stateMutability": "view",
      "type": "function"
    },
    {
      "inputs": [],
      "name": "baseURI",
      "outputs": [
        {
          "internalType": "string",
          "name": "",
          "type": "string"
        }
      ],
      "stateMutability": "view",
      "type": "function"
    },
    {
      "inputs": [
        {
          "internalType": "uint256",
          "name": "tokenId",
          "type": "uint256"
        }
      ],
      "name": "getApproved",
      "outputs": [
        {
          "internalType": "address",
          "name": "",
          "type": "address"
        }
      ],
      "stateMutability": "view",
      "type": "function"
    },
    {
      "inputs": [
        {
          "internalType": "bytes32",
          "name": "role",
          "type": "bytes32"
        }
      ],
      "name": "getRoleAdmin",
      "outputs": [
        {
          "internalType": "bytes32",
          "name": "",
          "type": "bytes32"
        }
      ],
      "stateMutability": "view",
      "type": "function"
    },
    {
      "inputs": [
        {
          "internalType": "bytes32",
          "name": "role",
          "type": "bytes32"
        },
        {
          "internalType": "uint256",
          "name": "index",
          "type": "uint256"
        }
      ],
      "name": "getRoleMember",
      "outputs": [
        {
          "internalType": "address",
          "name": "",
          "type": "address"
        }
      ],
      "stateMutability": "view",
      "type": "function"
    },
    {
      "inputs": [
        {
          "internalType": "bytes32",
          "name": "role",
          "type": "bytes32"
        }
      ],
      "name": "getRoleMemberCount",
      "outputs": [
        {
          "internalType": "uint256",
          "name": "",
          "type": "uint256"
        }
      ],
      "stateMutability": "view",
      "type": "function"
    },
    {
      "inputs": [
        {
          "internalType": "bytes32",
          "name": "role",
          "type": "bytes32"
        },
        {
          "internalType": "address",
          "name": "account",
          "type": "address"
        }
      ],
      "name": "grantRole",
      "outputs": [],
      "stateMutability": "nonpayable",
      "type": "function"
    },
    {
      "inputs": [
        {
          "internalType": "bytes32",
          "name": "role",
          "type": "bytes32"
        },
        {
          "internalType": "address",
          "name": "account",
          "type": "address"
        }
      ],
      "name": "hasRole",
      "outputs": [
        {
          "internalType": "bool",
          "name": "",
          "type": "bool"
        }
      ],
      "stateMutability": "view",
      "type": "function"
    },
    {
      "inputs": [
        {
          "internalType": "address",
          "name": "owner",
          "type": "address"
        },
        {
          "internalType": "address",
          "name": "operator",
          "type": "address"
        }
      ],
      "name": "isApprovedForAll",
      "outputs": [
        {
          "internalType": "bool",
          "name": "",
          "type": "bool"
        }
      ],
      "stateMutability": "view",
      "type": "function"
    },
    {
      "inputs": [],
      "name": "name",
      "outputs": [
        {
          "internalType": "string",
          "name": "",
          "type": "string"
        }
      ],
      "stateMutability": "view",
      "type": "function"
    },
    {
      "inputs": [
        {
          "internalType": "uint256",
          "name": "tokenId",
          "type": "uint256"
        }
      ],
      "name": "ownerOf",
      "outputs": [
        {
          "internalType": "address",
          "name": "",
          "type": "address"
        }
      ],
      "stateMutability": "view",
      "type": "function"
    },
    {
      "inputs": [
        {
          "internalType": "bytes32",
          "name": "role",
          "type": "bytes32"
        },
        {
          "internalType": "address",
          "name": "account",
          "type": "address"
        }
      ],
      "name": "renounceRole",
      "outputs": [],
      "stateMutability": "nonpayable",
      "type": "function"
    },
    {
      "inputs": [
        {
          "internalType": "bytes32",
          "name": "role",
          "type": "bytes32"
        },
        {
          "internalType": "address",
          "name": "account",
          "type": "address"
        }
      ],
      "name": "revokeRole",
      "outputs": [],
      "stateMutability": "nonpayable",
      "type": "function"
    },
    {
      "inputs": [
        {
          "internalType": "address",
          "name": "from",
          "type": "address"
        },
        {
          "internalType": "address",
          "name": "to",
          "type": "address"
        },
        {
          "internalType": "uint256",
          "name": "tokenId",
          "type": "uint256"
        }
      ],
      "name": "safeTransferFrom",
      "outputs": [],
      "stateMutability": "nonpayable",
      "type": "function"
    },
    {
      "inputs": [
        {
          "internalType": "address",
          "name": "from",
          "type": "address"
        },
        {
          "internalType": "address",
          "name": "to",
          "type": "address"
        },
        {
          "internalType": "uint256",
          "name": "tokenId",
          "type": "uint256"
        },
        {
          "internalType": "bytes",
          "name": "_data",
          "type": "bytes"
        }
      ],
      "name": "safeTransferFrom",
      "outputs": [],
      "stateMutability": "nonpayable",
      "type": "function"
    },
    {
      "inputs": [
        {
          "internalType": "address",
          "name": "operator",
          "type": "address"
        },
        {
          "internalType": "bool",
          "name": "approved",
          "type": "bool"
        }
      ],
      "name": "setApprovalForAll",
      "outputs": [],
      "stateMutability": "nonpayable",
      "type": "function"
    },
    {
      "inputs": [
        {
          "internalType": "bytes4",
          "name": "interfaceId",
          "type": "bytes4"
        }
      ],
      "name": "supportsInterface",
      "outputs": [
        {
          "internalType": "bool",
          "name": "",
          "type": "bool"
        }
      ],
      "stateMutability": "view",
      "type": "function"
    },
    {
      "inputs": [],
      "name": "symbol",
      "outputs": [
        {
          "internalType": "string",
          "name": "",
          "type": "string"
        }
      ],
      "stateMutability": "view",
      "type": "function"
    },
    {
      "inputs": [
        {
          "internalType": "uint256",
          "name": "index",
          "type": "uint256"
        }
      ],
      "name": "tokenByIndex",
      "outputs": [
        {
          "internalType": "uint256",
          "name": "",
          "type": "uint256"
        }
      ],
      "stateMutability": "view",
      "type": "function"
    },
    {
      "inputs": [
        {
          "internalType": "address",
          "name": "owner",
          "type": "address"
        },
        {
          "internalType": "uint256",
          "name": "index",
          "type": "uint256"
        }
      ],
      "name": "tokenOfOwnerByIndex",
      "outputs": [
        {
          "internalType": "uint256",
          "name": "",
          "type": "uint256"
        }
      ],
      "stateMutability": "view",
      "type": "function"
    },
    {
      "inputs": [
        {
          "internalType": "uint256",
          "name": "tokenId",
          "type": "uint256"
        }
      ],
      "name": "tokenURI",
      "outputs": [
        {
          "internalType": "string",
          "name": "",
          "type": "string"
        }
      ],
      "stateMutability": "view",
      "type": "function"
    },
    {
      "inputs": [],
      "name": "totalSupply",
      "outputs": [
        {
          "internalType": "uint256",
          "name": "",
          "type": "uint256"
        }
      ],
      "stateMutability": "view",
      "type": "function"
    },
    {
      "inputs": [
        {
          "internalType": "address",
          "name": "from",
          "type": "address"
        },
        {
          "internalType": "address",
          "name": "to",
          "type": "address"
        },
        {
          "internalType": "uint256",
          "name": "tokenId",
          "type": "uint256"
        }
      ],
      "name": "transferFrom",
      "outputs": [],
      "stateMutability": "nonpayable",
      "type": "function"
    },
    {
      "inputs": [
        {
          "internalType": "address",
          "name": "reseller",
          "type": "address"
        },
        {
          "internalType": "address",
          "name": "buyer",
          "type": "address"
        }
      ],
      "name": "deployTicket",
      "outputs": [
        {
          "internalType": "bool",
          "name": "",
          "type": "bool"
        }
      ],
      "stateMutability": "nonpayable",
      "type": "function"
    },
    {
      "inputs": [],
      "name": "getTicketPrice",
      "outputs": [
        {
          "internalType": "uint256",
          "name": "",
          "type": "uint256"
        }
      ],
      "stateMutability": "view",
      "type": "function"
    },
    {
      "inputs": [
        {
          "internalType": "uint256",
          "name": "ticketID",
          "type": "uint256"
        }
      ],
      "name": "getTicketState",
      "outputs": [
        {
          "internalType": "string",
          "name": "",
          "type": "string"
        }
      ],
      "stateMutability": "view",
      "type": "function"
    },
    {
      "inputs": [
        {
          "internalType": "address",
          "name": "customer",
          "type": "address"
        }
      ],
      "name": "getPurchasedTicketsOfCustomer",
      "outputs": [
        {
          "internalType": "uint256[]",
          "name": "",
          "type": "uint256[]"
        }
      ],
      "stateMutability": "view",
      "type": "function"
    },
    {
      "inputs": [
        {
          "internalType": "address",
          "name": "customer",
          "type": "address"
        },
        {
          "internalType": "uint256",
          "name": "ticketID",
          "type": "uint256"
        }
      ],
      "name": "setTTC",
      "outputs": [],
      "stateMutability": "nonpayable",
      "type": "function"
    },
    {
      "inputs": [
        {
          "internalType": "uint256",
          "name": "ticketID",
          "type": "uint256"
        }
      ],
      "name": "checkTicket",
      "outputs": [
        {
          "internalType": "bool",
          "name": "",
          "type": "bool"
        }
      ],
      "stateMutability": "nonpayable",
      "type": "function"
    },
    {
      "inputs": [],
      "name": "getRemainingTickets",
      "outputs": [
        {
          "internalType": "uint256",
          "name": "",
          "type": "uint256"
        }
      ],
      "stateMutability": "view",
      "type": "function"
    }
  ],
  "bytecode": "0x60806040523480156200001157600080fd5b5060405162002f8e38038062002f8e83398181016040526101008110156200003857600080fd5b8151602083018051604051929492938301929190846401000000008211156200006057600080fd5b9083019060208201858111156200007657600080fd5b82516401000000008111828201881017156200009157600080fd5b82525081516020918201929091019080838360005b83811015620000c0578181015183820152602001620000a6565b50505050905090810190601f168015620000ee5780820380516001836020036101000a031916815260200191505b50604052602001805160405193929190846401000000008211156200011257600080fd5b9083019060208201858111156200012857600080fd5b82516401000000008111828201881017156200014357600080fd5b82525081516020918201929091019080838360005b838110156200017257818101518382015260200162000158565b50505050905090810190601f168015620001a05780820380516001836020036101000a031916815260200191505b5060409081526020820151908201516060830151608084015160a09094015192955090935091908686620001e46301ffc9a760e01b6001600160e01b036200030716565b8151620001f9906007906020850190620004c8565b5080516200020f906008906020840190620004c8565b506200022b6380ac58cd60e01b6001600160e01b036200030716565b62000246635b5e139f60e01b6001600160e01b036200030716565b6200026163780e9d6360e01b6001600160e01b036200030716565b5050604080516a4d494e5445525f524f4c4560a81b8152905190819003600b0190206200029890836001600160e01b036200038f16565b604080516a4d494e5445525f524f4c4560a81b8152905190819003600b019020620002cd90826001600160e01b036200038f16565b50600c96909655600d92909255600e55600f555050601080546001600160a01b0319166001600160a01b039092169190911790556200056a565b6001600160e01b0319808216141562000367576040805162461bcd60e51b815260206004820152601c60248201527f4552433136353a20696e76616c696420696e7465726661636520696400000000604482015290519081900360640190fd5b6001600160e01b0319166000908152600160208190526040909120805460ff19169091179055565b620003a482826001600160e01b03620003a816565b5050565b600082815260208181526040909120620003cd91839062001ec16200042a821b17901c565b15620003a457620003e66001600160e01b036200045316565b6001600160a01b0316816001600160a01b0316837f2f8788117e7eff1d82e926ec794901d17c78024a50270940304540a733656f0d60405160405180910390a45050565b60006200044a836001600160a01b0384166001600160e01b036200045816565b90505b92915050565b335b90565b60006200046f83836001600160e01b03620004b016565b620004a7575081546001818101845560008481526020808220909301849055845484825282860190935260409020919091556200044d565b5060006200044d565b60009081526001919091016020526040902054151590565b828054600181600116156101000203166002900490600052602060002090601f016020900481019282601f106200050b57805160ff19168380011785556200053b565b828001600101855582156200053b579182015b828111156200053b5782518255916020019190600101906200051e565b50620005499291506200054d565b5090565b6200045591905b8082111562000549576000815560010162000554565b612a14806200057a6000396000f3fe608060405234801561001057600080fd5b50600436106102115760003560e01c806370a0823111610125578063a58b1571116100ad578063d53913931161007c578063d539139314610721578063d547741f14610729578063ddae619f14610755578063e985e9c514610772578063ff477464146107a057610211565b8063a58b1571146105f3578063b88d4fde14610621578063c87b56dd146106e7578063ca15c8731461070457610211565b80639010d07c116100f45780639010d07c1461056657806391d148541461058957806395d89b41146105b5578063a217fddf146105bd578063a22cb465146105c557610211565b806370a082311461050457806370cc89ad1461052a578063777565721461053257806387bb7ae01461055e57610211565b80632f2ff15d116101a857806346d260a11161017757806346d260a1146104885780634f6ccce7146104a55780636352211e146104c25780636482db3f146104df5780636c0360eb146104fc57610211565b80632f2ff15d146103ce5780632f745c59146103fa57806336568abe1461042657806342842e0e1461045257610211565b806318160ddd116101e457806318160ddd146103355780631c351b6a1461034f57806323b872dd1461037b578063248a9ca3146103b157610211565b806301ffc9a71461021657806306fdde0314610251578063081812fc146102ce578063095ea7b314610307575b600080fd5b61023d6004803603602081101561022c57600080fd5b50356001600160e01b031916610816565b604080519115158252519081900360200190f35b610259610839565b6040805160208082528351818301528351919283929083019185019080838360005b8381101561029357818101518382015260200161027b565b50505050905090810190601f1680156102c05780820380516001836020036101000a031916815260200191505b509250505060405180910390f35b6102eb600480360360208110156102e457600080fd5b50356108d0565b604080516001600160a01b039092168252519081900360200190f35b6103336004803603604081101561031d57600080fd5b506001600160a01b038135169060200135610932565b005b61033d610a0d565b60408051918252519081900360200190f35b6103336004803603604081101561036557600080fd5b506001600160a01b038135169060200135610a1e565b6103336004803603606081101561039157600080fd5b506001600160a01b03813581169160208101359091169060400135610c43565b61033d600480360360208110156103c757600080fd5b5035610c9a565b610333600480360360408110156103e457600080fd5b50803590602001356001600160a01b0316610caf565b61033d6004803603604081101561041057600080fd5b506001600160a01b038135169060200135610d1b565b6103336004803603604081101561043c57600080fd5b50803590602001356001600160a01b0316610d4c565b6103336004803603606081101561046857600080fd5b506001600160a01b03813581169160208101359091169060400135610dad565b61023d6004803603602081101561049e57600080fd5b5035610dc8565b61033d600480360360208110156104bb57600080fd5b5035610f13565b6102eb600480360360208110156104d857600080fd5b5035610f27565b610259600480360360208110156104f557600080fd5b5035610f55565b610259610ff6565b61033d6004803603602081101561051a57600080fd5b50356001600160a01b0316611057565b61033d6110bf565b61033d6004803603604081101561054857600080fd5b506001600160a01b0381351690602001356110d4565b61033d611102565b6102eb6004803603604081101561057c57600080fd5b5080359060200135611108565b61023d6004803603604081101561059f57600080fd5b50803590602001356001600160a01b0316611126565b610259611144565b61033d6111a5565b610333600480360360408110156105db57600080fd5b506001600160a01b03813516906020013515156111aa565b61023d6004803603604081101561060957600080fd5b506001600160a01b03813581169160200135166112af565b6103336004803603608081101561063757600080fd5b6001600160a01b0382358116926020810135909116916040820135919081019060808101606082013564010000000081111561067257600080fd5b82018360208201111561068457600080fd5b803590602001918460018302840111640100000000831117156106a657600080fd5b91908080601f016020809104026020016040519081016040528093929190818152602001838380828437600092019190915250929550611442945050505050565b610259600480360360208110156106fd57600080fd5b50356114a0565b61033d6004803603602081101561071a57600080fd5b5035611723565b61033d61173a565b6103336004803603604081101561073f57600080fd5b50803590602001356001600160a01b031661175d565b6102eb6004803603602081101561076b57600080fd5b50356117b6565b61023d6004803603604081101561078857600080fd5b506001600160a01b03813581169160200135166117d1565b6107c6600480360360208110156107b657600080fd5b50356001600160a01b03166117ff565b60408051602080825283518183015283519192839290830191858101910280838360005b838110156108025781810151838201526020016107ea565b505050509050019250505060405180910390f35b6001600160e01b0319811660009081526001602052604090205460ff165b919050565b60078054604080516020601f60026000196101006001881615020190951694909404938401819004810282018101909252828152606093909290918301828280156108c55780601f1061089a576101008083540402835291602001916108c5565b820191906000526020600020905b8154815290600101906020018083116108a857829003601f168201915b505050505090505b90565b60006108db8261186a565b6109165760405162461bcd60e51b815260040180806020018281038252602c81526020018061280d602c913960400191505060405180910390fd5b506000908152600560205260409020546001600160a01b031690565b600061093d82610f27565b9050806001600160a01b0316836001600160a01b031614156109905760405162461bcd60e51b81526004018080602001828103825260218152602001806128b46021913960400191505060405180910390fd5b806001600160a01b03166109a261187d565b6001600160a01b031614806109c357506109c3816109be61187d565b6117d1565b6109fe5760405162461bcd60e51b81526004018080602001828103825260388152602001806127606038913960400191505060405180910390fd5b610a088383611881565b505050565b6000610a1960036118ef565b905090565b60006060610a2b846117ff565b905082610a38600b6118f6565b1015610a755760405162461bcd60e51b81526004018080602001828103825260278152602001806129b86027913960400191505060405180910390fd5b6040805180820182526008815267636f6d707261746f60c01b60209182015260008581526011909152819020905181547f09c7cd8c5134be71ca18de10ed74fcce4f736ae490603e0658a045fe4fc28a2d92919081908390600260001961010060018416150201909116048015610b235780601f10610b01576101008083540402835291820191610b23565b820191906000526020600020905b815481529060010190602001808311610b0f575b5050915050604051809103902014610b6c5760405162461bcd60e51b81526004018080602001828103825260238152602001806128916023913960400191505060405180910390fd5b60005b8151811015610ba05783828281518110610b8557fe5b60200260200101511415610b9857600192505b600101610b6f565b5081610bdd5760405162461bcd60e51b815260040180806020018281038252602381526020018061270d6023913960400191505060405180910390fd5b600083815260136020908152604080832080546001600160a01b0319166001600160a01b03891617905580518082018252600981526872696669757461746f60b81b818401908152878552601190935292209151610c3c929190612565565b5050505050565b610c54610c4e61187d565b826118fa565b610c8f5760405162461bcd60e51b81526004018080602001828103825260318152602001806128fd6031913960400191505060405180910390fd5b610a0883838361199e565b60009081526020819052604090206002015490565b600082815260208190526040902060020154610cd290610ccd61187d565b611126565b610d0d5760405162461bcd60e51b815260040180806020018281038252602f815260200180612620602f913960400191505060405180910390fd5b610d178282611afc565b5050565b6001600160a01b0382166000908152600260205260408120610d43908363ffffffff611b6b16565b90505b92915050565b610d5461187d565b6001600160a01b0316816001600160a01b031614610da35760405162461bcd60e51b815260040180806020018281038252602f815260200180612989602f913960400191505060405180910390fd5b610d178282611b77565b610a0883838360405180602001604052806000815250611442565b6000818152601360209081526040808320546001600160a01b03168084526012909252822054610e295760405162461bcd60e51b81526004018080602001828103825260288152602001806128d56028913960400191505060405180910390fd5b6000805b6001600160a01b038316600090815260126020526040902054811015610e92576001600160a01b0383166000908152601260205260409020805486919083908110610e7457fe5b90600052602060002001541415610e8a57600191505b600101610e2d565b5080610ecf5760405162461bcd60e51b815260040180806020018281038252603c815260200180612681603c913960400191505060405180910390fd5b604080518082018252600981526861636365747461746f60b81b602080830191825260008881526011909152929092209051610f0b9290612565565b509392505050565b600080610f0b60038463ffffffff611be616565b6000610d46826040518060600160405280602981526020016127c2602991396003919063ffffffff611c0216565b60008181526011602090815260409182902080548351601f6002600019610100600186161502019093169290920491820184900484028101840190945280845260609392830182828015610fea5780601f10610fbf57610100808354040283529160200191610fea565b820191906000526020600020905b815481529060010190602001808311610fcd57829003601f168201915b50505050509050919050565b600a8054604080516020601f60026000196101006001881615020190951694909404938401819004810282018101909252828152606093909290918301828280156108c55780601f1061089a576101008083540402835291602001916108c5565b60006001600160a01b03821661109e5760405162461bcd60e51b815260040180806020018281038252602a815260200180612798602a913960400191505060405180910390fd5b6001600160a01b0382166000908152600260205260409020610d46906118ef565b60006110cb600b6118f6565b600e5403905090565b601260205281600052604060002081815481106110ed57fe5b90600052602060002001600091509150505481565b600d5490565b6000828152602081905260408120610d43908363ffffffff611b6b16565b6000828152602081905260408120610d43908363ffffffff611c1916565b60088054604080516020601f60026000196101006001881615020190951694909404938401819004810282018101909252828152606093909290918301828280156108c55780601f1061089a576101008083540402835291602001916108c5565b600081565b6111b261187d565b6001600160a01b0316826001600160a01b03161415611218576040805162461bcd60e51b815260206004820152601960248201527f4552433732313a20617070726f766520746f2063616c6c657200000000000000604482015290519081900360640190fd5b806006600061122561187d565b6001600160a01b03908116825260208083019390935260409182016000908120918716808252919093529120805460ff19169215159290921790915561126961187d565b60408051841515815290516001600160a01b0392909216917f17307eab39ab6107e8899845ad3d59bd9653f200f220920489ca2b5937696c319181900360200190a35050565b604080516a4d494e5445525f524f4c4560a81b8152905190819003600b0190206000906112de90610ccd61187d565b6113195760405162461bcd60e51b815260040180806020018281038252603881526020018061292e6038913960400191505060405180910390fd5b611323600b611c2e565b600061132f600b6118f6565b9050600e5461133e600b6118f6565b111561137b5760405162461bcd60e51b81526004018080602001828103825260238152602001806129666023913960400191505060405180910390fd5b6113858482611c37565b60408051608081018252600881830190815267636f6d707261746f60c01b606083015281526001600160a01b0385166020808301919091526000848152601182529290922081518051929391926113df9284920190612565565b50602091820151600191820180546001600160a01b0319166001600160a01b03928316179055851660009081526012835260408120805492830181558152919091200181905561143861143182610f27565b8483610c43565b5060019392505050565b61145361144d61187d565b836118fa565b61148e5760405162461bcd60e51b81526004018080602001828103825260318152602001806128fd6031913960400191505060405180910390fd5b61149a84848484611d71565b50505050565b60606114ab8261186a565b6114e65760405162461bcd60e51b815260040180806020018281038252602f815260200180612862602f913960400191505060405180910390fd5b60008281526009602090815260409182902080548351601f600260001961010060018616150201909316929092049182018490048402810184019094528084526060939283018282801561157b5780601f106115505761010080835404028352916020019161157b565b820191906000526020600020905b81548152906001019060200180831161155e57829003601f168201915b50505050509050606061158c610ff6565b90508051600014156115a057509050610834565b8151156116615780826040516020018083805190602001908083835b602083106115db5780518252601f1990920191602091820191016115bc565b51815160209384036101000a600019018019909216911617905285519190930192850191508083835b602083106116235780518252601f199092019160209182019101611604565b6001836020036101000a0380198251168184511680821785525050505050509050019250505060405160208183030381529060405292505050610834565b8061166b85611dc3565b6040516020018083805190602001908083835b6020831061169d5780518252601f19909201916020918201910161167e565b51815160209384036101000a600019018019909216911617905285519190930192850191508083835b602083106116e55780518252601f1990920191602091820191016116c6565b6001836020036101000a0380198251168184511680821785525050505050509050019250505060405160208183030381529060405292505050919050565b6000818152602081905260408120610d46906118ef565b604080516a4d494e5445525f524f4c4560a81b8152905190819003600b01902081565b60008281526020819052604090206002015461177b90610ccd61187d565b610da35760405162461bcd60e51b81526004018080602001828103825260308152602001806127306030913960400191505060405180910390fd5b6013602052600090815260409020546001600160a01b031681565b6001600160a01b03918216600090815260066020908152604080832093909416825291909152205460ff1690565b6001600160a01b038116600090815260126020908152604091829020805483518184028101840190945280845260609392830182828015610fea57602002820191906000526020600020905b81548152602001906001019080831161184b5750505050509050919050565b6000610d4660038363ffffffff611e8716565b3390565b600081815260056020526040902080546001600160a01b0319166001600160a01b03841690811790915581906118b682610f27565b6001600160a01b03167f8c5be1e5ebec7d5bd14f71427d1e84f3dd0314c0f7b2291e5b200ac8c7c3b92560405160405180910390a45050565b6000610d46825b5490565b60006119058261186a565b6119405760405162461bcd60e51b815260040180806020018281038252602c8152602001806126e1602c913960400191505060405180910390fd5b600061194b83610f27565b9050806001600160a01b0316846001600160a01b031614806119865750836001600160a01b031661197b846108d0565b6001600160a01b0316145b80611996575061199681856117d1565b949350505050565b826001600160a01b03166119b182610f27565b6001600160a01b0316146119f65760405162461bcd60e51b81526004018080602001828103825260298152602001806128396029913960400191505060405180910390fd5b6001600160a01b038216611a3b5760405162461bcd60e51b81526004018080602001828103825260248152602001806126bd6024913960400191505060405180910390fd5b611a46838383610a08565b611a51600082611881565b6001600160a01b0383166000908152600260205260409020611a79908263ffffffff611e9316565b506001600160a01b0382166000908152600260205260409020611aa2908263ffffffff611e9f16565b50611ab56003828463ffffffff611eab16565b5080826001600160a01b0316846001600160a01b03167fddf252ad1be2c89b69c2b068fc378daa952ba7f163c4a11628f55a4df523b3ef60405160405180910390a4505050565b6000828152602081905260409020611b1a908263ffffffff611ec116565b15610d1757611b2761187d565b6001600160a01b0316816001600160a01b0316837f2f8788117e7eff1d82e926ec794901d17c78024a50270940304540a733656f0d60405160405180910390a45050565b6000610d438383611ed6565b6000828152602081905260409020611b95908263ffffffff611f3a16565b15610d1757611ba261187d565b6001600160a01b0316816001600160a01b0316837ff6391f5c32d9c69d2a47ea670b442974b53935d1edc7fd64eb21e047a839171b60405160405180910390a45050565b6000808080611bf58686611f4f565b9097909650945050505050565b6000611c0f848484611fca565b90505b9392505050565b6000610d43836001600160a01b038416612094565b80546001019055565b6001600160a01b038216611c92576040805162461bcd60e51b815260206004820181905260248201527f4552433732313a206d696e7420746f20746865207a65726f2061646472657373604482015290519081900360640190fd5b611c9b8161186a565b15611ced576040805162461bcd60e51b815260206004820152601c60248201527f4552433732313a20746f6b656e20616c7265616479206d696e74656400000000604482015290519081900360640190fd5b611cf960008383610a08565b6001600160a01b0382166000908152600260205260409020611d21908263ffffffff611e9f16565b50611d346003828463ffffffff611eab16565b5060405181906001600160a01b038416906000907fddf252ad1be2c89b69c2b068fc378daa952ba7f163c4a11628f55a4df523b3ef908290a45050565b611d7c84848461199e565b611d88848484846120ac565b61149a5760405162461bcd60e51b815260040180806020018281038252603281526020018061264f6032913960400191505060405180910390fd5b606081611de857506040805180820190915260018152600360fc1b6020820152610834565b8160005b8115611e0057600101600a82049150611dec565b6060816040519080825280601f01601f191660200182016040528015611e2d576020820181803883390190505b50859350905060001982015b8315611e7e57600a840660300160f81b82828060019003935081518110611e5c57fe5b60200101906001600160f81b031916908160001a905350600a84049350611e39565b50949350505050565b6000610d438383612094565b6000610d43838361222c565b6000610d4383836122f2565b6000611c0f84846001600160a01b03851661233c565b6000610d43836001600160a01b0384166122f2565b81546000908210611f185760405162461bcd60e51b81526004018080602001828103825260228152602001806125fe6022913960400191505060405180910390fd5b826000018281548110611f2757fe5b9060005260206000200154905092915050565b6000610d43836001600160a01b03841661222c565b815460009081908310611f935760405162461bcd60e51b81526004018080602001828103825260228152602001806127eb6022913960400191505060405180910390fd5b6000846000018481548110611fa457fe5b906000526020600020906002020190508060000154816001015492509250509250929050565b600082815260018401602052604081205482816120655760405162461bcd60e51b81526004018080602001828103825283818151815260200191508051906020019080838360005b8381101561202a578181015183820152602001612012565b50505050905090810190601f1680156120575780820380516001836020036101000a031916815260200191505b509250505060405180910390fd5b5084600001600182038154811061207857fe5b9060005260206000209060020201600101549150509392505050565b60009081526001919091016020526040902054151590565b60006120c0846001600160a01b03166123d3565b6120cc57506001611996565b60606121f2630a85bd0160e11b6120e161187d565b88878760405160240180856001600160a01b03166001600160a01b03168152602001846001600160a01b03166001600160a01b0316815260200183815260200180602001828103825283818151815260200191508051906020019080838360005b8381101561215a578181015183820152602001612142565b50505050905090810190601f1680156121875780820380516001836020036101000a031916815260200191505b5095505050505050604051602081830303815290604052906001600160e01b0319166020820180516001600160e01b03838183161783525050505060405180606001604052806032815260200161264f603291396001600160a01b038816919063ffffffff6123d916565b9050600081806020019051602081101561220b57600080fd5b50516001600160e01b031916630a85bd0160e11b1492505050949350505050565b600081815260018301602052604081205480156122e8578354600019808301919081019060009087908390811061225f57fe5b906000526020600020015490508087600001848154811061227c57fe5b6000918252602080832090910192909255828152600189810190925260409020908401905586548790806122ac57fe5b60019003818190600052602060002001600090559055866001016000878152602001908152602001600020600090556001945050505050610d46565b6000915050610d46565b60006122fe8383612094565b61233457508154600181810184556000848152602080822090930184905584548482528286019093526040902091909155610d46565b506000610d46565b6000828152600184016020526040812054806123a1575050604080518082018252838152602080820184815286546001818101895560008981528481209551600290930290950191825591519082015586548684528188019092529290912055611c12565b828560000160018303815481106123b457fe5b9060005260206000209060020201600101819055506000915050611c12565b3b151590565b6060611c0f8484600085856123ed856123d3565b61243e576040805162461bcd60e51b815260206004820152601d60248201527f416464726573733a2063616c6c20746f206e6f6e2d636f6e7472616374000000604482015290519081900360640190fd5b60006060866001600160a01b031685876040518082805190602001908083835b6020831061247d5780518252601f19909201916020918201910161245e565b6001836020036101000a03801982511681845116808217855250505050505090500191505060006040518083038185875af1925050503d80600081146124df576040519150601f19603f3d011682016040523d82523d6000602084013e6124e4565b606091505b50915091506124f48282866124ff565b979650505050505050565b6060831561250e575081611c12565b82511561251e5782518084602001fd5b60405162461bcd60e51b815260206004820181815284516024840152845185939192839260440191908501908083836000831561202a578181015183820152602001612012565b828054600181600116156101000203166002900490600052602060002090601f016020900481019282601f106125a657805160ff19168380011785556125d3565b828001600101855582156125d3579182015b828111156125d35782518255916020019190600101906125b8565b506125df9291506125e3565b5090565b6108cd91905b808211156125df57600081556001016125e956fe456e756d657261626c655365743a20696e646578206f7574206f6620626f756e6473416363657373436f6e74726f6c3a2073656e646572206d75737420626520616e2061646d696e20746f206772616e744552433732313a207472616e7366657220746f206e6f6e20455243373231526563656976657220696d706c656d656e746572496c206269676c696574746f206573696269746f20652720737461746f206163717569737461746f20646120756e20616c74726f20636c69656e74654552433732313a207472616e7366657220746f20746865207a65726f20616464726573734552433732313a206f70657261746f7220717565727920666f72206e6f6e6578697374656e7420746f6b656e4e6f6e20686169206163717569737461746f2071756573746f206269676c696574746f416363657373436f6e74726f6c3a2073656e646572206d75737420626520616e2061646d696e20746f207265766f6b654552433732313a20617070726f76652063616c6c6572206973206e6f74206f776e6572206e6f7220617070726f76656420666f7220616c6c4552433732313a2062616c616e636520717565727920666f7220746865207a65726f20616464726573734552433732313a206f776e657220717565727920666f72206e6f6e6578697374656e7420746f6b656e456e756d657261626c654d61703a20696e646578206f7574206f6620626f756e64734552433732313a20617070726f76656420717565727920666f72206e6f6e6578697374656e7420746f6b656e4552433732313a207472616e73666572206f6620746f6b656e2074686174206973206e6f74206f776e4552433732314d657461646174613a2055524920717565727920666f72206e6f6e6578697374656e7420746f6b656e496c206269676c69696574746f20652720737461746f2067696127206573696269746f4552433732313a20617070726f76616c20746f2063757272656e74206f776e6572496c20637573746f6d6572206e6f6e206861206163717569737461746f206269676c69657474692e4552433732313a207472616e736665722063616c6c6572206973206e6f74206f776e6572206e6f7220617070726f7665644c277574656e7465206465766520617665726520696c2072756f6c6f206469206d696e7465722070657220706f746572206d696e61726521537570657261746f206c696d697465206d617373696d6f20646569205469636b657421416363657373436f6e74726f6c3a2063616e206f6e6c792072656e6f756e636520726f6c657320666f722073656c66496c206269676c696574746f206e6f6e206520737461746f20616e636f72612076656e6475746fa26469706673582212209f59a3c43f5ed86f9c273458d6e3a6da7e7459b2d8c471e8435851c2e77a2b9a64736f6c63430006020033",
  "source": "// SPDX-License-Identifier: MIT\npragma solidity >=0.4.22 <0.9.0;\n\nimport \"@openzeppelin/contracts/utils/Context.sol\";\nimport \"@openzeppelin/contracts/access/AccessControl.sol\";\nimport \"@openzeppelin/contracts/token/ERC721/ERC721.sol\";\nimport \"@openzeppelin/contracts/utils/Counters.sol\";\n\ncontract Event is Context, AccessControl, ERC721 {\n    using Counters for Counters.Counter;\n\n    bytes32 public constant MINTER_ROLE = keccak256(\"MINTER_ROLE\");\n\n    struct TicketDetails {\n        string state;\n        address buyer; \n    }\n    struct TicketToCheck {\n        uint256 ticketID;\n        address exposer; \n    }\n\n    // counter dei tickets \n    Counters.Counter private _ticketIds;\n    \n    uint private _eventID;                                    // id dell'evento\n    uint256 private _ticketPrice;                             // prezzo\n    uint256 private _totalSupply;                             // biglietti rimanenti\n    uint256 private _eventDate;                               // data del evento\n    address private _organizer;                               // organizzatore\n    // address[] private _soldTicketsList;                        // address biglietti acquistati\n    \n    mapping(uint256 => TicketDetails) private _ticketDetails; // dettagli dei biglietti\n    mapping(address => uint256[]) public _purchasedTickets;  // biglietti acquistati\n\n    // biglietti esibiti da verificare\n    mapping(uint256 => address) public _ticketsToCheck;  // biglietti da verificare\n\n    //TODO: da valutare se serve...\n    //uint256[] private soldTickets;    //lista biglietti venduti\n    address[] private _customers;      //clienti\n\n    constructor(\n        uint eventID,\n        string memory eventName,    // nome dell'evento\n        string memory eventSymbol,  // simbolo dell'evento\n        uint256 ticketPrice,        // prezzo di un biglietto\n        uint256 totalSupply,        // biglietti disponibili alla creazione\n        uint256 eventDate,          // data del evento\n        address organizer,            // indirizzo del rivenditore\n        address reseller\n    ) public ERC721(eventName, eventSymbol) {\n\n      _setupRole(MINTER_ROLE, organizer);\n      _setupRole(MINTER_ROLE, reseller);\n\n      _eventID = eventID;\n      _ticketPrice = ticketPrice;\n      _totalSupply = totalSupply;\n      _eventDate = eventDate;\n      _organizer = organizer;\n    }\n\n    modifier isValidTicketCount {\n      require(\n          _ticketIds.current() < _totalSupply,\n          \"Superato limite massimo dei Ticket!\"\n      );\n      _;\n    }\n\n    modifier isMinterRole {\n      require(\n          hasRole(MINTER_ROLE, _msgSender()),\n          \"L'utente deve avere il ruolo di minter per poter minare!\"\n      );\n      _;\n    }\n\n    /*\n     * Mint new tickets and assign it to reseller\n     * Access controlled by minter only\n     * Returns new ticketId\n     */\n    function deployTicket(address reseller, address buyer) public virtual isMinterRole returns (bool) {\n        _ticketIds.increment();\n        uint256 newTicketId = _ticketIds.current();\n\n        require(\n          _ticketIds.current() <= _totalSupply,\n          \"Superato limite massimo dei Ticket!\"\n        );\n        _mint(reseller, newTicketId);\n\n    \n        // definizioni per i ticket \n        // @state -> definisce lo stato attuale del ticket \n        //           - buyed: appena acquistato \n        //           - pending: check-in\n        //           - accepted: biglietto verificato dal controllore\n        //           - denied: biglietto regettato dal controllore\n        _ticketDetails[newTicketId] = TicketDetails({\n            state: \"comprato\",\n            buyer: buyer\n        });\n\n        _purchasedTickets[buyer].push(newTicketId);\n\n        // trasferisce la propriet del ticket dal reseller al cliente\n        transferFrom(ownerOf(newTicketId), buyer, newTicketId);\n\n        // aggiungo cliente alla lista dei customers se non  gi stato fatto\n        /*if (!isCustomerExist(buyer)) {\n            customers.push(buyer);\n        }*/\n\n        return true;\n    }\n\n    // Utility function to check if customer exists to avoid redundancy\n    /*function isCustomerExist(address buyer) internal view returns (bool) {\n        for (uint256 i = 0; i < customers.length; i++) {\n            if (customers[i] == buyer) {\n                return true;\n            }\n        }\n        return false;\n    }*/\n\n    // TODO: funzioni utility da controllare!\n    // Get ticket actual price\n    function getTicketPrice() public view returns (uint256) {\n        return _ticketPrice;\n    }\n\n    // // Get current ticketId\n    // function ticketCounts() public view returns (uint256) {\n    //     return _ticketIds.current();\n    // }\n\n    // // Get selling price for the ticket\n    // function getSellingPrice(uint256 ticketId) public view returns (uint256) {\n    //     return _ticketDetails[ticketId].sellingPrice;\n    // }\n\n    // // Get all tickets available for sale\n    // function getTicketsForSale() public view returns (uint256[] memory) {\n    //     return ticketsForSale;\n    // }\n\n    // Get ticket state from tickerID\n    function getTicketState(uint256 ticketID) public view returns (string memory) {\n        return _ticketDetails[ticketID].state;\n    }\n  \n         // Get76omer\n    function getPurchasedTicketsOfCustomer(address customer) public view returns (uint256[] memory) {\n        return _purchasedTickets[customer];\n    }\n\n\n\n    // Inserisce il biglietto nella list dei biglietti da obliterare\n    function setTTC(address customer, uint256 ticketID) public {\n        bool isBuyer = false;\n        uint256[] memory customerTickets = getPurchasedTicketsOfCustomer(customer);\n        \n\n        require(_ticketIds.current() >= ticketID, 'Il biglietto non e stato ancora venduto');\n\n        require(keccak256(bytes( _ticketDetails[ticketID].state)) == keccak256(bytes('comprato')), \"Il bigliietto e' stato gia' esibito\");\n        \n        for (uint256 i = 0; i < customerTickets.length; i++) {\n            if (customerTickets[i] == ticketID) {\n                isBuyer = true;\n            }\n        }\n        require(isBuyer, 'Non hai acquistato questo biglietto');\n\n\n        _ticketsToCheck[ticketID] = customer;\n        _ticketDetails[ticketID].state = 'rifiutato';  //il bilgietto inizialmente  rifiutato\n    }\n\n    // Customer shows ticket to the controller\n    function checkTicket(uint256 ticketID) public returns (bool) { \n\n        address exposer = _ticketsToCheck[ticketID];\n\n        require(_purchasedTickets[exposer].length != 0, \"Il customer non ha acquistato biglietti.\");\n\n        bool isBuyer = false;\n        \n\n        for (uint256 i = 0; i < _purchasedTickets[exposer].length; i++) {\n            if (_purchasedTickets[exposer][i] == ticketID) {\n                isBuyer = true;\n            }\n        }\n        require(isBuyer, \"Il biglietto esibito e' stato acquistato da un altro cliente\");\n\n        _ticketDetails[ticketID].state = 'accettato';\n\n\n        return isBuyer;\n    }\n\n    function getRemainingTickets() public view returns (uint){\n        return _totalSupply - _ticketIds.current();\n    }\n    \n}",
  "sourcePath": "/Users/edoardoconti/temp-wizard-ibft/network/truffle/contracts/Event.sol",
  "compiler": {
    "name": "solc",
    "version": "0.6.2+commit.bacdbe57.Emscripten.clang"
  },
  "schemaVersion": "3.3.3",
  "updatedAt": "2021-10-21T10:39:08.505Z",
  "devdoc": {
    "methods": {
      "approve(address,uint256)": {
        "details": "See {IERC721-approve}."
      },
      "balanceOf(address)": {
        "details": "See {IERC721-balanceOf}."
      },
      "baseURI()": {
        "details": "Returns the base URI set via {_setBaseURI}. This will be automatically added as a prefix in {tokenURI} to each token's URI, or to the token ID if no specific URI is set for that token ID."
      },
      "getApproved(uint256)": {
        "details": "See {IERC721-getApproved}."
      },
      "getRoleAdmin(bytes32)": {
        "details": "Returns the admin role that controls `role`. See {grantRole} and {revokeRole}.     * To change a role's admin, use {_setRoleAdmin}."
      },
      "getRoleMember(bytes32,uint256)": {
        "details": "Returns one of the accounts that have `role`. `index` must be a value between 0 and {getRoleMemberCount}, non-inclusive.     * Role bearers are not sorted in any particular way, and their ordering may change at any point.     * WARNING: When using {getRoleMember} and {getRoleMemberCount}, make sure you perform all queries on the same block. See the following https://forum.openzeppelin.com/t/iterating-over-elements-on-enumerableset-in-openzeppelin-contracts/2296[forum post] for more information."
      },
      "getRoleMemberCount(bytes32)": {
        "details": "Returns the number of accounts that have `role`. Can be used together with {getRoleMember} to enumerate all bearers of a role."
      },
      "grantRole(bytes32,address)": {
        "details": "Grants `role` to `account`.     * If `account` had not been already granted `role`, emits a {RoleGranted} event.     * Requirements:     * - the caller must have ``role``'s admin role."
      },
      "hasRole(bytes32,address)": {
        "details": "Returns `true` if `account` has been granted `role`."
      },
      "isApprovedForAll(address,address)": {
        "details": "See {IERC721-isApprovedForAll}."
      },
      "name()": {
        "details": "See {IERC721Metadata-name}."
      },
      "ownerOf(uint256)": {
        "details": "See {IERC721-ownerOf}."
      },
      "renounceRole(bytes32,address)": {
        "details": "Revokes `role` from the calling account.     * Roles are often managed via {grantRole} and {revokeRole}: this function's purpose is to provide a mechanism for accounts to lose their privileges if they are compromised (such as when a trusted device is misplaced).     * If the calling account had been granted `role`, emits a {RoleRevoked} event.     * Requirements:     * - the caller must be `account`."
      },
      "revokeRole(bytes32,address)": {
        "details": "Revokes `role` from `account`.     * If `account` had been granted `role`, emits a {RoleRevoked} event.     * Requirements:     * - the caller must have ``role``'s admin role."
      },
      "safeTransferFrom(address,address,uint256)": {
        "details": "See {IERC721-safeTransferFrom}."
      },
      "safeTransferFrom(address,address,uint256,bytes)": {
        "details": "See {IERC721-safeTransferFrom}."
      },
      "setApprovalForAll(address,bool)": {
        "details": "See {IERC721-setApprovalForAll}."
      },
      "supportsInterface(bytes4)": {
        "details": "See {IERC165-supportsInterface}.     * Time complexity O(1), guaranteed to always use less than 30 000 gas."
      },
      "symbol()": {
        "details": "See {IERC721Metadata-symbol}."
      },
      "tokenByIndex(uint256)": {
        "details": "See {IERC721Enumerable-tokenByIndex}."
      },
      "tokenOfOwnerByIndex(address,uint256)": {
        "details": "See {IERC721Enumerable-tokenOfOwnerByIndex}."
      },
      "tokenURI(uint256)": {
        "details": "See {IERC721Metadata-tokenURI}."
      },
      "totalSupply()": {
        "details": "See {IERC721Enumerable-totalSupply}."
      },
      "transferFrom(address,address,uint256)": {
        "details": "See {IERC721-transferFrom}."
      }
    }
  },
  "userdoc": {
    "methods": {}
  }
}