{
  "contractName": "Reseller",
  "abi": [
    {
      "inputs": [
        {
          "internalType": "address",
          "name": "organizer",
          "type": "address"
        }
      ],
      "stateMutability": "nonpayable",
      "type": "constructor"
    },
    {
      "inputs": [
        {
          "internalType": "address",
          "name": "evento",
          "type": "address"
        }
      ],
      "name": "purchaseTicket",
      "outputs": [],
      "stateMutability": "payable",
      "type": "function"
    },
    {
      "inputs": [
        {
          "internalType": "address",
          "name": "eventAddr",
          "type": "address"
        },
        {
          "internalType": "address",
          "name": "customer",
          "type": "address"
        },
        {
          "internalType": "uint256",
          "name": "ticketID",
          "type": "uint256"
        }
      ],
      "name": "checkIN",
      "outputs": [
        {
          "internalType": "bool",
          "name": "",
          "type": "bool"
        }
      ],
      "stateMutability": "nonpayable",
      "type": "function"
    }
  ],
  "bytecode": "0x608060405234801561001057600080fd5b506040516102e63803806102e68339818101604052602081101561003357600080fd5b5051600080546001600160a01b039092166001600160a01b031992831617905560018054909116301790556102798061006d6000396000f3fe6080604052600436106100295760003560e01c80631a1d9e391461002e578063a7157e9114610085575b600080fd5b34801561003a57600080fd5b506100716004803603606081101561005157600080fd5b506001600160a01b038135811691602081013590911690604001356100ad565b604080519115158252519081900360200190f35b6100ab6004803603602081101561009b57600080fd5b50356001600160a01b0316610121565b005b60408051630e1a8db560e11b81526001600160a01b038481166004830152602482018490529151600092861691631c351b6a916044808301928692919082900301818387803b1580156100ff57600080fd5b505af1158015610113573d6000803e3d6000fd5b506001979650505050505050565b60008054604051339234926064600a85020492838503926001600160a01b03909216916108fc841502918491818181858888f1935050505015801561016a573d6000803e3d6000fd5b506001546040805163a58b157160e01b81526001600160a01b0392831660048201528683166024820152905160009288169163a58b157191604480830192602092919082900301818787803b1580156101c257600080fd5b505af11580156101d6573d6000803e3d6000fd5b505050506040513d60208110156101ec57600080fd5b505190508061023b576040805162461bcd60e51b81526020600482015260166024820152752232b83637bc903a34b1b5b2ba103330b63634ba379760511b604482015290519081900360640190fd5b50505050505056fea2646970667358221220f0aff2c4dc5271f41734b29d225560275a60c536aa404c09c40b3c1898f131a264736f6c63430006020033",
  "source": "// SPDX-License-Identifier: MIT\npragma solidity >=0.4.22 <0.9.0;\n\nimport \"./Event.sol\";\n\ncontract Reseller {\n    address private _organizer;             // organiser address (account)\n    address private _reseller;              // ticket office address\n\n    //mapping(address => uint) public _balance;\n    //event Received(address, uint);\n\n    //constructor(EventFactory eventFactory) public {\n    constructor(address organizer) public {\n         \n        // set the address of the ticket office's smart contract \n        // in ordeer to get commissions after a sale\n        _organizer = organizer;\n        _reseller = address(this);  \n    }\n\n    /*\n     * Purchase tickets from the ticket office directly\n     * @ticketID -> ID ticket da acquistare\n     */\n    function purchaseTicket(address evento) external payable {\n        address buyer = msg.sender;                         // buyer account\n        uint256 sentValue = msg.value;\n        // uint256 ticketPrice = Event(evento).getTicketPrice();\n        // require(sentValue == );\n\n        // calc the commissions (10%)\n        uint256 commissions = (sentValue * 10) / 100;\n        uint256 finalPrice = sentValue - commissions;\n\n        // send ETH from buyer to the organiser\n        //(bool sent_org, bytes memory data_org) = payable(_organiser).call{value: finalPrice}(\"\");\n        //(bool sent_org, ) = payable(_organizer).call{value: finalPrice}(\"\");\n        //require(sent_org, \"Invio ETH all'Organizzatore fallito.\");\n\n        // TO-DO: send ETH from buyer to the ticket office\n        // require(sent_to, \"Invio ETH alla Biglietteria fallito.\");\n        //_balance[_reseller] += commissions;\n        //address(this).balance += commissions;\n        // emit Received(msg.sender, commissions);\n        payable(_organizer).transfer(finalPrice);\n\n        // transfer ticket to the new owner (= buyer)\n        bool ticketTransfered = Event(evento).deployTicket(_reseller, buyer);\n        require(ticketTransfered, \"Deploy ticket fallito.\");\n    }\n\n    // Customer shows ticket to the controller\n    function checkIN(address eventAddr, address customer, uint256 ticketID) public returns (bool) { \n        Event(eventAddr).setTTC(customer, ticketID);\n        return true;\n    } \n\n\n    // function getTicketsOfCustomer(address customer, address[] memory eventList) public returns (uint256[] memory){\n    //     uint256[] storage tickets;\n\n    //     for (uint i_evnt = 0; i_evnt < eventList.length; i_evnt++) {\n    //         for (uint i_tck = 0; i_tck < eventList.length; i_tck++) {\n    //             tickets.push(Event(eventList[i_evnt]).getPurchasedTicketsOfCustomer(customer)[i_tck]);\n    //         }  \n    //     }\n\n        /*for (uint index = 0; index < eventList.length; index++) {\n            \n            tickets.push(Event(eventList[index]).getPurchasedTicketsOfCustomer(customer));\n\n        }*/\n        \n        // return tickets;\n\n        // return Event(eventList[0]).getPurchasedTicketsOfCustomer(customer);\n\n}",
  "sourcePath": "/Users/lorenzofederici/Univpm/1-anno/SC/ticketing-system/truffle/contracts/Reseller.sol",
  "compiler": {
    "name": "solc",
    "version": "0.6.2+commit.bacdbe57.Emscripten.clang"
  },
  "schemaVersion": "3.3.3",
  "updatedAt": "2021-10-21T15:15:01.224Z",
  "devdoc": {
    "methods": {}
  },
  "userdoc": {
    "methods": {}
  }
}