{
  "contractName": "Event",
  "abi": [
    {
      "inputs": [
        {
          "internalType": "uint256",
          "name": "eventID",
          "type": "uint256"
        },
        {
          "internalType": "string",
          "name": "eventName",
          "type": "string"
        },
        {
          "internalType": "string",
          "name": "eventSymbol",
          "type": "string"
        },
        {
          "internalType": "uint256",
          "name": "ticketPrice",
          "type": "uint256"
        },
        {
          "internalType": "uint256",
          "name": "totalSupply",
          "type": "uint256"
        },
        {
          "internalType": "uint256",
          "name": "eventDate",
          "type": "uint256"
        },
        {
          "internalType": "address",
          "name": "organizer",
          "type": "address"
        },
        {
          "internalType": "address",
          "name": "reseller",
          "type": "address"
        }
      ],
      "stateMutability": "nonpayable",
      "type": "constructor"
    },
    {
      "anonymous": false,
      "inputs": [
        {
          "indexed": true,
          "internalType": "address",
          "name": "owner",
          "type": "address"
        },
        {
          "indexed": true,
          "internalType": "address",
          "name": "approved",
          "type": "address"
        },
        {
          "indexed": true,
          "internalType": "uint256",
          "name": "tokenId",
          "type": "uint256"
        }
      ],
      "name": "Approval",
      "type": "event"
    },
    {
      "anonymous": false,
      "inputs": [
        {
          "indexed": true,
          "internalType": "address",
          "name": "owner",
          "type": "address"
        },
        {
          "indexed": true,
          "internalType": "address",
          "name": "operator",
          "type": "address"
        },
        {
          "indexed": false,
          "internalType": "bool",
          "name": "approved",
          "type": "bool"
        }
      ],
      "name": "ApprovalForAll",
      "type": "event"
    },
    {
      "anonymous": false,
      "inputs": [
        {
          "indexed": true,
          "internalType": "bytes32",
          "name": "role",
          "type": "bytes32"
        },
        {
          "indexed": true,
          "internalType": "bytes32",
          "name": "previousAdminRole",
          "type": "bytes32"
        },
        {
          "indexed": true,
          "internalType": "bytes32",
          "name": "newAdminRole",
          "type": "bytes32"
        }
      ],
      "name": "RoleAdminChanged",
      "type": "event"
    },
    {
      "anonymous": false,
      "inputs": [
        {
          "indexed": true,
          "internalType": "bytes32",
          "name": "role",
          "type": "bytes32"
        },
        {
          "indexed": true,
          "internalType": "address",
          "name": "account",
          "type": "address"
        },
        {
          "indexed": true,
          "internalType": "address",
          "name": "sender",
          "type": "address"
        }
      ],
      "name": "RoleGranted",
      "type": "event"
    },
    {
      "anonymous": false,
      "inputs": [
        {
          "indexed": true,
          "internalType": "bytes32",
          "name": "role",
          "type": "bytes32"
        },
        {
          "indexed": true,
          "internalType": "address",
          "name": "account",
          "type": "address"
        },
        {
          "indexed": true,
          "internalType": "address",
          "name": "sender",
          "type": "address"
        }
      ],
      "name": "RoleRevoked",
      "type": "event"
    },
    {
      "anonymous": false,
      "inputs": [
        {
          "indexed": true,
          "internalType": "address",
          "name": "from",
          "type": "address"
        },
        {
          "indexed": true,
          "internalType": "address",
          "name": "to",
          "type": "address"
        },
        {
          "indexed": true,
          "internalType": "uint256",
          "name": "tokenId",
          "type": "uint256"
        }
      ],
      "name": "Transfer",
      "type": "event"
    },
    {
      "inputs": [],
      "name": "DEFAULT_ADMIN_ROLE",
      "outputs": [
        {
          "internalType": "bytes32",
          "name": "",
          "type": "bytes32"
        }
      ],
      "stateMutability": "view",
      "type": "function"
    },
    {
      "inputs": [],
      "name": "MINTER_ROLE",
      "outputs": [
        {
          "internalType": "bytes32",
          "name": "",
          "type": "bytes32"
        }
      ],
      "stateMutability": "view",
      "type": "function"
    },
    {
      "inputs": [
        {
          "internalType": "address",
          "name": "",
          "type": "address"
        },
        {
          "internalType": "uint256",
          "name": "",
          "type": "uint256"
        }
      ],
      "name": "_purchasedTicketsMapping",
      "outputs": [
        {
          "internalType": "uint256",
          "name": "",
          "type": "uint256"
        }
      ],
      "stateMutability": "view",
      "type": "function"
    },
    {
      "inputs": [
        {
          "internalType": "uint256",
          "name": "",
          "type": "uint256"
        }
      ],
      "name": "_ticketsToCheckAddresses",
      "outputs": [
        {
          "internalType": "address",
          "name": "",
          "type": "address"
        }
      ],
      "stateMutability": "view",
      "type": "function"
    },
    {
      "inputs": [
        {
          "internalType": "address",
          "name": "to",
          "type": "address"
        },
        {
          "internalType": "uint256",
          "name": "tokenId",
          "type": "uint256"
        }
      ],
      "name": "approve",
      "outputs": [],
      "stateMutability": "nonpayable",
      "type": "function"
    },
    {
      "inputs": [
        {
          "internalType": "address",
          "name": "owner",
          "type": "address"
        }
      ],
      "name": "balanceOf",
      "outputs": [
        {
          "internalType": "uint256",
          "name": "",
          "type": "uint256"
        }
      ],
      "stateMutability": "view",
      "type": "function"
    },
    {
      "inputs": [],
      "name": "baseURI",
      "outputs": [
        {
          "internalType": "string",
          "name": "",
          "type": "string"
        }
      ],
      "stateMutability": "view",
      "type": "function"
    },
    {
      "inputs": [
        {
          "internalType": "uint256",
          "name": "tokenId",
          "type": "uint256"
        }
      ],
      "name": "getApproved",
      "outputs": [
        {
          "internalType": "address",
          "name": "",
          "type": "address"
        }
      ],
      "stateMutability": "view",
      "type": "function"
    },
    {
      "inputs": [
        {
          "internalType": "bytes32",
          "name": "role",
          "type": "bytes32"
        }
      ],
      "name": "getRoleAdmin",
      "outputs": [
        {
          "internalType": "bytes32",
          "name": "",
          "type": "bytes32"
        }
      ],
      "stateMutability": "view",
      "type": "function"
    },
    {
      "inputs": [
        {
          "internalType": "bytes32",
          "name": "role",
          "type": "bytes32"
        },
        {
          "internalType": "uint256",
          "name": "index",
          "type": "uint256"
        }
      ],
      "name": "getRoleMember",
      "outputs": [
        {
          "internalType": "address",
          "name": "",
          "type": "address"
        }
      ],
      "stateMutability": "view",
      "type": "function"
    },
    {
      "inputs": [
        {
          "internalType": "bytes32",
          "name": "role",
          "type": "bytes32"
        }
      ],
      "name": "getRoleMemberCount",
      "outputs": [
        {
          "internalType": "uint256",
          "name": "",
          "type": "uint256"
        }
      ],
      "stateMutability": "view",
      "type": "function"
    },
    {
      "inputs": [
        {
          "internalType": "bytes32",
          "name": "role",
          "type": "bytes32"
        },
        {
          "internalType": "address",
          "name": "account",
          "type": "address"
        }
      ],
      "name": "grantRole",
      "outputs": [],
      "stateMutability": "nonpayable",
      "type": "function"
    },
    {
      "inputs": [
        {
          "internalType": "bytes32",
          "name": "role",
          "type": "bytes32"
        },
        {
          "internalType": "address",
          "name": "account",
          "type": "address"
        }
      ],
      "name": "hasRole",
      "outputs": [
        {
          "internalType": "bool",
          "name": "",
          "type": "bool"
        }
      ],
      "stateMutability": "view",
      "type": "function"
    },
    {
      "inputs": [
        {
          "internalType": "address",
          "name": "owner",
          "type": "address"
        },
        {
          "internalType": "address",
          "name": "operator",
          "type": "address"
        }
      ],
      "name": "isApprovedForAll",
      "outputs": [
        {
          "internalType": "bool",
          "name": "",
          "type": "bool"
        }
      ],
      "stateMutability": "view",
      "type": "function"
    },
    {
      "inputs": [],
      "name": "name",
      "outputs": [
        {
          "internalType": "string",
          "name": "",
          "type": "string"
        }
      ],
      "stateMutability": "view",
      "type": "function"
    },
    {
      "inputs": [
        {
          "internalType": "uint256",
          "name": "tokenId",
          "type": "uint256"
        }
      ],
      "name": "ownerOf",
      "outputs": [
        {
          "internalType": "address",
          "name": "",
          "type": "address"
        }
      ],
      "stateMutability": "view",
      "type": "function"
    },
    {
      "inputs": [
        {
          "internalType": "bytes32",
          "name": "role",
          "type": "bytes32"
        },
        {
          "internalType": "address",
          "name": "account",
          "type": "address"
        }
      ],
      "name": "renounceRole",
      "outputs": [],
      "stateMutability": "nonpayable",
      "type": "function"
    },
    {
      "inputs": [
        {
          "internalType": "bytes32",
          "name": "role",
          "type": "bytes32"
        },
        {
          "internalType": "address",
          "name": "account",
          "type": "address"
        }
      ],
      "name": "revokeRole",
      "outputs": [],
      "stateMutability": "nonpayable",
      "type": "function"
    },
    {
      "inputs": [
        {
          "internalType": "address",
          "name": "from",
          "type": "address"
        },
        {
          "internalType": "address",
          "name": "to",
          "type": "address"
        },
        {
          "internalType": "uint256",
          "name": "tokenId",
          "type": "uint256"
        }
      ],
      "name": "safeTransferFrom",
      "outputs": [],
      "stateMutability": "nonpayable",
      "type": "function"
    },
    {
      "inputs": [
        {
          "internalType": "address",
          "name": "from",
          "type": "address"
        },
        {
          "internalType": "address",
          "name": "to",
          "type": "address"
        },
        {
          "internalType": "uint256",
          "name": "tokenId",
          "type": "uint256"
        },
        {
          "internalType": "bytes",
          "name": "_data",
          "type": "bytes"
        }
      ],
      "name": "safeTransferFrom",
      "outputs": [],
      "stateMutability": "nonpayable",
      "type": "function"
    },
    {
      "inputs": [
        {
          "internalType": "address",
          "name": "operator",
          "type": "address"
        },
        {
          "internalType": "bool",
          "name": "approved",
          "type": "bool"
        }
      ],
      "name": "setApprovalForAll",
      "outputs": [],
      "stateMutability": "nonpayable",
      "type": "function"
    },
    {
      "inputs": [
        {
          "internalType": "bytes4",
          "name": "interfaceId",
          "type": "bytes4"
        }
      ],
      "name": "supportsInterface",
      "outputs": [
        {
          "internalType": "bool",
          "name": "",
          "type": "bool"
        }
      ],
      "stateMutability": "view",
      "type": "function"
    },
    {
      "inputs": [],
      "name": "symbol",
      "outputs": [
        {
          "internalType": "string",
          "name": "",
          "type": "string"
        }
      ],
      "stateMutability": "view",
      "type": "function"
    },
    {
      "inputs": [
        {
          "internalType": "uint256",
          "name": "index",
          "type": "uint256"
        }
      ],
      "name": "tokenByIndex",
      "outputs": [
        {
          "internalType": "uint256",
          "name": "",
          "type": "uint256"
        }
      ],
      "stateMutability": "view",
      "type": "function"
    },
    {
      "inputs": [
        {
          "internalType": "address",
          "name": "owner",
          "type": "address"
        },
        {
          "internalType": "uint256",
          "name": "index",
          "type": "uint256"
        }
      ],
      "name": "tokenOfOwnerByIndex",
      "outputs": [
        {
          "internalType": "uint256",
          "name": "",
          "type": "uint256"
        }
      ],
      "stateMutability": "view",
      "type": "function"
    },
    {
      "inputs": [
        {
          "internalType": "uint256",
          "name": "tokenId",
          "type": "uint256"
        }
      ],
      "name": "tokenURI",
      "outputs": [
        {
          "internalType": "string",
          "name": "",
          "type": "string"
        }
      ],
      "stateMutability": "view",
      "type": "function"
    },
    {
      "inputs": [],
      "name": "totalSupply",
      "outputs": [
        {
          "internalType": "uint256",
          "name": "",
          "type": "uint256"
        }
      ],
      "stateMutability": "view",
      "type": "function"
    },
    {
      "inputs": [
        {
          "internalType": "address",
          "name": "from",
          "type": "address"
        },
        {
          "internalType": "address",
          "name": "to",
          "type": "address"
        },
        {
          "internalType": "uint256",
          "name": "tokenId",
          "type": "uint256"
        }
      ],
      "name": "transferFrom",
      "outputs": [],
      "stateMutability": "nonpayable",
      "type": "function"
    },
    {
      "inputs": [
        {
          "internalType": "address",
          "name": "reseller",
          "type": "address"
        },
        {
          "internalType": "address",
          "name": "buyer",
          "type": "address"
        }
      ],
      "name": "deployTicket",
      "outputs": [
        {
          "internalType": "bool",
          "name": "",
          "type": "bool"
        }
      ],
      "stateMutability": "nonpayable",
      "type": "function"
    },
    {
      "inputs": [
        {
          "internalType": "address",
          "name": "customer",
          "type": "address"
        },
        {
          "internalType": "uint256",
          "name": "ticketID",
          "type": "uint256"
        }
      ],
      "name": "setTTC",
      "outputs": [],
      "stateMutability": "nonpayable",
      "type": "function"
    },
    {
      "inputs": [
        {
          "internalType": "uint256",
          "name": "ticketID",
          "type": "uint256"
        }
      ],
      "name": "checkTicket",
      "outputs": [
        {
          "internalType": "bool",
          "name": "",
          "type": "bool"
        }
      ],
      "stateMutability": "nonpayable",
      "type": "function"
    },
    {
      "inputs": [],
      "name": "getTicketPrice",
      "outputs": [
        {
          "internalType": "uint256",
          "name": "",
          "type": "uint256"
        }
      ],
      "stateMutability": "view",
      "type": "function"
    },
    {
      "inputs": [
        {
          "internalType": "uint256",
          "name": "ticketID",
          "type": "uint256"
        }
      ],
      "name": "getTicketState",
      "outputs": [
        {
          "internalType": "string",
          "name": "",
          "type": "string"
        }
      ],
      "stateMutability": "view",
      "type": "function"
    },
    {
      "inputs": [
        {
          "internalType": "address",
          "name": "customer",
          "type": "address"
        }
      ],
      "name": "getPurchasedTicketsOfCustomer",
      "outputs": [
        {
          "internalType": "uint256[]",
          "name": "",
          "type": "uint256[]"
        }
      ],
      "stateMutability": "view",
      "type": "function"
    },
    {
      "inputs": [],
      "name": "getRemainingTickets",
      "outputs": [
        {
          "internalType": "uint256",
          "name": "",
          "type": "uint256"
        }
      ],
      "stateMutability": "view",
      "type": "function"
    },
    {
      "inputs": [],
      "name": "getTicketsToCheck",
      "outputs": [
        {
          "internalType": "uint256[]",
          "name": "",
          "type": "uint256[]"
        }
      ],
      "stateMutability": "view",
      "type": "function"
    },
    {
      "inputs": [
        {
          "internalType": "uint256",
          "name": "ticketId",
          "type": "uint256"
        }
      ],
      "name": "getTicketsToCheckExposer",
      "outputs": [
        {
          "internalType": "address",
          "name": "",
          "type": "address"
        }
      ],
      "stateMutability": "view",
      "type": "function"
    },
    {
      "inputs": [],
      "name": "getPurchasedTickets",
      "outputs": [
        {
          "internalType": "uint256[]",
          "name": "",
          "type": "uint256[]"
        }
      ],
      "stateMutability": "view",
      "type": "function"
    }
  ],
  "bytecode": "0x60806040523480156200001157600080fd5b50604051620030cc380380620030cc83398181016040526101008110156200003857600080fd5b8151602083018051604051929492938301929190846401000000008211156200006057600080fd5b9083019060208201858111156200007657600080fd5b82516401000000008111828201881017156200009157600080fd5b82525081516020918201929091019080838360005b83811015620000c0578181015183820152602001620000a6565b50505050905090810190601f168015620000ee5780820380516001836020036101000a031916815260200191505b50604052602001805160405193929190846401000000008211156200011257600080fd5b9083019060208201858111156200012857600080fd5b82516401000000008111828201881017156200014357600080fd5b82525081516020918201929091019080838360005b838110156200017257818101518382015260200162000158565b50505050905090810190601f168015620001a05780820380516001836020036101000a031916815260200191505b5060409081526020820151908201516060830151608084015160a09094015192955090935091908686620001e46301ffc9a760e01b6001600160e01b036200030716565b8151620001f9906007906020850190620004c8565b5080516200020f906008906020840190620004c8565b506200022b6380ac58cd60e01b6001600160e01b036200030716565b62000246635b5e139f60e01b6001600160e01b036200030716565b6200026163780e9d6360e01b6001600160e01b036200030716565b5050604080516a4d494e5445525f524f4c4560a81b8152905190819003600b0190206200029890836001600160e01b036200038f16565b604080516a4d494e5445525f524f4c4560a81b8152905190819003600b019020620002cd90826001600160e01b036200038f16565b50600c96909655600d92909255600e55600f555050601080546001600160a01b0319166001600160a01b039092169190911790556200056a565b6001600160e01b0319808216141562000367576040805162461bcd60e51b815260206004820152601c60248201527f4552433136353a20696e76616c696420696e7465726661636520696400000000604482015290519081900360640190fd5b6001600160e01b0319166000908152600160208190526040909120805460ff19169091179055565b620003a482826001600160e01b03620003a816565b5050565b600082815260208181526040909120620003cd91839062001fff6200042a821b17901c565b15620003a457620003e66001600160e01b036200045316565b6001600160a01b0316816001600160a01b0316837f2f8788117e7eff1d82e926ec794901d17c78024a50270940304540a733656f0d60405160405180910390a45050565b60006200044a836001600160a01b0384166001600160e01b036200045816565b90505b92915050565b335b90565b60006200046f83836001600160e01b03620004b016565b620004a7575081546001818101845560008481526020808220909301849055845484825282860190935260409020919091556200044d565b5060006200044d565b60009081526001919091016020526040902054151590565b828054600181600116156101000203166002900490600052602060002090601f016020900481019282601f106200050b57805160ff19168380011785556200053b565b828001600101855582156200053b579182015b828111156200053b5782518255916020019190600101906200051e565b50620005499291506200054d565b5090565b6200045591905b8082111562000549576000815560010162000554565b612b52806200057a6000396000f3fe608060405234801561001057600080fd5b50600436106102325760003560e01c806370a0823111610130578063a58b1571116100b8578063d53913931161007c578063d5391393146107bf578063d547741f146107c7578063e44601b9146107f3578063e985e9c514610810578063ff4774641461083e57610232565b8063a58b157114610674578063b0a85066146106a2578063b88d4fde146106bf578063c87b56dd14610785578063ca15c873146107a257610232565b806391d14854116100ff57806391d1485414610602578063956b89291461062e57806395d89b4114610636578063a217fddf1461063e578063a22cb4651461064657610232565b806370a08231146105a957806370cc89ad146105cf57806387bb7ae0146105d75780639010d07c146105df57610232565b80632f2ff15d116101be57806346d260a11161018257806346d260a11461052d5780634f6ccce71461054a5780636352211e146105675780636482db3f146105845780636c0360eb146105a157610232565b80632f2ff15d146104475780632f745c591461047357806336568abe1461049f57806342842e0e146104cb57806343b22a4e1461050157610232565b8063095ea7b311610205578063095ea7b31461038057806318160ddd146103ae5780631c351b6a146103c857806323b872dd146103f4578063248a9ca31461042a57610232565b806301ffc9a71461023757806305bd7cdc1461027257806306fdde03146102ca578063081812fc14610347575b600080fd5b61025e6004803603602081101561024d57600080fd5b50356001600160e01b031916610864565b604080519115158252519081900360200190f35b61027a610887565b60408051602080825283518183015283519192839290830191858101910280838360005b838110156102b657818101518382015260200161029e565b505050509050019250505060405180910390f35b6102d26108e0565b6040805160208082528351818301528351919283929083019185019080838360005b8381101561030c5781810151838201526020016102f4565b50505050905090810190601f1680156103395780820380516001836020036101000a031916815260200191505b509250505060405180910390f35b6103646004803603602081101561035d57600080fd5b503561096d565b604080516001600160a01b039092168252519081900360200190f35b6103ac6004803603604081101561039657600080fd5b506001600160a01b0381351690602001356109cf565b005b6103b6610aaa565b60408051918252519081900360200190f35b6103ac600480360360408110156103de57600080fd5b506001600160a01b038135169060200135610abb565b6103ac6004803603606081101561040a57600080fd5b506001600160a01b03813581169160208101359091169060400135610d10565b6103b66004803603602081101561044057600080fd5b5035610d67565b6103ac6004803603604081101561045d57600080fd5b50803590602001356001600160a01b0316610d7c565b6103b66004803603604081101561048957600080fd5b506001600160a01b038135169060200135610de8565b6103ac600480360360408110156104b557600080fd5b50803590602001356001600160a01b0316610e19565b6103ac600480360360608110156104e157600080fd5b506001600160a01b03813581169160208101359091169060400135610e7a565b6103b66004803603604081101561051757600080fd5b506001600160a01b038135169060200135610e95565b61025e6004803603602081101561054357600080fd5b5035610ec3565b6103b66004803603602081101561056057600080fd5b503561100e565b6103646004803603602081101561057d57600080fd5b5035611022565b6102d26004803603602081101561059a57600080fd5b5035611050565b6102d26110f1565b6103b6600480360360208110156105bf57600080fd5b50356001600160a01b0316611152565b6103b66111ba565b6103b66111cf565b610364600480360360408110156105f557600080fd5b50803590602001356111d5565b61025e6004803603604081101561061857600080fd5b50803590602001356001600160a01b03166111f3565b61027a611211565b6102d2611267565b6103b66112c8565b6103ac6004803603604081101561065c57600080fd5b506001600160a01b03813516906020013515156112cd565b61025e6004803603604081101561068a57600080fd5b506001600160a01b03813581169160200135166113d2565b610364600480360360208110156106b857600080fd5b5035611565565b6103ac600480360360808110156106d557600080fd5b6001600160a01b0382358116926020810135909116916040820135919081019060808101606082013564010000000081111561071057600080fd5b82018360208201111561072257600080fd5b8035906020019184600183028401116401000000008311171561074457600080fd5b91908080601f016020809104026020016040519081016040528093929190818152602001838380828437600092019190915250929550611580945050505050565b6102d26004803603602081101561079b57600080fd5b50356115de565b6103b6600480360360208110156107b857600080fd5b5035611861565b6103b6611878565b6103ac600480360360408110156107dd57600080fd5b50803590602001356001600160a01b031661189b565b6103646004803603602081101561080957600080fd5b50356118f4565b61025e6004803603604081101561082657600080fd5b506001600160a01b038135811691602001351661190f565b61027a6004803603602081101561085457600080fd5b50356001600160a01b031661193d565b6001600160e01b0319811660009081526001602052604090205460ff165b919050565b606060158054806020026020016040519081016040528092919081815260200182805480156108d557602002820191906000526020600020905b8154815260200190600101908083116108c1575b505050505090505b90565b60078054604080516020601f60026000196101006001881615020190951694909404938401819004810282018101909252828152606093909290918301828280156108d55780601f10610941576101008083540402835291602001916108d5565b820191906000526020600020905b81548152906001019060200180831161094f57509395945050505050565b6000610978826119a8565b6109b35760405162461bcd60e51b815260040180806020018281038252602c81526020018061294b602c913960400191505060405180910390fd5b506000908152600560205260409020546001600160a01b031690565b60006109da82611022565b9050806001600160a01b0316836001600160a01b03161415610a2d5760405162461bcd60e51b81526004018080602001828103825260218152602001806129f26021913960400191505060405180910390fd5b806001600160a01b0316610a3f6119bb565b6001600160a01b03161480610a605750610a6081610a5b6119bb565b61190f565b610a9b5760405162461bcd60e51b815260040180806020018281038252603881526020018061289e6038913960400191505060405180910390fd5b610aa583836119bf565b505050565b6000610ab66003611a2d565b905090565b60006060610ac88461193d565b905082610ad5600b611a34565b1015610b125760405162461bcd60e51b8152600401808060200182810382526027815260200180612af66027913960400191505060405180910390fd5b6040805180820182526008815267636f6d707261746f60c01b60209182015260008581526011909152819020905181547f09c7cd8c5134be71ca18de10ed74fcce4f736ae490603e0658a045fe4fc28a2d92919081908390600260001961010060018416150201909116048015610bc05780601f10610b9e576101008083540402835291820191610bc0565b820191906000526020600020905b815481529060010190602001808311610bac575b5050915050604051809103902014610c095760405162461bcd60e51b81526004018080602001828103825260238152602001806129cf6023913960400191505060405180910390fd5b60005b8151811015610c3d5783828281518110610c2257fe5b60200260200101511415610c3557600192505b600101610c0c565b5081610c7a5760405162461bcd60e51b815260040180806020018281038252602381526020018061284b6023913960400191505060405180910390fd5b600083815260146020908152604080832080546001600160a01b0319166001600160a01b03891617905560158054600181019091557f55f448fdea98c4d29eb340757ef0a66cd03dbb9538908a6a81d96026b71ec4750186905580518082018252600981526872696669757461746f60b81b818401908152878552601190935292209151610d099291906126a3565b5050505050565b610d21610d1b6119bb565b82611a38565b610d5c5760405162461bcd60e51b8152600401808060200182810382526031815260200180612a3b6031913960400191505060405180910390fd5b610aa5838383611adc565b60009081526020819052604090206002015490565b600082815260208190526040902060020154610d9f90610d9a6119bb565b6111f3565b610dda5760405162461bcd60e51b815260040180806020018281038252602f81526020018061275e602f913960400191505060405180910390fd5b610de48282611c3a565b5050565b6001600160a01b0382166000908152600260205260408120610e10908363ffffffff611ca916565b90505b92915050565b610e216119bb565b6001600160a01b0316816001600160a01b031614610e705760405162461bcd60e51b815260040180806020018281038252602f815260200180612ac7602f913960400191505060405180910390fd5b610de48282611cb5565b610aa583838360405180602001604052806000815250611580565b60126020528160005260406000208181548110610eae57fe5b90600052602060002001600091509150505481565b6000818152601460209081526040808320546001600160a01b03168084526012909252822054610f245760405162461bcd60e51b8152600401808060200182810382526028815260200180612a136028913960400191505060405180910390fd5b6000805b6001600160a01b038316600090815260126020526040902054811015610f8d576001600160a01b0383166000908152601260205260409020805486919083908110610f6f57fe5b90600052602060002001541415610f8557600191505b600101610f28565b5080610fca5760405162461bcd60e51b815260040180806020018281038252603c8152602001806127bf603c913960400191505060405180910390fd5b604080518082018252600981526861636365747461746f60b81b60208083019182526000888152601190915292909220905161100692906126a3565b509392505050565b60008061100660038463ffffffff611d2416565b6000610e1382604051806060016040528060298152602001612900602991396003919063ffffffff611d4016565b60008181526011602090815260409182902080548351601f60026000196101006001861615020190931692909204918201849004840281018401909452808452606093928301828280156110e55780601f106110ba576101008083540402835291602001916110e5565b820191906000526020600020905b8154815290600101906020018083116110c857829003601f168201915b50505050509050919050565b600a8054604080516020601f60026000196101006001881615020190951694909404938401819004810282018101909252828152606093909290918301828280156108d55780601f10610941576101008083540402835291602001916108d5565b60006001600160a01b0382166111995760405162461bcd60e51b815260040180806020018281038252602a8152602001806128d6602a913960400191505060405180910390fd5b6001600160a01b0382166000908152600260205260409020610e1390611a2d565b60006111c6600b611a34565b600e5403905090565b600d5490565b6000828152602081905260408120610e10908363ffffffff611ca916565b6000828152602081905260408120610e10908363ffffffff611d5716565b606060138054806020026020016040519081016040528092919081815260200182805480156108d557602002820191906000526020600020908154815260200190600101908083116108c1575050505050905090565b60088054604080516020601f60026000196101006001881615020190951694909404938401819004810282018101909252828152606093909290918301828280156108d55780601f10610941576101008083540402835291602001916108d5565b600081565b6112d56119bb565b6001600160a01b0316826001600160a01b0316141561133b576040805162461bcd60e51b815260206004820152601960248201527f4552433732313a20617070726f766520746f2063616c6c657200000000000000604482015290519081900360640190fd5b80600660006113486119bb565b6001600160a01b03908116825260208083019390935260409182016000908120918716808252919093529120805460ff19169215159290921790915561138c6119bb565b60408051841515815290516001600160a01b0392909216917f17307eab39ab6107e8899845ad3d59bd9653f200f220920489ca2b5937696c319181900360200190a35050565b604080516a4d494e5445525f524f4c4560a81b8152905190819003600b01902060009061140190610d9a6119bb565b61143c5760405162461bcd60e51b8152600401808060200182810382526038815260200180612a6c6038913960400191505060405180910390fd5b611446600b611d6c565b6000611452600b611a34565b9050600e54611461600b611a34565b111561149e5760405162461bcd60e51b8152600401808060200182810382526023815260200180612aa46023913960400191505060405180910390fd5b6114a88482611d75565b60408051608081018252600881830190815267636f6d707261746f60c01b606083015281526001600160a01b03851660208083019190915260008481526011825292909220815180519293919261150292849201906126a3565b50602091820151600191820180546001600160a01b0319166001600160a01b03928316179055851660009081526012835260408120805492830181558152919091200181905561155b61155482611022565b8483610d10565b5060019392505050565b6014602052600090815260409020546001600160a01b031681565b61159161158b6119bb565b83611a38565b6115cc5760405162461bcd60e51b8152600401808060200182810382526031815260200180612a3b6031913960400191505060405180910390fd5b6115d884848484611eaf565b50505050565b60606115e9826119a8565b6116245760405162461bcd60e51b815260040180806020018281038252602f8152602001806129a0602f913960400191505060405180910390fd5b60008281526009602090815260409182902080548351601f60026000196101006001861615020190931692909204918201849004840281018401909452808452606093928301828280156116b95780601f1061168e576101008083540402835291602001916116b9565b820191906000526020600020905b81548152906001019060200180831161169c57829003601f168201915b5050505050905060606116ca6110f1565b90508051600014156116de57509050610882565b81511561179f5780826040516020018083805190602001908083835b602083106117195780518252601f1990920191602091820191016116fa565b51815160209384036101000a600019018019909216911617905285519190930192850191508083835b602083106117615780518252601f199092019160209182019101611742565b6001836020036101000a0380198251168184511680821785525050505050509050019250505060405160208183030381529060405292505050610882565b806117a985611f01565b6040516020018083805190602001908083835b602083106117db5780518252601f1990920191602091820191016117bc565b51815160209384036101000a600019018019909216911617905285519190930192850191508083835b602083106118235780518252601f199092019160209182019101611804565b6001836020036101000a0380198251168184511680821785525050505050509050019250505060405160208183030381529060405292505050919050565b6000818152602081905260408120610e1390611a2d565b604080516a4d494e5445525f524f4c4560a81b8152905190819003600b01902081565b6000828152602081905260409020600201546118b990610d9a6119bb565b610e705760405162461bcd60e51b815260040180806020018281038252603081526020018061286e6030913960400191505060405180910390fd5b6000908152601460205260409020546001600160a01b031690565b6001600160a01b03918216600090815260066020908152604080832093909416825291909152205460ff1690565b6001600160a01b0381166000908152601260209081526040918290208054835181840281018401909452808452606093928301828280156110e557602002820191906000526020600020905b8154815260200190600101908083116119895750505050509050919050565b6000610e1360038363ffffffff611fc516565b3390565b600081815260056020526040902080546001600160a01b0319166001600160a01b03841690811790915581906119f482611022565b6001600160a01b03167f8c5be1e5ebec7d5bd14f71427d1e84f3dd0314c0f7b2291e5b200ac8c7c3b92560405160405180910390a45050565b6000610e13825b5490565b6000611a43826119a8565b611a7e5760405162461bcd60e51b815260040180806020018281038252602c81526020018061281f602c913960400191505060405180910390fd5b6000611a8983611022565b9050806001600160a01b0316846001600160a01b03161480611ac45750836001600160a01b0316611ab98461096d565b6001600160a01b0316145b80611ad45750611ad4818561190f565b949350505050565b826001600160a01b0316611aef82611022565b6001600160a01b031614611b345760405162461bcd60e51b81526004018080602001828103825260298152602001806129776029913960400191505060405180910390fd5b6001600160a01b038216611b795760405162461bcd60e51b81526004018080602001828103825260248152602001806127fb6024913960400191505060405180910390fd5b611b84838383610aa5565b611b8f6000826119bf565b6001600160a01b0383166000908152600260205260409020611bb7908263ffffffff611fd116565b506001600160a01b0382166000908152600260205260409020611be0908263ffffffff611fdd16565b50611bf36003828463ffffffff611fe916565b5080826001600160a01b0316846001600160a01b03167fddf252ad1be2c89b69c2b068fc378daa952ba7f163c4a11628f55a4df523b3ef60405160405180910390a4505050565b6000828152602081905260409020611c58908263ffffffff611fff16565b15610de457611c656119bb565b6001600160a01b0316816001600160a01b0316837f2f8788117e7eff1d82e926ec794901d17c78024a50270940304540a733656f0d60405160405180910390a45050565b6000610e108383612014565b6000828152602081905260409020611cd3908263ffffffff61207816565b15610de457611ce06119bb565b6001600160a01b0316816001600160a01b0316837ff6391f5c32d9c69d2a47ea670b442974b53935d1edc7fd64eb21e047a839171b60405160405180910390a45050565b6000808080611d33868661208d565b9097909650945050505050565b6000611d4d848484612108565b90505b9392505050565b6000610e10836001600160a01b0384166121d2565b80546001019055565b6001600160a01b038216611dd0576040805162461bcd60e51b815260206004820181905260248201527f4552433732313a206d696e7420746f20746865207a65726f2061646472657373604482015290519081900360640190fd5b611dd9816119a8565b15611e2b576040805162461bcd60e51b815260206004820152601c60248201527f4552433732313a20746f6b656e20616c7265616479206d696e74656400000000604482015290519081900360640190fd5b611e3760008383610aa5565b6001600160a01b0382166000908152600260205260409020611e5f908263ffffffff611fdd16565b50611e726003828463ffffffff611fe916565b5060405181906001600160a01b038416906000907fddf252ad1be2c89b69c2b068fc378daa952ba7f163c4a11628f55a4df523b3ef908290a45050565b611eba848484611adc565b611ec6848484846121ea565b6115d85760405162461bcd60e51b815260040180806020018281038252603281526020018061278d6032913960400191505060405180910390fd5b606081611f2657506040805180820190915260018152600360fc1b6020820152610882565b8160005b8115611f3e57600101600a82049150611f2a565b6060816040519080825280601f01601f191660200182016040528015611f6b576020820181803883390190505b50859350905060001982015b8315611fbc57600a840660300160f81b82828060019003935081518110611f9a57fe5b60200101906001600160f81b031916908160001a905350600a84049350611f77565b50949350505050565b6000610e1083836121d2565b6000610e10838361236a565b6000610e108383612430565b6000611d4d84846001600160a01b03851661247a565b6000610e10836001600160a01b038416612430565b815460009082106120565760405162461bcd60e51b815260040180806020018281038252602281526020018061273c6022913960400191505060405180910390fd5b82600001828154811061206557fe5b9060005260206000200154905092915050565b6000610e10836001600160a01b03841661236a565b8154600090819083106120d15760405162461bcd60e51b81526004018080602001828103825260228152602001806129296022913960400191505060405180910390fd5b60008460000184815481106120e257fe5b906000526020600020906002020190508060000154816001015492509250509250929050565b600082815260018401602052604081205482816121a35760405162461bcd60e51b81526004018080602001828103825283818151815260200191508051906020019080838360005b83811015612168578181015183820152602001612150565b50505050905090810190601f1680156121955780820380516001836020036101000a031916815260200191505b509250505060405180910390fd5b508460000160018203815481106121b657fe5b9060005260206000209060020201600101549150509392505050565b60009081526001919091016020526040902054151590565b60006121fe846001600160a01b0316612511565b61220a57506001611ad4565b6060612330630a85bd0160e11b61221f6119bb565b88878760405160240180856001600160a01b03166001600160a01b03168152602001846001600160a01b03166001600160a01b0316815260200183815260200180602001828103825283818151815260200191508051906020019080838360005b83811015612298578181015183820152602001612280565b50505050905090810190601f1680156122c55780820380516001836020036101000a031916815260200191505b5095505050505050604051602081830303815290604052906001600160e01b0319166020820180516001600160e01b03838183161783525050505060405180606001604052806032815260200161278d603291396001600160a01b038816919063ffffffff61251716565b9050600081806020019051602081101561234957600080fd5b50516001600160e01b031916630a85bd0160e11b1492505050949350505050565b60008181526001830160205260408120548015612426578354600019808301919081019060009087908390811061239d57fe5b90600052602060002001549050808760000184815481106123ba57fe5b6000918252602080832090910192909255828152600189810190925260409020908401905586548790806123ea57fe5b60019003818190600052602060002001600090559055866001016000878152602001908152602001600020600090556001945050505050610e13565b6000915050610e13565b600061243c83836121d2565b61247257508154600181810184556000848152602080822090930184905584548482528286019093526040902091909155610e13565b506000610e13565b6000828152600184016020526040812054806124df575050604080518082018252838152602080820184815286546001818101895560008981528481209551600290930290950191825591519082015586548684528188019092529290912055611d50565b828560000160018303815481106124f257fe5b9060005260206000209060020201600101819055506000915050611d50565b3b151590565b6060611d4d84846000858561252b85612511565b61257c576040805162461bcd60e51b815260206004820152601d60248201527f416464726573733a2063616c6c20746f206e6f6e2d636f6e7472616374000000604482015290519081900360640190fd5b60006060866001600160a01b031685876040518082805190602001908083835b602083106125bb5780518252601f19909201916020918201910161259c565b6001836020036101000a03801982511681845116808217855250505050505090500191505060006040518083038185875af1925050503d806000811461261d576040519150601f19603f3d011682016040523d82523d6000602084013e612622565b606091505b509150915061263282828661263d565b979650505050505050565b6060831561264c575081611d50565b82511561265c5782518084602001fd5b60405162461bcd60e51b8152602060048201818152845160248401528451859391928392604401919085019080838360008315612168578181015183820152602001612150565b828054600181600116156101000203166002900490600052602060002090601f016020900481019282601f106126e457805160ff1916838001178555612711565b82800160010185558215612711579182015b828111156127115782518255916020019190600101906126f6565b5061271d929150612721565b5090565b6108dd91905b8082111561271d576000815560010161272756fe456e756d657261626c655365743a20696e646578206f7574206f6620626f756e6473416363657373436f6e74726f6c3a2073656e646572206d75737420626520616e2061646d696e20746f206772616e744552433732313a207472616e7366657220746f206e6f6e20455243373231526563656976657220696d706c656d656e746572496c206269676c696574746f206573696269746f20652720737461746f206163717569737461746f20646120756e20616c74726f20636c69656e74654552433732313a207472616e7366657220746f20746865207a65726f20616464726573734552433732313a206f70657261746f7220717565727920666f72206e6f6e6578697374656e7420746f6b656e4e6f6e20686169206163717569737461746f2071756573746f206269676c696574746f416363657373436f6e74726f6c3a2073656e646572206d75737420626520616e2061646d696e20746f207265766f6b654552433732313a20617070726f76652063616c6c6572206973206e6f74206f776e6572206e6f7220617070726f76656420666f7220616c6c4552433732313a2062616c616e636520717565727920666f7220746865207a65726f20616464726573734552433732313a206f776e657220717565727920666f72206e6f6e6578697374656e7420746f6b656e456e756d657261626c654d61703a20696e646578206f7574206f6620626f756e64734552433732313a20617070726f76656420717565727920666f72206e6f6e6578697374656e7420746f6b656e4552433732313a207472616e73666572206f6620746f6b656e2074686174206973206e6f74206f776e4552433732314d657461646174613a2055524920717565727920666f72206e6f6e6578697374656e7420746f6b656e496c206269676c69696574746f20652720737461746f2067696127206573696269746f4552433732313a20617070726f76616c20746f2063757272656e74206f776e6572496c20637573746f6d6572206e6f6e206861206163717569737461746f206269676c69657474692e4552433732313a207472616e736665722063616c6c6572206973206e6f74206f776e6572206e6f7220617070726f7665644c277574656e7465206465766520617665726520696c2072756f6c6f206469206d696e7465722070657220706f746572206d696e61726521537570657261746f206c696d697465206d617373696d6f20646569205469636b657421416363657373436f6e74726f6c3a2063616e206f6e6c792072656e6f756e636520726f6c657320666f722073656c66496c206269676c696574746f206e6f6e206520737461746f20616e636f72612076656e6475746fa2646970667358221220976d3f8651811f4634a6a50f989bc5b5258dcdbd160bd131f3cdc1d924bec0cb64736f6c63430006020033",
  "source": "// SPDX-License-Identifier: MIT\npragma solidity >=0.4.22 <0.9.0;\n\nimport \"@openzeppelin/contracts/utils/Context.sol\";\nimport \"@openzeppelin/contracts/access/AccessControl.sol\";\nimport \"@openzeppelin/contracts/token/ERC721/ERC721.sol\";\nimport \"@openzeppelin/contracts/utils/Counters.sol\";\n\ncontract Event is Context, AccessControl, ERC721 {\n    using Counters for Counters.Counter;\n\n    bytes32 public constant MINTER_ROLE = keccak256(\"MINTER_ROLE\");\n\n    struct TicketDetails {\n        string state;\n        address buyer; \n    }\n    struct TicketToCheck {\n        uint256 ticketID;\n        address exposer; \n    }\n\n    // counter dei tickets \n    Counters.Counter private _ticketIds;\n    \n    uint private _eventID;                                    // id dell'evento\n    uint256 private _ticketPrice;                             // prezzo\n    uint256 private _totalSupply;                             // biglietti rimanenti\n    uint256 private _eventDate;                               // data del evento\n    address private _organizer;                               // organizzatore\n    // address[] private _soldTicketsList;                        // address biglietti acquistati\n    \n    mapping(uint256 => TicketDetails) private _ticketDetails; // dettagli dei biglietti\n\n    mapping(address => uint256[]) public _purchasedTicketsMapping;  // biglietti acquistati\n    uint256[] private _purchasedTicketsIds;\n\n    // biglietti esibiti da verificare\n    mapping(uint256 => address) public _ticketsToCheckAddresses;  // biglietti da verificare\n    uint256[] private _ticketsToCheckIds;\n\n    //TODO: da valutare se serve...\n    //uint256[] private soldTickets;    //lista biglietti venduti\n    address[] private _customers;      //clienti\n\n    constructor(\n        uint eventID,\n        string memory eventName,    // nome dell'evento\n        string memory eventSymbol,  // simbolo dell'evento\n        uint256 ticketPrice,        // prezzo di un biglietto\n        uint256 totalSupply,        // biglietti disponibili alla creazione\n        uint256 eventDate,          // data del evento\n        address organizer,            // indirizzo del rivenditore\n        address reseller\n    ) public ERC721(eventName, eventSymbol) {\n\n      _setupRole(MINTER_ROLE, organizer);\n      _setupRole(MINTER_ROLE, reseller);\n\n      _eventID = eventID;\n      _ticketPrice = ticketPrice;\n      _totalSupply = totalSupply;\n      _eventDate = eventDate;\n      _organizer = organizer;\n    }\n\n    modifier isValidTicketCount {\n      require(\n          _ticketIds.current() < _totalSupply,\n          \"Superato limite massimo dei Ticket!\"\n      );\n      _;\n    }\n\n    modifier isMinterRole {\n      require(\n          hasRole(MINTER_ROLE, _msgSender()),\n          \"L'utente deve avere il ruolo di minter per poter minare!\"\n      );\n      _;\n    }\n\n    /*\n     * Mint new tickets and assign it to reseller\n     * Access controlled by minter only\n     * Returns new ticketId\n     */\n    function deployTicket(address reseller, address buyer) public virtual isMinterRole returns (bool) {\n        _ticketIds.increment();\n        uint256 newTicketId = _ticketIds.current();\n\n        require(\n          _ticketIds.current() <= _totalSupply,\n          \"Superato limite massimo dei Ticket!\"\n        );\n        _mint(reseller, newTicketId);\n\n    \n        // definizioni per i ticket \n        // @state -> definisce lo stato attuale del ticket \n        //           - buyed: appena acquistato \n        //           - pending: check-in\n        //           - accepted: biglietto verificato dal controllore\n        //           - denied: biglietto regettato dal controllore\n        _ticketDetails[newTicketId] = TicketDetails({\n            state: \"comprato\",\n            buyer: buyer\n        });\n\n        _purchasedTicketsMapping[buyer].push(newTicketId);\n\n        // trasferisce la propriet del ticket dal reseller al cliente\n        transferFrom(ownerOf(newTicketId), buyer, newTicketId);\n\n        // aggiungo cliente alla lista dei customers se non  gi stato fatto\n        /*if (!isCustomerExist(buyer)) {\n            customers.push(buyer);\n        }*/\n\n        return true;\n    }\n\n    // Utility function to check if customer exists to avoid redundancy\n    /*function isCustomerExist(address buyer) internal view returns (bool) {\n        for (uint256 i = 0; i < customers.length; i++) {\n            if (customers[i] == buyer) {\n                return true;\n            }\n        }\n        return false;\n    }*/\n    // Inserisce il biglietto nella list dei biglietti da obliterare\n    function setTTC(address customer, uint256 ticketID) public {\n        bool isBuyer = false;\n        uint256[] memory customerTickets = getPurchasedTicketsOfCustomer(customer);\n        \n\n        require(_ticketIds.current() >= ticketID, 'Il biglietto non e stato ancora venduto');\n\n        require(keccak256(bytes( _ticketDetails[ticketID].state)) == keccak256(bytes('comprato')), \"Il bigliietto e' stato gia' esibito\");\n        \n        for (uint256 i = 0; i < customerTickets.length; i++) {\n            if (customerTickets[i] == ticketID) {\n                isBuyer = true;\n            }\n        }\n        require(isBuyer, 'Non hai acquistato questo biglietto');\n\n\n        _ticketsToCheckAddresses[ticketID] = customer;\n        _ticketsToCheckIds.push(ticketID);\n        \n        _ticketDetails[ticketID].state = 'rifiutato';  //il bilgietto inizialmente  rifiutato\n    }\n\n    // Customer shows ticket to the controller\n    function checkTicket(uint256 ticketID) public returns (bool) { \n\n        address exposer = _ticketsToCheckAddresses[ticketID];\n\n        require(_purchasedTicketsMapping[exposer].length != 0, \"Il customer non ha acquistato biglietti.\");\n\n        bool isBuyer = false;\n\n        for (uint256 i = 0; i < _purchasedTicketsMapping[exposer].length; i++) {\n            if (_purchasedTicketsMapping[exposer][i] == ticketID) {\n                isBuyer = true;\n            }\n        }\n\n        require(isBuyer, \"Il biglietto esibito e' stato acquistato da un altro cliente\");\n\n        _ticketDetails[ticketID].state = 'accettato';\n\n        return isBuyer;\n    }\n\n    // GETTERS ==================================================================\n\n    // TODO: funzioni utility da controllare!\n    // Get ticket actual price\n\n    // // Get current ticketId\n    // function ticketCounts() public view returns (uint256) {\n    //     return _ticketIds.current();\n    // }\n\n    // // Get selling price for the ticket\n    // function getSellingPrice(uint256 ticketId) public view returns (uint256) {\n    //     return _ticketDetails[ticketId].sellingPrice;\n    // }\n\n    // // Get all tickets available for sale\n    // function getTicketsForSale() public view returns (uint256[] memory) {\n    //     return ticketsForSale;\n    // }\n\n    function getTicketPrice() public view returns (uint256) {\n        return _ticketPrice;\n    }\n\n    // Get ticket state from tickerID\n    function getTicketState(uint256 ticketID) public view returns (string memory) {\n        return _ticketDetails[ticketID].state;\n    }\n\n    function getPurchasedTicketsOfCustomer(address customer) public view returns (uint256[] memory) {\n        return _purchasedTicketsMapping[customer];\n    }\n\n    function getRemainingTickets() public view returns (uint){\n        return _totalSupply - _ticketIds.current();\n    }\n    \n    function getTicketsToCheck() public view returns(uint256[] memory){\n        return _ticketsToCheckIds;\n    }\n\n    function getTicketsToCheckExposer(uint256 ticketId) public view returns(address){\n        return _ticketsToCheckAddresses[ticketId];\n    }\n\n    function getPurchasedTickets() public view returns(uint256[] memory){\n        return _purchasedTicketsIds;\n    }\n    \n}",
  "sourcePath": "/Users/lorenzofederici/Univpm/1-anno/SC/ticketing-system/truffle/contracts/Event.sol",
  "compiler": {
    "name": "solc",
    "version": "0.6.2+commit.bacdbe57.Emscripten.clang"
  },
  "schemaVersion": "3.3.3",
  "updatedAt": "2021-10-21T15:44:48.328Z",
  "devdoc": {
    "methods": {
      "approve(address,uint256)": {
        "details": "See {IERC721-approve}."
      },
      "balanceOf(address)": {
        "details": "See {IERC721-balanceOf}."
      },
      "baseURI()": {
        "details": "Returns the base URI set via {_setBaseURI}. This will be automatically added as a prefix in {tokenURI} to each token's URI, or to the token ID if no specific URI is set for that token ID."
      },
      "getApproved(uint256)": {
        "details": "See {IERC721-getApproved}."
      },
      "getRoleAdmin(bytes32)": {
        "details": "Returns the admin role that controls `role`. See {grantRole} and {revokeRole}.     * To change a role's admin, use {_setRoleAdmin}."
      },
      "getRoleMember(bytes32,uint256)": {
        "details": "Returns one of the accounts that have `role`. `index` must be a value between 0 and {getRoleMemberCount}, non-inclusive.     * Role bearers are not sorted in any particular way, and their ordering may change at any point.     * WARNING: When using {getRoleMember} and {getRoleMemberCount}, make sure you perform all queries on the same block. See the following https://forum.openzeppelin.com/t/iterating-over-elements-on-enumerableset-in-openzeppelin-contracts/2296[forum post] for more information."
      },
      "getRoleMemberCount(bytes32)": {
        "details": "Returns the number of accounts that have `role`. Can be used together with {getRoleMember} to enumerate all bearers of a role."
      },
      "grantRole(bytes32,address)": {
        "details": "Grants `role` to `account`.     * If `account` had not been already granted `role`, emits a {RoleGranted} event.     * Requirements:     * - the caller must have ``role``'s admin role."
      },
      "hasRole(bytes32,address)": {
        "details": "Returns `true` if `account` has been granted `role`."
      },
      "isApprovedForAll(address,address)": {
        "details": "See {IERC721-isApprovedForAll}."
      },
      "name()": {
        "details": "See {IERC721Metadata-name}."
      },
      "ownerOf(uint256)": {
        "details": "See {IERC721-ownerOf}."
      },
      "renounceRole(bytes32,address)": {
        "details": "Revokes `role` from the calling account.     * Roles are often managed via {grantRole} and {revokeRole}: this function's purpose is to provide a mechanism for accounts to lose their privileges if they are compromised (such as when a trusted device is misplaced).     * If the calling account had been granted `role`, emits a {RoleRevoked} event.     * Requirements:     * - the caller must be `account`."
      },
      "revokeRole(bytes32,address)": {
        "details": "Revokes `role` from `account`.     * If `account` had been granted `role`, emits a {RoleRevoked} event.     * Requirements:     * - the caller must have ``role``'s admin role."
      },
      "safeTransferFrom(address,address,uint256)": {
        "details": "See {IERC721-safeTransferFrom}."
      },
      "safeTransferFrom(address,address,uint256,bytes)": {
        "details": "See {IERC721-safeTransferFrom}."
      },
      "setApprovalForAll(address,bool)": {
        "details": "See {IERC721-setApprovalForAll}."
      },
      "supportsInterface(bytes4)": {
        "details": "See {IERC165-supportsInterface}.     * Time complexity O(1), guaranteed to always use less than 30 000 gas."
      },
      "symbol()": {
        "details": "See {IERC721Metadata-symbol}."
      },
      "tokenByIndex(uint256)": {
        "details": "See {IERC721Enumerable-tokenByIndex}."
      },
      "tokenOfOwnerByIndex(address,uint256)": {
        "details": "See {IERC721Enumerable-tokenOfOwnerByIndex}."
      },
      "tokenURI(uint256)": {
        "details": "See {IERC721Metadata-tokenURI}."
      },
      "totalSupply()": {
        "details": "See {IERC721Enumerable-totalSupply}."
      },
      "transferFrom(address,address,uint256)": {
        "details": "See {IERC721-transferFrom}."
      }
    }
  },
  "userdoc": {
    "methods": {}
  }
}