{
  "contractName": "EventFactory",
  "abi": [
    {
      "anonymous": false,
      "inputs": [
        {
          "indexed": false,
          "internalType": "address",
          "name": "ntfAddress",
          "type": "address"
        }
      ],
      "name": "Created",
      "type": "event"
    },
    {
      "anonymous": false,
      "inputs": [
        {
          "indexed": true,
          "internalType": "address",
          "name": "previousOwner",
          "type": "address"
        },
        {
          "indexed": true,
          "internalType": "address",
          "name": "newOwner",
          "type": "address"
        }
      ],
      "name": "OwnershipTransferred",
      "type": "event"
    },
    {
      "inputs": [],
      "name": "owner",
      "outputs": [
        {
          "internalType": "address",
          "name": "",
          "type": "address"
        }
      ],
      "stateMutability": "view",
      "type": "function"
    },
    {
      "inputs": [],
      "name": "renounceOwnership",
      "outputs": [],
      "stateMutability": "nonpayable",
      "type": "function"
    },
    {
      "inputs": [
        {
          "internalType": "address",
          "name": "newOwner",
          "type": "address"
        }
      ],
      "name": "transferOwnership",
      "outputs": [],
      "stateMutability": "nonpayable",
      "type": "function"
    },
    {
      "inputs": [],
      "name": "getEventList",
      "outputs": [
        {
          "internalType": "address[]",
          "name": "",
          "type": "address[]"
        }
      ],
      "stateMutability": "view",
      "type": "function"
    },
    {
      "inputs": [
        {
          "internalType": "address",
          "name": "eventAddress",
          "type": "address"
        }
      ],
      "name": "getEventDetails",
      "outputs": [
        {
          "internalType": "uint256",
          "name": "",
          "type": "uint256"
        },
        {
          "internalType": "string",
          "name": "",
          "type": "string"
        },
        {
          "internalType": "uint256",
          "name": "",
          "type": "uint256"
        },
        {
          "internalType": "uint256",
          "name": "",
          "type": "uint256"
        },
        {
          "internalType": "uint256",
          "name": "",
          "type": "uint256"
        }
      ],
      "stateMutability": "view",
      "type": "function"
    },
    {
      "inputs": [
        {
          "internalType": "string",
          "name": "eventName",
          "type": "string"
        },
        {
          "internalType": "string",
          "name": "eventSymbol",
          "type": "string"
        },
        {
          "internalType": "uint256",
          "name": "ticketPrice",
          "type": "uint256"
        },
        {
          "internalType": "uint256",
          "name": "totalSupply",
          "type": "uint256"
        },
        {
          "internalType": "uint256",
          "name": "eventDate",
          "type": "uint256"
        }
      ],
      "name": "createNewEvent",
      "outputs": [
        {
          "internalType": "address",
          "name": "",
          "type": "address"
        }
      ],
      "stateMutability": "nonpayable",
      "type": "function"
    }
  ],
  "bytecode": "0x608060405234801561001057600080fd5b50600061001b61006a565b600080546001600160a01b0319166001600160a01b0383169081178255604051929350917f8be0079c531659141344cd1fd0a4f28419497f9722a3daafe3b4186f6b6457e0908290a35061006e565b3390565b61335a8061007d6000396000f3fe60806040523480156200001157600080fd5b50600436106200006a5760003560e01c80631db06949146200006f5780632eb15efb14620000cb578063715018a614620002285780638da5cb5b1462000234578063d43f036b146200023e578063f2fde38b14620002fe575b600080fd5b6200007962000327565b60408051602080825283518183015283519192839290830191858101910280838360005b83811015620000b75781810151838201526020016200009d565b505050509050019250505060405180910390f35b6200020c600480360360a0811015620000e357600080fd5b810190602081018135640100000000811115620000ff57600080fd5b8201836020820111156200011257600080fd5b803590602001918460018302840111640100000000831117156200013557600080fd5b91908080601f01602080910402602001604051908101604052809392919081815260200183838082843760009201919091525092959493602081019350359150506401000000008111156200018957600080fd5b8201836020820111156200019c57600080fd5b80359060200191846001830284011164010000000083111715620001bf57600080fd5b91908080601f01602080910402602001604051908101604052809392919081815260200183838082843760009201919091525092955050823593505050602081013590604001356200038b565b604080516001600160a01b039092168252519081900360200190f35b6200023262000679565b005b6200020c6200073c565b62000267600480360360208110156200025657600080fd5b50356001600160a01b03166200074b565b6040518086815260200180602001858152602001848152602001838152602001828103825286818151815260200191508051906020019080838360005b83811015620002be578181015183820152602001620002a4565b50505050905090810190601f168015620002ec5780820380516001836020036101000a031916815260200191505b50965050505050505060405180910390f35b62000232600480360360208110156200031657600080fd5b50356001600160a01b031662000824565b606060018054806020026020016040519081016040528092919081815260200182805480156200038157602002820191906000526020600020905b81546001600160a01b0316815260019091019060200180831162000362575b5050505050905090565b6000620003976200093f565b6001600160a01b0316620003aa6200073c565b6001600160a01b03161462000406576040805162461bcd60e51b815260206004820181905260248201527f4f776e61626c653a2063616c6c6572206973206e6f7420746865206f776e6572604482015290519081900360640190fd5b600060018054905060010190506000818888888888336040516200042a9062000943565b808881526020018060200180602001878152602001868152602001858152602001846001600160a01b03168152602001838103835289818151815260200191508051906020019080838360005b838110156200049157818101518382015260200162000477565b50505050905090810190601f168015620004bf5780820380516001836020036101000a031916815260200191505b5083810382528851815288516020918201918a019080838360005b83811015620004f4578181015183820152602001620004da565b50505050905090810190601f168015620005225780820380516001836020036101000a031916815260200191505b509950505050505050505050604051809103906000f0801580156200054b573d6000803e3d6000fd5b506001805480820182557fb10e2d527612073b26eecdfd717e6a320cf44b4afac2b0732d9fcbe2b7fa0cf60180546001600160a01b0319166001600160a01b0384169081179091556040805160c08101825286815260208082018e81528284018e9052606083018d9052608083018c905260a083018b9052600094855260028252929093208151815591518051959650869591949293620005f29385019291019062000951565b50604082015180516200061091600284019160209091019062000951565b50606082015160038201556080820151600482015560a090910151600590910155604080516001600160a01b038316815290517f1449abf21e49fd025f33495e77f7b1461caefdd3d4bb646424a3f445c4576a5b9181900360200190a198975050505050505050565b620006836200093f565b6001600160a01b0316620006966200073c565b6001600160a01b031614620006f2576040805162461bcd60e51b815260206004820181905260248201527f4f776e61626c653a2063616c6c6572206973206e6f7420746865206f776e6572604482015290519081900360640190fd5b600080546040516001600160a01b03909116907f8be0079c531659141344cd1fd0a4f28419497f9722a3daafe3b4186f6b6457e0908390a3600080546001600160a01b0319169055565b6000546001600160a01b031690565b6001600160a01b038116600090815260026020818152604080842080546003820154600483015460058401546001948501805487519681161561010002600019011698909804601f81018890048802860188019096528585526060978997889788979295949392918691908301828280156200080b5780601f10620007df576101008083540402835291602001916200080b565b820191906000526020600020905b815481529060010190602001808311620007ed57829003601f168201915b50989f939e50959c50939a509198509650505050505050565b6200082e6200093f565b6001600160a01b0316620008416200073c565b6001600160a01b0316146200089d576040805162461bcd60e51b815260206004820181905260248201527f4f776e61626c653a2063616c6c6572206973206e6f7420746865206f776e6572604482015290519081900360640190fd5b6001600160a01b038116620008e45760405162461bcd60e51b8152600401808060200182810382526026815260200180620032ff6026913960400191505060405180910390fd5b600080546040516001600160a01b03808516939216917f8be0079c531659141344cd1fd0a4f28419497f9722a3daafe3b4186f6b6457e091a3600080546001600160a01b0319166001600160a01b0392909216919091179055565b3390565b61291180620009ee83390190565b828054600181600116156101000203166002900490600052602060002090601f016020900481019282601f106200099457805160ff1916838001178555620009c4565b82800160010185558215620009c4579182015b82811115620009c4578251825591602001919060010190620009a7565b50620009d2929150620009d6565b5090565b5b80821115620009d25760008155600101620009d756fe60806040523480156200001157600080fd5b506040516200291138038062002911833981810160405260e08110156200003757600080fd5b8151602083018051604051929492938301929190846401000000008211156200005f57600080fd5b9083019060208201858111156200007557600080fd5b82516401000000008111828201881017156200009057600080fd5b82525081516020918201929091019080838360005b83811015620000bf578181015183820152602001620000a5565b50505050905090810190601f168015620000ed5780820380516001836020036101000a031916815260200191505b50604052602001805160405193929190846401000000008211156200011157600080fd5b9083019060208201858111156200012757600080fd5b82516401000000008111828201881017156200014257600080fd5b82525081516020918201929091019080838360005b838110156200017157818101518382015260200162000157565b50505050905090810190601f1680156200019f5780820380516001836020036101000a031916815260200191505b506040908152602082015190820151606083015160809093015191945092508585620001eb7f01ffc9a70000000000000000000000000000000000000000000000000000000062000300565b815162000200906007906020850190620004e6565b50805162000216906008906020840190620004e6565b50620002427f80ac58cd0000000000000000000000000000000000000000000000000000000062000300565b6200026d7f5b5e139f0000000000000000000000000000000000000000000000000000000062000300565b620002987f780e9d630000000000000000000000000000000000000000000000000000000062000300565b50620002c790507f9f2df0fed2c77648de5860a4cc508cd0818c85b8b8a1ab4ceeef8d981c8956a682620003d2565b600c96909655600d92909255600e55600f555050601080546001600160a01b0319166001600160a01b0390921691909117905562000582565b7fffffffff0000000000000000000000000000000000000000000000000000000080821614156200039257604080517f08c379a000000000000000000000000000000000000000000000000000000000815260206004820152601c60248201527f4552433136353a20696e76616c696420696e7465726661636520696400000000604482015290519081900360640190fd5b7fffffffff00000000000000000000000000000000000000000000000000000000166000908152600160208190526040909120805460ff19169091179055565b620003de8282620003e2565b5050565b60008281526020818152604090912062000407918390620012fb6200045b821b17901c565b15620003de57620004176200047b565b6001600160a01b0316816001600160a01b0316837f2f8788117e7eff1d82e926ec794901d17c78024a50270940304540a733656f0d60405160405180910390a45050565b600062000472836001600160a01b0384166200047f565b90505b92915050565b3390565b60006200048d8383620004ce565b620004c55750815460018181018455600084815260208082209093018490558454848252828601909352604090209190915562000475565b50600062000475565b60009081526001919091016020526040902054151590565b828054600181600116156101000203166002900490600052602060002090601f016020900481019282601f106200052957805160ff191683800117855562000559565b8280016001018555821562000559579182015b82811115620005595782518255916020019190600101906200053c565b50620005679291506200056b565b5090565b5b808211156200056757600081556001016200056c565b61237f80620005926000396000f3fe608060405234801561001057600080fd5b50600436106101cf5760003560e01c80636c0360eb11610104578063a58b1571116100a2578063ca15c87311610071578063ca15c873146106b3578063d5391393146106d0578063d547741f146106d8578063e985e9c514610704576101cf565b8063a58b15711461052c578063b632c9e41461055a578063b88d4fde146105d0578063c87b56dd14610696576101cf565b806391d14854116100de57806391d14854146104c257806395d89b41146104ee578063a217fddf146104f6578063a22cb465146104fe576101cf565b80636c0360eb1461047157806370a08231146104795780639010d07c1461049f576101cf565b80632f2ff15d1161017157806342842e0e1161014b57806342842e0e146103e45780634f6ccce71461041a5780636352211e146104375780636482db3f14610454576101cf565b80632f2ff15d146103605780632f745c591461038c57806336568abe146103b8576101cf565b8063095ea7b3116101ad578063095ea7b3146102c557806318160ddd146102f357806323b872dd1461030d578063248a9ca314610343576101cf565b806301ffc9a7146101d457806306fdde031461020f578063081812fc1461028c575b600080fd5b6101fb600480360360208110156101ea57600080fd5b50356001600160e01b031916610732565b604080519115158252519081900360200190f35b610217610755565b6040805160208082528351818301528351919283929083019185019080838360005b83811015610251578181015183820152602001610239565b50505050905090810190601f16801561027e5780820380516001836020036101000a031916815260200191505b509250505060405180910390f35b6102a9600480360360208110156102a257600080fd5b50356107eb565b604080516001600160a01b039092168252519081900360200190f35b6102f1600480360360408110156102db57600080fd5b506001600160a01b03813516906020013561084d565b005b6102fb610928565b60408051918252519081900360200190f35b6102f16004803603606081101561032357600080fd5b506001600160a01b03813581169160208101359091169060400135610939565b6102fb6004803603602081101561035957600080fd5b5035610990565b6102f16004803603604081101561037657600080fd5b50803590602001356001600160a01b03166109a5565b6102fb600480360360408110156103a257600080fd5b506001600160a01b038135169060200135610a11565b6102f1600480360360408110156103ce57600080fd5b50803590602001356001600160a01b0316610a3c565b6102f1600480360360608110156103fa57600080fd5b506001600160a01b03813581169160208101359091169060400135610a9d565b6102fb6004803603602081101561043057600080fd5b5035610ab8565b6102a96004803603602081101561044d57600080fd5b5035610ace565b6102176004803603602081101561046a57600080fd5b5035610af6565b610217610b97565b6102fb6004803603602081101561048f57600080fd5b50356001600160a01b0316610bf8565b6102a9600480360360408110156104b557600080fd5b5080359060200135610c60565b6101fb600480360360408110156104d857600080fd5b50803590602001356001600160a01b0316610c78565b610217610c90565b6102fb610cf1565b6102f16004803603604081101561051457600080fd5b506001600160a01b0381351690602001351515610cf6565b6101fb6004803603604081101561054257600080fd5b506001600160a01b0381358116916020013516610dfb565b6105806004803603602081101561057057600080fd5b50356001600160a01b0316610eed565b60408051602080825283518183015283519192839290830191858101910280838360005b838110156105bc5781810151838201526020016105a4565b505050509050019250505060405180910390f35b6102f1600480360360808110156105e657600080fd5b6001600160a01b0382358116926020810135909116916040820135919081019060808101606082013564010000000081111561062157600080fd5b82018360208201111561063357600080fd5b8035906020019184600183028401116401000000008311171561065557600080fd5b91908080601f016020809104026020016040519081016040528093929190818152602001838380828437600092019190915250929550610f58945050505050565b610217600480360360208110156106ac57600080fd5b5035610fb6565b6102fb600480360360208110156106c957600080fd5b5035611239565b6102fb611250565b6102f1600480360360408110156106ee57600080fd5b50803590602001356001600160a01b0316611274565b6101fb6004803603604081101561071a57600080fd5b506001600160a01b03813581169160200135166112cd565b6001600160e01b0319811660009081526001602052604090205460ff165b919050565b60078054604080516020601f60026000196101006001881615020190951694909404938401819004810282018101909252828152606093909290918301828280156107e15780601f106107b6576101008083540402835291602001916107e1565b820191906000526020600020905b8154815290600101906020018083116107c457829003601f168201915b5050505050905090565b60006107f682611310565b6108315760405162461bcd60e51b815260040180806020018281038252602c81526020018061220d602c913960400191505060405180910390fd5b506000908152600560205260409020546001600160a01b031690565b600061085882610ace565b9050806001600160a01b0316836001600160a01b031614156108ab5760405162461bcd60e51b81526004018080602001828103825260218152602001806122916021913960400191505060405180910390fd5b806001600160a01b03166108bd61131d565b6001600160a01b031614806108de57506108de816108d961131d565b6112cd565b6109195760405162461bcd60e51b81526004018080602001828103825260388152602001806121606038913960400191505060405180910390fd5b6109238383611321565b505050565b6000610934600361138f565b905090565b61094a61094461131d565b8261139a565b6109855760405162461bcd60e51b81526004018080602001828103825260318152602001806122b26031913960400191505060405180910390fd5b61092383838361143e565b60009081526020819052604090206002015490565b6000828152602081905260409020600201546109c8906109c361131d565b610c78565b610a035760405162461bcd60e51b815260040180806020018281038252602f81526020018061207f602f913960400191505060405180910390fd5b610a0d828261158a565b5050565b6001600160a01b0382166000908152600260205260408120610a3390836115f3565b90505b92915050565b610a4461131d565b6001600160a01b0316816001600160a01b031614610a935760405162461bcd60e51b815260040180806020018281038252602f81526020018061231b602f913960400191505060405180910390fd5b610a0d82826115ff565b61092383838360405180602001604052806000815250610f58565b600080610ac6600384611668565b509392505050565b6000610a36826040518060600160405280602981526020016121c26029913960039190611684565b60008181526012602090815260409182902080548351601f6002600019610100600186161502019093169290920491820184900484028101840190945280845260609392830182828015610b8b5780601f10610b6057610100808354040283529160200191610b8b565b820191906000526020600020905b815481529060010190602001808311610b6e57829003601f168201915b50505050509050919050565b600a8054604080516020601f60026000196101006001881615020190951694909404938401819004810282018101909252828152606093909290918301828280156107e15780601f106107b6576101008083540402835291602001916107e1565b60006001600160a01b038216610c3f5760405162461bcd60e51b815260040180806020018281038252602a815260200180612198602a913960400191505060405180910390fd5b6001600160a01b0382166000908152600260205260409020610a369061138f565b6000828152602081905260408120610a3390836115f3565b6000828152602081905260408120610a33908361169b565b60088054604080516020601f60026000196101006001881615020190951694909404938401819004810282018101909252828152606093909290918301828280156107e15780601f106107b6576101008083540402835291602001916107e1565b600081565b610cfe61131d565b6001600160a01b0316826001600160a01b03161415610d64576040805162461bcd60e51b815260206004820152601960248201527f4552433732313a20617070726f766520746f2063616c6c657200000000000000604482015290519081900360640190fd5b8060066000610d7161131d565b6001600160a01b03908116825260208083019390935260409182016000908120918716808252919093529120805460ff191692151592909217909155610db561131d565b6001600160a01b03167f17307eab39ab6107e8899845ad3d59bd9653f200f220920489ca2b5937696c318360405180821515815260200191505060405180910390a35050565b6000610e297f9f2df0fed2c77648de5860a4cc508cd0818c85b8b8a1ab4ceeef8d981c8956a66109c361131d565b610e645760405162461bcd60e51b81526004018080602001828103825260388152602001806122e36038913960400191505060405180910390fd5b610e6e600b6116b0565b6000610e7a600b6116b9565b9050610e8684826116bd565b604080516060810182526005602080830191825264189d5e595960da1b83850152908252600084815260128252929092208151805192939192610ecc9284920190611fc9565b50905050610ee3610edc82610ace565b8483610939565b5060019392505050565b6001600160a01b038116600090815260136020908152604091829020805483518184028101840190945280845260609392830182828015610b8b57602002820191906000526020600020905b815481526020019060010190808311610f395750505050509050919050565b610f69610f6361131d565b8361139a565b610fa45760405162461bcd60e51b81526004018080602001828103825260318152602001806122b26031913960400191505060405180910390fd5b610fb0848484846117eb565b50505050565b6060610fc182611310565b610ffc5760405162461bcd60e51b815260040180806020018281038252602f815260200180612262602f913960400191505060405180910390fd5b60008281526009602090815260409182902080548351601f60026000196101006001861615020190931692909204918201849004840281018401909452808452606093928301828280156110915780601f1061106657610100808354040283529160200191611091565b820191906000526020600020905b81548152906001019060200180831161107457829003601f168201915b5050505050905060606110a2610b97565b90508051600014156110b657509050610750565b8151156111775780826040516020018083805190602001908083835b602083106110f15780518252601f1990920191602091820191016110d2565b51815160209384036101000a600019018019909216911617905285519190930192850191508083835b602083106111395780518252601f19909201916020918201910161111a565b6001836020036101000a0380198251168184511680821785525050505050509050019250505060405160208183030381529060405292505050610750565b806111818561183d565b6040516020018083805190602001908083835b602083106111b35780518252601f199092019160209182019101611194565b51815160209384036101000a600019018019909216911617905285519190930192850191508083835b602083106111fb5780518252601f1990920191602091820191016111dc565b6001836020036101000a0380198251168184511680821785525050505050509050019250505060405160208183030381529060405292505050919050565b6000818152602081905260408120610a369061138f565b7f9f2df0fed2c77648de5860a4cc508cd0818c85b8b8a1ab4ceeef8d981c8956a681565b600082815260208190526040902060020154611292906109c361131d565b610a935760405162461bcd60e51b81526004018080602001828103825260308152602001806121306030913960400191505060405180910390fd5b6001600160a01b03918216600090815260066020908152604080832093909416825291909152205460ff1690565b6000610a33836001600160a01b038416611918565b6000610a36600383611962565b3390565b600081815260056020526040902080546001600160a01b0319166001600160a01b038416908117909155819061135682610ace565b6001600160a01b03167f8c5be1e5ebec7d5bd14f71427d1e84f3dd0314c0f7b2291e5b200ac8c7c3b92560405160405180910390a45050565b6000610a36826116b9565b60006113a582611310565b6113e05760405162461bcd60e51b815260040180806020018281038252602c815260200180612104602c913960400191505060405180910390fd5b60006113eb83610ace565b9050806001600160a01b0316846001600160a01b031614806114265750836001600160a01b031661141b846107eb565b6001600160a01b0316145b80611436575061143681856112cd565b949350505050565b826001600160a01b031661145182610ace565b6001600160a01b0316146114965760405162461bcd60e51b81526004018080602001828103825260298152602001806122396029913960400191505060405180910390fd5b6001600160a01b0382166114db5760405162461bcd60e51b81526004018080602001828103825260248152602001806120e06024913960400191505060405180910390fd5b6114e6838383610923565b6114f1600082611321565b6001600160a01b0383166000908152600260205260409020611513908261196e565b506001600160a01b0382166000908152600260205260409020611536908261197a565b5061154360038284611986565b5080826001600160a01b0316846001600160a01b03167fddf252ad1be2c89b69c2b068fc378daa952ba7f163c4a11628f55a4df523b3ef60405160405180910390a4505050565b60008281526020819052604090206115a290826112fb565b15610a0d576115af61131d565b6001600160a01b0316816001600160a01b0316837f2f8788117e7eff1d82e926ec794901d17c78024a50270940304540a733656f0d60405160405180910390a45050565b6000610a33838361199c565b60008281526020819052604090206116179082611a00565b15610a0d5761162461131d565b6001600160a01b0316816001600160a01b0316837ff6391f5c32d9c69d2a47ea670b442974b53935d1edc7fd64eb21e047a839171b60405160405180910390a45050565b60008080806116778686611a15565b9097909650945050505050565b6000611691848484611a90565b90505b9392505050565b6000610a33836001600160a01b038416611b5a565b80546001019055565b5490565b6001600160a01b038216611718576040805162461bcd60e51b815260206004820181905260248201527f4552433732313a206d696e7420746f20746865207a65726f2061646472657373604482015290519081900360640190fd5b61172181611310565b15611773576040805162461bcd60e51b815260206004820152601c60248201527f4552433732313a20746f6b656e20616c7265616479206d696e74656400000000604482015290519081900360640190fd5b61177f60008383610923565b6001600160a01b03821660009081526002602052604090206117a1908261197a565b506117ae60038284611986565b5060405181906001600160a01b038416906000907fddf252ad1be2c89b69c2b068fc378daa952ba7f163c4a11628f55a4df523b3ef908290a45050565b6117f684848461143e565b61180284848484611b72565b610fb05760405162461bcd60e51b81526004018080602001828103825260328152602001806120ae6032913960400191505060405180910390fd5b60608161186257506040805180820190915260018152600360fc1b6020820152610750565b8160005b811561187a57600101600a82049150611866565b60608167ffffffffffffffff8111801561189357600080fd5b506040519080825280601f01601f1916602001820160405280156118be576020820181803683370190505b50859350905060001982015b831561190f57600a840660300160f81b828280600190039350815181106118ed57fe5b60200101906001600160f81b031916908160001a905350600a840493506118ca565b50949350505050565b60006119248383611b5a565b61195a57508154600181810184556000848152602080822090930184905584548482528286019093526040902091909155610a36565b506000610a36565b6000610a338383611b5a565b6000610a338383611cda565b6000610a338383611918565b600061169184846001600160a01b038516611da0565b815460009082106119de5760405162461bcd60e51b815260040180806020018281038252602281526020018061205d6022913960400191505060405180910390fd5b8260000182815481106119ed57fe5b9060005260206000200154905092915050565b6000610a33836001600160a01b038416611cda565b815460009081908310611a595760405162461bcd60e51b81526004018080602001828103825260228152602001806121eb6022913960400191505060405180910390fd5b6000846000018481548110611a6a57fe5b906000526020600020906002020190508060000154816001015492509250509250929050565b60008281526001840160205260408120548281611b2b5760405162461bcd60e51b81526004018080602001828103825283818151815260200191508051906020019080838360005b83811015611af0578181015183820152602001611ad8565b50505050905090810190601f168015611b1d5780820380516001836020036101000a031916815260200191505b509250505060405180910390fd5b50846000016001820381548110611b3e57fe5b9060005260206000209060020201600101549150509392505050565b60009081526001919091016020526040902054151590565b6000611b86846001600160a01b0316611e37565b611b9257506001611436565b6060611ca0630a85bd0160e11b611ba761131d565b88878760405160240180856001600160a01b03168152602001846001600160a01b0316815260200183815260200180602001828103825283818151815260200191508051906020019080838360005b83811015611c0e578181015183820152602001611bf6565b50505050905090810190601f168015611c3b5780820380516001836020036101000a031916815260200191505b5095505050505050604051602081830303815290604052906001600160e01b0319166020820180516001600160e01b0383818316178352505050506040518060600160405280603281526020016120ae603291396001600160a01b0388169190611e3d565b90506000818060200190516020811015611cb957600080fd5b50516001600160e01b031916630a85bd0160e11b1492505050949350505050565b60008181526001830160205260408120548015611d965783546000198083019190810190600090879083908110611d0d57fe5b9060005260206000200154905080876000018481548110611d2a57fe5b600091825260208083209091019290925582815260018981019092526040902090840190558654879080611d5a57fe5b60019003818190600052602060002001600090559055866001016000878152602001908152602001600020600090556001945050505050610a36565b6000915050610a36565b600082815260018401602052604081205480611e05575050604080518082018252838152602080820184815286546001818101895560008981528481209551600290930290950191825591519082015586548684528188019092529290912055611694565b82856000016001830381548110611e1857fe5b9060005260206000209060020201600101819055506000915050611694565b3b151590565b6060611691848460008585611e5185611e37565b611ea2576040805162461bcd60e51b815260206004820152601d60248201527f416464726573733a2063616c6c20746f206e6f6e2d636f6e7472616374000000604482015290519081900360640190fd5b60006060866001600160a01b031685876040518082805190602001908083835b60208310611ee15780518252601f199092019160209182019101611ec2565b6001836020036101000a03801982511681845116808217855250505050505090500191505060006040518083038185875af1925050503d8060008114611f43576040519150601f19603f3d011682016040523d82523d6000602084013e611f48565b606091505b5091509150611f58828286611f63565b979650505050505050565b60608315611f72575081611694565b825115611f825782518084602001fd5b60405162461bcd60e51b8152602060048201818152845160248401528451859391928392604401919085019080838360008315611af0578181015183820152602001611ad8565b828054600181600116156101000203166002900490600052602060002090601f016020900481019282601f1061200a57805160ff1916838001178555612037565b82800160010185558215612037579182015b8281111561203757825182559160200191906001019061201c565b50612043929150612047565b5090565b5b80821115612043576000815560010161204856fe456e756d657261626c655365743a20696e646578206f7574206f6620626f756e6473416363657373436f6e74726f6c3a2073656e646572206d75737420626520616e2061646d696e20746f206772616e744552433732313a207472616e7366657220746f206e6f6e20455243373231526563656976657220696d706c656d656e7465724552433732313a207472616e7366657220746f20746865207a65726f20616464726573734552433732313a206f70657261746f7220717565727920666f72206e6f6e6578697374656e7420746f6b656e416363657373436f6e74726f6c3a2073656e646572206d75737420626520616e2061646d696e20746f207265766f6b654552433732313a20617070726f76652063616c6c6572206973206e6f74206f776e6572206e6f7220617070726f76656420666f7220616c6c4552433732313a2062616c616e636520717565727920666f7220746865207a65726f20616464726573734552433732313a206f776e657220717565727920666f72206e6f6e6578697374656e7420746f6b656e456e756d657261626c654d61703a20696e646578206f7574206f6620626f756e64734552433732313a20617070726f76656420717565727920666f72206e6f6e6578697374656e7420746f6b656e4552433732313a207472616e73666572206f6620746f6b656e2074686174206973206e6f74206f776e4552433732314d657461646174613a2055524920717565727920666f72206e6f6e6578697374656e7420746f6b656e4552433732313a20617070726f76616c20746f2063757272656e74206f776e65724552433732313a207472616e736665722063616c6c6572206973206e6f74206f776e6572206e6f7220617070726f7665644c277574656e7465206465766520617665726520696c2072756f6c6f206469206d696e7465722070657220706f746572206d696e61726521416363657373436f6e74726f6c3a2063616e206f6e6c792072656e6f756e636520726f6c657320666f722073656c66a264697066735822122015f158540b4ba93ad1b9adaf0390231bb3c439e1d7ec4d738e440f6127fe48a664736f6c634300060c00334f776e61626c653a206e6577206f776e657220697320746865207a65726f2061646472657373a2646970667358221220711bf9900771f23d9c75a277d0bffe8cfc543839da06520b148be1ff7789a7a564736f6c634300060c0033",
  "immutableReferences": {},
  "source": "// SPDX-License-Identifier: MIT\npragma solidity >=0.4.22 <0.9.0;\n\nimport \"@openzeppelin/contracts/access/Ownable.sol\";\nimport \"./Event.sol\";\n\ncontract EventFactory is Ownable {\n    \n    struct EventStruct {\n        uint eventID;            // id dell'evento\n        string eventName;       // Nome Evento\n        string eventSymbol;\n        uint256 ticketPrice;    // Prezzo dei ticket dell'evento\n        uint256 totalSupply;    // Numero di Ticket disponibili alla creazione\n        uint256 eventDate;      // Data di inizio dell'evento\n    }\n\n    address[] private eventList;    // Lista address degli eventi\n    mapping(address => EventStruct) private eventListMapping;\n\n    /* ===============================Functions=============================== */\n\n    // Get lista degli address degli eventi\n    function getEventList() public view returns (address[] memory) {\n        return eventList;\n    }\n\n    // Get dettagli evento\n    function getEventDetails(address eventAddress) public view returns (uint, string memory, uint256, uint256, uint256){\n        return (\n            eventListMapping[eventAddress].eventID,\n            eventListMapping[eventAddress].eventName,\n            eventListMapping[eventAddress].ticketPrice,\n            eventListMapping[eventAddress].totalSupply,\n            eventListMapping[eventAddress].eventDate\n        );\n    }\n\n    // Creazione nuovo evento\n    event Created(address ntfAddress);\n    function createNewEvent(string memory eventName, \n                            string memory eventSymbol,\n                            uint256 ticketPrice, \n                            uint256 totalSupply, \n                            uint256 eventDate) \n    public onlyOwner returns (address) {\n        \n        uint eventID = eventList.length + 1;\n\n        Event newEvent = new Event( \n            eventID,\n            eventName,\n            eventSymbol,\n            ticketPrice,\n            totalSupply,\n            eventDate,\n            msg.sender\n        );\n\n        address newEventAddress = address(newEvent);\n        eventList.push(newEventAddress);\n\n        eventListMapping[newEventAddress] = EventStruct({\n            eventID: eventID,\n            eventName: eventName,\n            eventSymbol: eventSymbol,\n            ticketPrice: ticketPrice,\n            totalSupply: totalSupply,\n            eventDate: eventDate\n        });\n\n        emit Created(newEventAddress);\n\n        return newEventAddress;\n    }\n\n}",
  "sourcePath": "/Users/edoardoconti/UNIVPM/SC/ticketing-system/contracts/EventFactory.sol",
  "compiler": {
    "name": "solc",
    "version": "0.6.12+commit.27d51765.Emscripten.clang"
  },
  "schemaVersion": "3.3.3",
  "updatedAt": "2021-10-12T20:55:03.017Z",
  "devdoc": {
    "kind": "dev",
    "methods": {
      "owner()": {
        "details": "Returns the address of the current owner."
      },
      "renounceOwnership()": {
        "details": "Leaves the contract without owner. It will not be possible to call `onlyOwner` functions anymore. Can only be called by the current owner. NOTE: Renouncing ownership will leave the contract without an owner, thereby removing any functionality that is only available to the owner."
      },
      "transferOwnership(address)": {
        "details": "Transfers ownership of the contract to a new account (`newOwner`). Can only be called by the current owner."
      }
    },
    "version": 1
  },
  "userdoc": {
    "kind": "user",
    "methods": {},
    "version": 1
  }
}