{
  "contractName": "EventFactory",
  "abi": [
    {
      "inputs": [
        {
          "internalType": "address",
          "name": "organizer",
          "type": "address"
        },
        {
          "internalType": "address",
          "name": "reseller",
          "type": "address"
        }
      ],
      "stateMutability": "nonpayable",
      "type": "constructor"
    },
    {
      "anonymous": false,
      "inputs": [
        {
          "indexed": false,
          "internalType": "address",
          "name": "eventAddress",
          "type": "address"
        }
      ],
      "name": "Created",
      "type": "event"
    },
    {
      "anonymous": false,
      "inputs": [
        {
          "indexed": true,
          "internalType": "address",
          "name": "previousOwner",
          "type": "address"
        },
        {
          "indexed": true,
          "internalType": "address",
          "name": "newOwner",
          "type": "address"
        }
      ],
      "name": "OwnershipTransferred",
      "type": "event"
    },
    {
      "anonymous": false,
      "inputs": [
        {
          "indexed": true,
          "internalType": "bytes32",
          "name": "role",
          "type": "bytes32"
        },
        {
          "indexed": true,
          "internalType": "bytes32",
          "name": "previousAdminRole",
          "type": "bytes32"
        },
        {
          "indexed": true,
          "internalType": "bytes32",
          "name": "newAdminRole",
          "type": "bytes32"
        }
      ],
      "name": "RoleAdminChanged",
      "type": "event"
    },
    {
      "anonymous": false,
      "inputs": [
        {
          "indexed": true,
          "internalType": "bytes32",
          "name": "role",
          "type": "bytes32"
        },
        {
          "indexed": true,
          "internalType": "address",
          "name": "account",
          "type": "address"
        },
        {
          "indexed": true,
          "internalType": "address",
          "name": "sender",
          "type": "address"
        }
      ],
      "name": "RoleGranted",
      "type": "event"
    },
    {
      "anonymous": false,
      "inputs": [
        {
          "indexed": true,
          "internalType": "bytes32",
          "name": "role",
          "type": "bytes32"
        },
        {
          "indexed": true,
          "internalType": "address",
          "name": "account",
          "type": "address"
        },
        {
          "indexed": true,
          "internalType": "address",
          "name": "sender",
          "type": "address"
        }
      ],
      "name": "RoleRevoked",
      "type": "event"
    },
    {
      "inputs": [],
      "name": "DEFAULT_ADMIN_ROLE",
      "outputs": [
        {
          "internalType": "bytes32",
          "name": "",
          "type": "bytes32"
        }
      ],
      "stateMutability": "view",
      "type": "function"
    },
    {
      "inputs": [],
      "name": "MINTER_ROLE",
      "outputs": [
        {
          "internalType": "bytes32",
          "name": "",
          "type": "bytes32"
        }
      ],
      "stateMutability": "view",
      "type": "function"
    },
    {
      "inputs": [],
      "name": "ORGANIZER_ROLE",
      "outputs": [
        {
          "internalType": "bytes32",
          "name": "",
          "type": "bytes32"
        }
      ],
      "stateMutability": "view",
      "type": "function"
    },
    {
      "inputs": [
        {
          "internalType": "bytes32",
          "name": "role",
          "type": "bytes32"
        }
      ],
      "name": "getRoleAdmin",
      "outputs": [
        {
          "internalType": "bytes32",
          "name": "",
          "type": "bytes32"
        }
      ],
      "stateMutability": "view",
      "type": "function"
    },
    {
      "inputs": [
        {
          "internalType": "bytes32",
          "name": "role",
          "type": "bytes32"
        },
        {
          "internalType": "uint256",
          "name": "index",
          "type": "uint256"
        }
      ],
      "name": "getRoleMember",
      "outputs": [
        {
          "internalType": "address",
          "name": "",
          "type": "address"
        }
      ],
      "stateMutability": "view",
      "type": "function"
    },
    {
      "inputs": [
        {
          "internalType": "bytes32",
          "name": "role",
          "type": "bytes32"
        }
      ],
      "name": "getRoleMemberCount",
      "outputs": [
        {
          "internalType": "uint256",
          "name": "",
          "type": "uint256"
        }
      ],
      "stateMutability": "view",
      "type": "function"
    },
    {
      "inputs": [
        {
          "internalType": "bytes32",
          "name": "role",
          "type": "bytes32"
        },
        {
          "internalType": "address",
          "name": "account",
          "type": "address"
        }
      ],
      "name": "grantRole",
      "outputs": [],
      "stateMutability": "nonpayable",
      "type": "function"
    },
    {
      "inputs": [
        {
          "internalType": "bytes32",
          "name": "role",
          "type": "bytes32"
        },
        {
          "internalType": "address",
          "name": "account",
          "type": "address"
        }
      ],
      "name": "hasRole",
      "outputs": [
        {
          "internalType": "bool",
          "name": "",
          "type": "bool"
        }
      ],
      "stateMutability": "view",
      "type": "function"
    },
    {
      "inputs": [],
      "name": "owner",
      "outputs": [
        {
          "internalType": "address",
          "name": "",
          "type": "address"
        }
      ],
      "stateMutability": "view",
      "type": "function"
    },
    {
      "inputs": [],
      "name": "renounceOwnership",
      "outputs": [],
      "stateMutability": "nonpayable",
      "type": "function"
    },
    {
      "inputs": [
        {
          "internalType": "bytes32",
          "name": "role",
          "type": "bytes32"
        },
        {
          "internalType": "address",
          "name": "account",
          "type": "address"
        }
      ],
      "name": "renounceRole",
      "outputs": [],
      "stateMutability": "nonpayable",
      "type": "function"
    },
    {
      "inputs": [
        {
          "internalType": "bytes32",
          "name": "role",
          "type": "bytes32"
        },
        {
          "internalType": "address",
          "name": "account",
          "type": "address"
        }
      ],
      "name": "revokeRole",
      "outputs": [],
      "stateMutability": "nonpayable",
      "type": "function"
    },
    {
      "inputs": [
        {
          "internalType": "address",
          "name": "newOwner",
          "type": "address"
        }
      ],
      "name": "transferOwnership",
      "outputs": [],
      "stateMutability": "nonpayable",
      "type": "function"
    },
    {
      "inputs": [],
      "name": "getEventList",
      "outputs": [
        {
          "internalType": "address[]",
          "name": "",
          "type": "address[]"
        }
      ],
      "stateMutability": "view",
      "type": "function"
    },
    {
      "inputs": [
        {
          "internalType": "address",
          "name": "eventAddress",
          "type": "address"
        }
      ],
      "name": "getEventDetails",
      "outputs": [
        {
          "internalType": "uint256",
          "name": "",
          "type": "uint256"
        },
        {
          "internalType": "string",
          "name": "",
          "type": "string"
        },
        {
          "internalType": "string",
          "name": "",
          "type": "string"
        },
        {
          "internalType": "uint256",
          "name": "",
          "type": "uint256"
        },
        {
          "internalType": "uint256",
          "name": "",
          "type": "uint256"
        },
        {
          "internalType": "uint256",
          "name": "",
          "type": "uint256"
        }
      ],
      "stateMutability": "view",
      "type": "function"
    },
    {
      "inputs": [
        {
          "internalType": "string",
          "name": "eventName",
          "type": "string"
        },
        {
          "internalType": "string",
          "name": "eventSymbol",
          "type": "string"
        },
        {
          "internalType": "uint256",
          "name": "ticketPrice",
          "type": "uint256"
        },
        {
          "internalType": "uint256",
          "name": "totalSupply",
          "type": "uint256"
        },
        {
          "internalType": "uint256",
          "name": "eventDate",
          "type": "uint256"
        }
      ],
      "name": "createNewEvent",
      "outputs": [
        {
          "internalType": "address",
          "name": "",
          "type": "address"
        }
      ],
      "stateMutability": "nonpayable",
      "type": "function"
    }
  ],
  "bytecode": "0x60806040523480156200001157600080fd5b5060405162003e9e38038062003e9e833981810160405260408110156200003757600080fd5b50805160209091015160006200004c620000f6565b600080546001600160a01b0319166001600160a01b0383169081178255604051929350917f8be0079c531659141344cd1fd0a4f28419497f9722a3daafe3b4186f6b6457e0908290a350620000c27f4d2e7a1e3f5dd6e203f087b15756ccf0e4ccd947fe1b639a38540089a1e47f6383620000fa565b620000ee7f9f2df0fed2c77648de5860a4cc508cd0818c85b8b8a1ab4ceeef8d981c8956a682620000fa565b50506200020c565b3390565b6200010682826200010a565b5050565b60008281526001602090815260409091206200013191839062000ec462000185821b17901c565b15620001065762000141620000f6565b6001600160a01b0316816001600160a01b0316837f2f8788117e7eff1d82e926ec794901d17c78024a50270940304540a733656f0d60405160405180910390a45050565b60006200019c836001600160a01b038416620001a5565b90505b92915050565b6000620001b38383620001f4565b620001eb575081546001818101845560008481526020808220909301849055845484825282860190935260409020919091556200019f565b5060006200019f565b60009081526001919091016020526040902054151590565b613c82806200021c6000396000f3fe60806040523480156200001157600080fd5b5060043610620001185760003560e01c80639010d07c11620000a5578063d43f036b116200006f578063d43f036b1462000419578063d53913931462000542578063d547741f146200054c578063f2fde38b146200057b5762000118565b80639010d07c146200038657806391d1485414620003ac578063a217fddf14620003ef578063ca15c87314620003f95762000118565b806336568abe11620000e757806336568abe1462000339578063715018a614620003685780637909cb5914620003725780638da5cb5b146200037c5762000118565b80631db06949146200011d578063248a9ca314620001795780632eb15efb14620001ab5780632f2ff15d1462000308575b600080fd5b62000127620005a4565b60408051602080825283518183015283519192839290830191858101910280838360005b83811015620001655781810151838201526020016200014b565b505050509050019250505060405180910390f35b62000199600480360360208110156200019157600080fd5b503562000608565b60408051918252519081900360200190f35b620002ec600480360360a0811015620001c357600080fd5b810190602081018135640100000000811115620001df57600080fd5b820183602082011115620001f257600080fd5b803590602001918460018302840111640100000000831117156200021557600080fd5b91908080601f01602080910402602001604051908101604052809392919081815260200183838082843760009201919091525092959493602081019350359150506401000000008111156200026957600080fd5b8201836020820111156200027c57600080fd5b803590602001918460018302840111640100000000831117156200029f57600080fd5b91908080601f01602080910402602001604051908101604052809392919081815260200183838082843760009201919091525092955050823593505050602081013590604001356200061d565b604080516001600160a01b039092168252519081900360200190f35b62000337600480360360408110156200032057600080fd5b50803590602001356001600160a01b031662000984565b005b62000337600480360360408110156200035157600080fd5b50803590602001356001600160a01b0316620009f8565b6200033762000a5f565b6200019962000b22565b620002ec62000b46565b620002ec600480360360408110156200039e57600080fd5b508035906020013562000b55565b620003db60048036036040811015620003c457600080fd5b50803590602001356001600160a01b031662000b78565b604080519115158252519081900360200190f35b6200019962000b92565b62000199600480360360208110156200041157600080fd5b503562000b97565b62000442600480360360208110156200043157600080fd5b50356001600160a01b031662000bb0565b604051808781526020018060200180602001868152602001858152602001848152602001838103835288818151815260200191508051906020019080838360005b838110156200049d57818101518382015260200162000483565b50505050905090810190601f168015620004cb5780820380516001836020036101000a031916815260200191505b50838103825287518152875160209182019189019080838360005b8381101562000500578181015183820152602001620004e6565b50505050905090810190601f1680156200052e5780820380516001836020036101000a031916815260200191505b509850505050505050505060405180910390f35b6200019962000d27565b62000337600480360360408110156200056457600080fd5b50803590602001356001600160a01b031662000d4b565b62000337600480360360208110156200059357600080fd5b50356001600160a01b031662000da9565b60606002805480602002602001604051908101604052809291908181526020018280548015620005fe57602002820191906000526020600020905b81546001600160a01b03168152600190910190602001808311620005df575b5050505050905090565b60009081526001602052604090206002015490565b60006200062962000edb565b6001600160a01b03166200063c62000b46565b6001600160a01b03161462000698576040805162461bcd60e51b815260206004820181905260248201527f4f776e61626c653a2063616c6c6572206973206e6f7420746865206f776e6572604482015290519081900360640190fd5b620006c47f4d2e7a1e3f5dd6e203f087b15756ccf0e4ccd947fe1b639a38540089a1e47f633362000b78565b6200070e576040805162461bcd60e51b815260206004820152601560248201527410d85b1b195c881a5cc81b9bdd08185b1b1bddd959605a1b604482015290519081900360640190fd5b600060028054905060010190506000818888888888336040516200073290620011a2565b808881526020018060200180602001878152602001868152602001858152602001846001600160a01b03168152602001838103835289818151815260200191508051906020019080838360005b83811015620007995781810151838201526020016200077f565b50505050905090810190601f168015620007c75780820380516001836020036101000a031916815260200191505b5083810382528851815288516020918201918a019080838360005b83811015620007fc578181015183820152602001620007e2565b50505050905090810190601f1680156200082a5780820380516001836020036101000a031916815260200191505b509950505050505050505050604051809103906000f08015801562000853573d6000803e3d6000fd5b506002805460018082019092557f405787fa12a823e0f2b7631cc41b3ba8828b3321ca811111fa75cd3aa3bb5ace0180546001600160a01b0319166001600160a01b0384169081179091556040805160c08101825286815260208082018e81528284018e9052606083018d9052608083018c905260a083018b9052600094855260038252929093208151815591518051959650869591949293620008fd93850192910190620011b0565b50604082015180516200091b916002840191602090910190620011b0565b50606082015160038201556080820151600482015560a090910151600590910155604080516001600160a01b038316815290517f1449abf21e49fd025f33495e77f7b1461caefdd3d4bb646424a3f445c4576a5b9181900360200190a198975050505050505050565b600082815260016020526040902060020154620009ab90620009a562000edb565b62000b78565b620009e85760405162461bcd60e51b815260040180806020018281038252602f81526020018062003b99602f913960400191505060405180910390fd5b620009f4828262000edf565b5050565b62000a0262000edb565b6001600160a01b0316816001600160a01b03161462000a535760405162461bcd60e51b815260040180806020018281038252602f81526020018062003c1e602f913960400191505060405180910390fd5b620009f4828262000f4d565b62000a6962000edb565b6001600160a01b031662000a7c62000b46565b6001600160a01b03161462000ad8576040805162461bcd60e51b815260206004820181905260248201527f4f776e61626c653a2063616c6c6572206973206e6f7420746865206f776e6572604482015290519081900360640190fd5b600080546040516001600160a01b03909116907f8be0079c531659141344cd1fd0a4f28419497f9722a3daafe3b4186f6b6457e0908390a3600080546001600160a01b0319169055565b7f4d2e7a1e3f5dd6e203f087b15756ccf0e4ccd947fe1b639a38540089a1e47f6381565b6000546001600160a01b031690565b600082815260016020526040812062000b6f908362000fbb565b90505b92915050565b600082815260016020526040812062000b6f908362000fc9565b600081565b600081815260016020526040812062000b729062000fe0565b6001600160a01b0381166000908152600360208181526040808420805493810154600482015460058301546001808501805487516002938216156101000260001901909116839004601f81018a90048a0282018a019098528781526060998a998c998a998a99939895979601959294939187919083018282801562000c795780601f1062000c4d5761010080835404028352916020019162000c79565b820191906000526020600020905b81548152906001019060200180831162000c5b57829003601f168201915b5050875460408051602060026001851615610100026000190190941693909304601f8101849004840282018401909252818152959a508994509250840190508282801562000d0b5780601f1062000cdf5761010080835404028352916020019162000d0b565b820191906000526020600020905b81548152906001019060200180831162000ced57829003601f168201915b5050505050935095509550955095509550955091939550919395565b7f9f2df0fed2c77648de5860a4cc508cd0818c85b8b8a1ab4ceeef8d981c8956a681565b60008281526001602052604090206002015462000d6c90620009a562000edb565b62000a535760405162461bcd60e51b815260040180806020018281038252603081526020018062003bee6030913960400191505060405180910390fd5b62000db362000edb565b6001600160a01b031662000dc662000b46565b6001600160a01b03161462000e22576040805162461bcd60e51b815260206004820181905260248201527f4f776e61626c653a2063616c6c6572206973206e6f7420746865206f776e6572604482015290519081900360640190fd5b6001600160a01b03811662000e695760405162461bcd60e51b815260040180806020018281038252602681526020018062003bc86026913960400191505060405180910390fd5b600080546040516001600160a01b03808516939216917f8be0079c531659141344cd1fd0a4f28419497f9722a3daafe3b4186f6b6457e091a3600080546001600160a01b0319166001600160a01b0392909216919091179055565b600062000b6f836001600160a01b03841662000fed565b3390565b600082815260016020526040902062000ef9908262000ec4565b15620009f45762000f0962000edb565b6001600160a01b0316816001600160a01b0316837f2f8788117e7eff1d82e926ec794901d17c78024a50270940304540a733656f0d60405160405180910390a45050565b600082815260016020526040902062000f6790826200103c565b15620009f45762000f7762000edb565b6001600160a01b0316816001600160a01b0316837ff6391f5c32d9c69d2a47ea670b442974b53935d1edc7fd64eb21e047a839171b60405160405180910390a45050565b600062000b6f838362001053565b600062000b6f836001600160a01b038416620010ba565b600062000b7282620010d2565b600062000ffb8383620010ba565b620010335750815460018181018455600084815260208082209093018490558454848252828601909352604090209190915562000b72565b50600062000b72565b600062000b6f836001600160a01b038416620010d6565b81546000908210620010975760405162461bcd60e51b815260040180806020018281038252602281526020018062003b776022913960400191505060405180910390fd5b826000018281548110620010a757fe5b9060005260206000200154905092915050565b60009081526001919091016020526040902054151590565b5490565b600081815260018301602052604081205480156200119757835460001980830191908101906000908790839081106200110b57fe5b90600052602060002001549050808760000184815481106200112957fe5b6000918252602080832090910192909255828152600189810190925260409020908401905586548790806200115a57fe5b6001900381819060005260206000200160009055905586600101600087815260200190815260200160002060009055600194505050505062000b72565b600091505062000b72565b61292a806200124d83390190565b828054600181600116156101000203166002900490600052602060002090601f016020900481019282601f10620011f357805160ff191683800117855562001223565b8280016001018555821562001223579182015b828111156200122357825182559160200191906001019062001206565b506200123192915062001235565b5090565b5b808211156200123157600081556001016200123656fe60806040523480156200001157600080fd5b506040516200292a3803806200292a833981810160405260e08110156200003757600080fd5b8151602083018051604051929492938301929190846401000000008211156200005f57600080fd5b9083019060208201858111156200007557600080fd5b82516401000000008111828201881017156200009057600080fd5b82525081516020918201929091019080838360005b83811015620000bf578181015183820152602001620000a5565b50505050905090810190601f168015620000ed5780820380516001836020036101000a031916815260200191505b50604052602001805160405193929190846401000000008211156200011157600080fd5b9083019060208201858111156200012757600080fd5b82516401000000008111828201881017156200014257600080fd5b82525081516020918201929091019080838360005b838110156200017157818101518382015260200162000157565b50505050905090810190601f1680156200019f5780820380516001836020036101000a031916815260200191505b506040908152602082015190820151606083015160809093015191945092508585620001eb7f01ffc9a70000000000000000000000000000000000000000000000000000000062000300565b815162000200906007906020850190620004e6565b50805162000216906008906020840190620004e6565b50620002427f80ac58cd0000000000000000000000000000000000000000000000000000000062000300565b6200026d7f5b5e139f0000000000000000000000000000000000000000000000000000000062000300565b620002987f780e9d630000000000000000000000000000000000000000000000000000000062000300565b50620002c790507f9f2df0fed2c77648de5860a4cc508cd0818c85b8b8a1ab4ceeef8d981c8956a682620003d2565b600c96909655600d92909255600e55600f555050601080546001600160a01b0319166001600160a01b0390921691909117905562000582565b7fffffffff0000000000000000000000000000000000000000000000000000000080821614156200039257604080517f08c379a000000000000000000000000000000000000000000000000000000000815260206004820152601c60248201527f4552433136353a20696e76616c696420696e7465726661636520696400000000604482015290519081900360640190fd5b7fffffffff00000000000000000000000000000000000000000000000000000000166000908152600160208190526040909120805460ff19169091179055565b620003de8282620003e2565b5050565b60008281526020818152604090912062000407918390620013146200045b821b17901c565b15620003de57620004176200047b565b6001600160a01b0316816001600160a01b0316837f2f8788117e7eff1d82e926ec794901d17c78024a50270940304540a733656f0d60405160405180910390a45050565b600062000472836001600160a01b0384166200047f565b90505b92915050565b3390565b60006200048d8383620004ce565b620004c55750815460018181018455600084815260208082209093018490558454848252828601909352604090209190915562000475565b50600062000475565b60009081526001919091016020526040902054151590565b828054600181600116156101000203166002900490600052602060002090601f016020900481019282601f106200052957805160ff191683800117855562000559565b8280016001018555821562000559579182015b82811115620005595782518255916020019190600101906200053c565b50620005679291506200056b565b5090565b5b808211156200056757600081556001016200056c565b61239880620005926000396000f3fe608060405234801561001057600080fd5b50600436106101da5760003560e01c806370a0823111610104578063a58b1571116100a2578063ca15c87311610071578063ca15c873146106c6578063d5391393146106e3578063d547741f146106eb578063e985e9c514610717576101da565b8063a58b15711461053f578063b632c9e41461056d578063b88d4fde146105e3578063c87b56dd146106a9576101da565b806391d14854116100de57806391d14854146104d557806395d89b4114610501578063a217fddf14610509578063a22cb46514610511576101da565b806370a082311461048457806387bb7ae0146104aa5780639010d07c146104b2576101da565b80632f2ff15d1161017c5780634f6ccce71161014b5780634f6ccce7146104255780636352211e146104425780636482db3f1461045f5780636c0360eb1461047c576101da565b80632f2ff15d1461036b5780632f745c591461039757806336568abe146103c357806342842e0e146103ef576101da565b8063095ea7b3116101b8578063095ea7b3146102d057806318160ddd146102fe57806323b872dd14610318578063248a9ca31461034e576101da565b806301ffc9a7146101df57806306fdde031461021a578063081812fc14610297575b600080fd5b610206600480360360208110156101f557600080fd5b50356001600160e01b031916610745565b604080519115158252519081900360200190f35b610222610768565b6040805160208082528351818301528351919283929083019185019080838360005b8381101561025c578181015183820152602001610244565b50505050905090810190601f1680156102895780820380516001836020036101000a031916815260200191505b509250505060405180910390f35b6102b4600480360360208110156102ad57600080fd5b50356107fe565b604080516001600160a01b039092168252519081900360200190f35b6102fc600480360360408110156102e657600080fd5b506001600160a01b038135169060200135610860565b005b61030661093b565b60408051918252519081900360200190f35b6102fc6004803603606081101561032e57600080fd5b506001600160a01b0381358116916020810135909116906040013561094c565b6103066004803603602081101561036457600080fd5b50356109a3565b6102fc6004803603604081101561038157600080fd5b50803590602001356001600160a01b03166109b8565b610306600480360360408110156103ad57600080fd5b506001600160a01b038135169060200135610a24565b6102fc600480360360408110156103d957600080fd5b50803590602001356001600160a01b0316610a4f565b6102fc6004803603606081101561040557600080fd5b506001600160a01b03813581169160208101359091169060400135610ab0565b6103066004803603602081101561043b57600080fd5b5035610acb565b6102b46004803603602081101561045857600080fd5b5035610ae1565b6102226004803603602081101561047557600080fd5b5035610b09565b610222610baa565b6103066004803603602081101561049a57600080fd5b50356001600160a01b0316610c0b565b610306610c73565b6102b4600480360360408110156104c857600080fd5b5080359060200135610c79565b610206600480360360408110156104eb57600080fd5b50803590602001356001600160a01b0316610c91565b610222610ca9565b610306610d0a565b6102fc6004803603604081101561052757600080fd5b506001600160a01b0381351690602001351515610d0f565b6102066004803603604081101561055557600080fd5b506001600160a01b0381358116916020013516610e14565b6105936004803603602081101561058357600080fd5b50356001600160a01b0316610f06565b60408051602080825283518183015283519192839290830191858101910280838360005b838110156105cf5781810151838201526020016105b7565b505050509050019250505060405180910390f35b6102fc600480360360808110156105f957600080fd5b6001600160a01b0382358116926020810135909116916040820135919081019060808101606082013564010000000081111561063457600080fd5b82018360208201111561064657600080fd5b8035906020019184600183028401116401000000008311171561066857600080fd5b91908080601f016020809104026020016040519081016040528093929190818152602001838380828437600092019190915250929550610f71945050505050565b610222600480360360208110156106bf57600080fd5b5035610fcf565b610306600480360360208110156106dc57600080fd5b5035611252565b610306611269565b6102fc6004803603604081101561070157600080fd5b50803590602001356001600160a01b031661128d565b6102066004803603604081101561072d57600080fd5b506001600160a01b03813581169160200135166112e6565b6001600160e01b0319811660009081526001602052604090205460ff165b919050565b60078054604080516020601f60026000196101006001881615020190951694909404938401819004810282018101909252828152606093909290918301828280156107f45780601f106107c9576101008083540402835291602001916107f4565b820191906000526020600020905b8154815290600101906020018083116107d757829003601f168201915b5050505050905090565b600061080982611329565b6108445760405162461bcd60e51b815260040180806020018281038252602c815260200180612226602c913960400191505060405180910390fd5b506000908152600560205260409020546001600160a01b031690565b600061086b82610ae1565b9050806001600160a01b0316836001600160a01b031614156108be5760405162461bcd60e51b81526004018080602001828103825260218152602001806122aa6021913960400191505060405180910390fd5b806001600160a01b03166108d0611336565b6001600160a01b031614806108f157506108f1816108ec611336565b6112e6565b61092c5760405162461bcd60e51b81526004018080602001828103825260388152602001806121796038913960400191505060405180910390fd5b610936838361133a565b505050565b600061094760036113a8565b905090565b61095d610957611336565b826113b3565b6109985760405162461bcd60e51b81526004018080602001828103825260318152602001806122cb6031913960400191505060405180910390fd5b610936838383611457565b60009081526020819052604090206002015490565b6000828152602081905260409020600201546109db906109d6611336565b610c91565b610a165760405162461bcd60e51b815260040180806020018281038252602f815260200180612098602f913960400191505060405180910390fd5b610a2082826115a3565b5050565b6001600160a01b0382166000908152600260205260408120610a46908361160c565b90505b92915050565b610a57611336565b6001600160a01b0316816001600160a01b031614610aa65760405162461bcd60e51b815260040180806020018281038252602f815260200180612334602f913960400191505060405180910390fd5b610a208282611618565b61093683838360405180602001604052806000815250610f71565b600080610ad9600384611681565b509392505050565b6000610a49826040518060600160405280602981526020016121db602991396003919061169d565b60008181526012602090815260409182902080548351601f6002600019610100600186161502019093169290920491820184900484028101840190945280845260609392830182828015610b9e5780601f10610b7357610100808354040283529160200191610b9e565b820191906000526020600020905b815481529060010190602001808311610b8157829003601f168201915b50505050509050919050565b600a8054604080516020601f60026000196101006001881615020190951694909404938401819004810282018101909252828152606093909290918301828280156107f45780601f106107c9576101008083540402835291602001916107f4565b60006001600160a01b038216610c525760405162461bcd60e51b815260040180806020018281038252602a8152602001806121b1602a913960400191505060405180910390fd5b6001600160a01b0382166000908152600260205260409020610a49906113a8565b600d5490565b6000828152602081905260408120610a46908361160c565b6000828152602081905260408120610a4690836116b4565b60088054604080516020601f60026000196101006001881615020190951694909404938401819004810282018101909252828152606093909290918301828280156107f45780601f106107c9576101008083540402835291602001916107f4565b600081565b610d17611336565b6001600160a01b0316826001600160a01b03161415610d7d576040805162461bcd60e51b815260206004820152601960248201527f4552433732313a20617070726f766520746f2063616c6c657200000000000000604482015290519081900360640190fd5b8060066000610d8a611336565b6001600160a01b03908116825260208083019390935260409182016000908120918716808252919093529120805460ff191692151592909217909155610dce611336565b6001600160a01b03167f17307eab39ab6107e8899845ad3d59bd9653f200f220920489ca2b5937696c318360405180821515815260200191505060405180910390a35050565b6000610e427f9f2df0fed2c77648de5860a4cc508cd0818c85b8b8a1ab4ceeef8d981c8956a66109d6611336565b610e7d5760405162461bcd60e51b81526004018080602001828103825260388152602001806122fc6038913960400191505060405180910390fd5b610e87600b6116c9565b6000610e93600b6116d2565b9050610e9f84826116d6565b604080516060810182526005602080830191825264189d5e595960da1b83850152908252600084815260128252929092208151805192939192610ee59284920190611fe2565b50905050610efc610ef582610ae1565b848361094c565b5060019392505050565b6001600160a01b038116600090815260136020908152604091829020805483518184028101840190945280845260609392830182828015610b9e57602002820191906000526020600020905b815481526020019060010190808311610f525750505050509050919050565b610f82610f7c611336565b836113b3565b610fbd5760405162461bcd60e51b81526004018080602001828103825260318152602001806122cb6031913960400191505060405180910390fd5b610fc984848484611804565b50505050565b6060610fda82611329565b6110155760405162461bcd60e51b815260040180806020018281038252602f81526020018061227b602f913960400191505060405180910390fd5b60008281526009602090815260409182902080548351601f60026000196101006001861615020190931692909204918201849004840281018401909452808452606093928301828280156110aa5780601f1061107f576101008083540402835291602001916110aa565b820191906000526020600020905b81548152906001019060200180831161108d57829003601f168201915b5050505050905060606110bb610baa565b90508051600014156110cf57509050610763565b8151156111905780826040516020018083805190602001908083835b6020831061110a5780518252601f1990920191602091820191016110eb565b51815160209384036101000a600019018019909216911617905285519190930192850191508083835b602083106111525780518252601f199092019160209182019101611133565b6001836020036101000a0380198251168184511680821785525050505050509050019250505060405160208183030381529060405292505050610763565b8061119a85611856565b6040516020018083805190602001908083835b602083106111cc5780518252601f1990920191602091820191016111ad565b51815160209384036101000a600019018019909216911617905285519190930192850191508083835b602083106112145780518252601f1990920191602091820191016111f5565b6001836020036101000a0380198251168184511680821785525050505050509050019250505060405160208183030381529060405292505050919050565b6000818152602081905260408120610a49906113a8565b7f9f2df0fed2c77648de5860a4cc508cd0818c85b8b8a1ab4ceeef8d981c8956a681565b6000828152602081905260409020600201546112ab906109d6611336565b610aa65760405162461bcd60e51b81526004018080602001828103825260308152602001806121496030913960400191505060405180910390fd5b6001600160a01b03918216600090815260066020908152604080832093909416825291909152205460ff1690565b6000610a46836001600160a01b038416611931565b6000610a4960038361197b565b3390565b600081815260056020526040902080546001600160a01b0319166001600160a01b038416908117909155819061136f82610ae1565b6001600160a01b03167f8c5be1e5ebec7d5bd14f71427d1e84f3dd0314c0f7b2291e5b200ac8c7c3b92560405160405180910390a45050565b6000610a49826116d2565b60006113be82611329565b6113f95760405162461bcd60e51b815260040180806020018281038252602c81526020018061211d602c913960400191505060405180910390fd5b600061140483610ae1565b9050806001600160a01b0316846001600160a01b0316148061143f5750836001600160a01b0316611434846107fe565b6001600160a01b0316145b8061144f575061144f81856112e6565b949350505050565b826001600160a01b031661146a82610ae1565b6001600160a01b0316146114af5760405162461bcd60e51b81526004018080602001828103825260298152602001806122526029913960400191505060405180910390fd5b6001600160a01b0382166114f45760405162461bcd60e51b81526004018080602001828103825260248152602001806120f96024913960400191505060405180910390fd5b6114ff838383610936565b61150a60008261133a565b6001600160a01b038316600090815260026020526040902061152c9082611987565b506001600160a01b038216600090815260026020526040902061154f9082611993565b5061155c6003828461199f565b5080826001600160a01b0316846001600160a01b03167fddf252ad1be2c89b69c2b068fc378daa952ba7f163c4a11628f55a4df523b3ef60405160405180910390a4505050565b60008281526020819052604090206115bb9082611314565b15610a20576115c8611336565b6001600160a01b0316816001600160a01b0316837f2f8788117e7eff1d82e926ec794901d17c78024a50270940304540a733656f0d60405160405180910390a45050565b6000610a4683836119b5565b60008281526020819052604090206116309082611a19565b15610a205761163d611336565b6001600160a01b0316816001600160a01b0316837ff6391f5c32d9c69d2a47ea670b442974b53935d1edc7fd64eb21e047a839171b60405160405180910390a45050565b60008080806116908686611a2e565b9097909650945050505050565b60006116aa848484611aa9565b90505b9392505050565b6000610a46836001600160a01b038416611b73565b80546001019055565b5490565b6001600160a01b038216611731576040805162461bcd60e51b815260206004820181905260248201527f4552433732313a206d696e7420746f20746865207a65726f2061646472657373604482015290519081900360640190fd5b61173a81611329565b1561178c576040805162461bcd60e51b815260206004820152601c60248201527f4552433732313a20746f6b656e20616c7265616479206d696e74656400000000604482015290519081900360640190fd5b61179860008383610936565b6001600160a01b03821660009081526002602052604090206117ba9082611993565b506117c76003828461199f565b5060405181906001600160a01b038416906000907fddf252ad1be2c89b69c2b068fc378daa952ba7f163c4a11628f55a4df523b3ef908290a45050565b61180f848484611457565b61181b84848484611b8b565b610fc95760405162461bcd60e51b81526004018080602001828103825260328152602001806120c76032913960400191505060405180910390fd5b60608161187b57506040805180820190915260018152600360fc1b6020820152610763565b8160005b811561189357600101600a8204915061187f565b60608167ffffffffffffffff811180156118ac57600080fd5b506040519080825280601f01601f1916602001820160405280156118d7576020820181803683370190505b50859350905060001982015b831561192857600a840660300160f81b8282806001900393508151811061190657fe5b60200101906001600160f81b031916908160001a905350600a840493506118e3565b50949350505050565b600061193d8383611b73565b61197357508154600181810184556000848152602080822090930184905584548482528286019093526040902091909155610a49565b506000610a49565b6000610a468383611b73565b6000610a468383611cf3565b6000610a468383611931565b60006116aa84846001600160a01b038516611db9565b815460009082106119f75760405162461bcd60e51b81526004018080602001828103825260228152602001806120766022913960400191505060405180910390fd5b826000018281548110611a0657fe5b9060005260206000200154905092915050565b6000610a46836001600160a01b038416611cf3565b815460009081908310611a725760405162461bcd60e51b81526004018080602001828103825260228152602001806122046022913960400191505060405180910390fd5b6000846000018481548110611a8357fe5b906000526020600020906002020190508060000154816001015492509250509250929050565b60008281526001840160205260408120548281611b445760405162461bcd60e51b81526004018080602001828103825283818151815260200191508051906020019080838360005b83811015611b09578181015183820152602001611af1565b50505050905090810190601f168015611b365780820380516001836020036101000a031916815260200191505b509250505060405180910390fd5b50846000016001820381548110611b5757fe5b9060005260206000209060020201600101549150509392505050565b60009081526001919091016020526040902054151590565b6000611b9f846001600160a01b0316611e50565b611bab5750600161144f565b6060611cb9630a85bd0160e11b611bc0611336565b88878760405160240180856001600160a01b03168152602001846001600160a01b0316815260200183815260200180602001828103825283818151815260200191508051906020019080838360005b83811015611c27578181015183820152602001611c0f565b50505050905090810190601f168015611c545780820380516001836020036101000a031916815260200191505b5095505050505050604051602081830303815290604052906001600160e01b0319166020820180516001600160e01b0383818316178352505050506040518060600160405280603281526020016120c7603291396001600160a01b0388169190611e56565b90506000818060200190516020811015611cd257600080fd5b50516001600160e01b031916630a85bd0160e11b1492505050949350505050565b60008181526001830160205260408120548015611daf5783546000198083019190810190600090879083908110611d2657fe5b9060005260206000200154905080876000018481548110611d4357fe5b600091825260208083209091019290925582815260018981019092526040902090840190558654879080611d7357fe5b60019003818190600052602060002001600090559055866001016000878152602001908152602001600020600090556001945050505050610a49565b6000915050610a49565b600082815260018401602052604081205480611e1e5750506040805180820182528381526020808201848152865460018181018955600089815284812095516002909302909501918255915190820155865486845281880190925292909120556116ad565b82856000016001830381548110611e3157fe5b90600052602060002090600202016001018190555060009150506116ad565b3b151590565b60606116aa848460008585611e6a85611e50565b611ebb576040805162461bcd60e51b815260206004820152601d60248201527f416464726573733a2063616c6c20746f206e6f6e2d636f6e7472616374000000604482015290519081900360640190fd5b60006060866001600160a01b031685876040518082805190602001908083835b60208310611efa5780518252601f199092019160209182019101611edb565b6001836020036101000a03801982511681845116808217855250505050505090500191505060006040518083038185875af1925050503d8060008114611f5c576040519150601f19603f3d011682016040523d82523d6000602084013e611f61565b606091505b5091509150611f71828286611f7c565b979650505050505050565b60608315611f8b5750816116ad565b825115611f9b5782518084602001fd5b60405162461bcd60e51b8152602060048201818152845160248401528451859391928392604401919085019080838360008315611b09578181015183820152602001611af1565b828054600181600116156101000203166002900490600052602060002090601f016020900481019282601f1061202357805160ff1916838001178555612050565b82800160010185558215612050579182015b82811115612050578251825591602001919060010190612035565b5061205c929150612060565b5090565b5b8082111561205c576000815560010161206156fe456e756d657261626c655365743a20696e646578206f7574206f6620626f756e6473416363657373436f6e74726f6c3a2073656e646572206d75737420626520616e2061646d696e20746f206772616e744552433732313a207472616e7366657220746f206e6f6e20455243373231526563656976657220696d706c656d656e7465724552433732313a207472616e7366657220746f20746865207a65726f20616464726573734552433732313a206f70657261746f7220717565727920666f72206e6f6e6578697374656e7420746f6b656e416363657373436f6e74726f6c3a2073656e646572206d75737420626520616e2061646d696e20746f207265766f6b654552433732313a20617070726f76652063616c6c6572206973206e6f74206f776e6572206e6f7220617070726f76656420666f7220616c6c4552433732313a2062616c616e636520717565727920666f7220746865207a65726f20616464726573734552433732313a206f776e657220717565727920666f72206e6f6e6578697374656e7420746f6b656e456e756d657261626c654d61703a20696e646578206f7574206f6620626f756e64734552433732313a20617070726f76656420717565727920666f72206e6f6e6578697374656e7420746f6b656e4552433732313a207472616e73666572206f6620746f6b656e2074686174206973206e6f74206f776e4552433732314d657461646174613a2055524920717565727920666f72206e6f6e6578697374656e7420746f6b656e4552433732313a20617070726f76616c20746f2063757272656e74206f776e65724552433732313a207472616e736665722063616c6c6572206973206e6f74206f776e6572206e6f7220617070726f7665644c277574656e7465206465766520617665726520696c2072756f6c6f206469206d696e7465722070657220706f746572206d696e61726521416363657373436f6e74726f6c3a2063616e206f6e6c792072656e6f756e636520726f6c657320666f722073656c66a2646970667358221220cb971f57afc99c6fa71247ee006480cbbbc6bc362220a079975f20334f52026a64736f6c634300060c0033456e756d657261626c655365743a20696e646578206f7574206f6620626f756e6473416363657373436f6e74726f6c3a2073656e646572206d75737420626520616e2061646d696e20746f206772616e744f776e61626c653a206e6577206f776e657220697320746865207a65726f2061646472657373416363657373436f6e74726f6c3a2073656e646572206d75737420626520616e2061646d696e20746f207265766f6b65416363657373436f6e74726f6c3a2063616e206f6e6c792072656e6f756e636520726f6c657320666f722073656c66a264697066735822122000a4efc893ab65ac7693734a5b663e43827701809f1d1f4480dbe913918d39d364736f6c634300060c0033",
  "immutableReferences": {},
  "source": "// SPDX-License-Identifier: MIT\npragma solidity >=0.4.22 <0.9.0;\n\nimport \"@openzeppelin/contracts/access/Ownable.sol\";\nimport \"./Event.sol\";\n\ncontract EventFactory is Ownable, AccessControl {\n    \n    bytes32 public constant ORGANIZER_ROLE = keccak256(\"ORGANIZER_ROLE\");\n    bytes32 public constant MINTER_ROLE = keccak256(\"MINTER_ROLE\");\n\n    \n    constructor(address organizer, address reseller) public {\n        _setupRole(ORGANIZER_ROLE, organizer);\n        _setupRole(MINTER_ROLE, reseller);\n    }\n\n    struct EventStruct {\n        uint eventID;            // id dell'evento\n        string eventName;       // Nome Evento\n        string eventSymbol;\n        uint256 ticketPrice;    // Prezzo dei ticket dell'evento\n        uint256 totalSupply;    // Numero di Ticket disponibili alla creazione\n        uint256 eventDate;      // Data di inizio dell'evento\n    }\n\n    address[] private eventList;    // Lista address degli eventi\n    mapping(address => EventStruct) private eventListMapping;\n\n    /* ===============================Functions=============================== */\n\n    // Get lista degli address degli eventi\n    function getEventList() public view returns (address[] memory) {\n        return eventList;\n    }\n\n    // Get dettagli evento\n    function getEventDetails(address eventAddress) public view returns (uint, string memory, string memory, uint256, uint256, uint256){\n        return (\n            eventListMapping[eventAddress].eventID,\n            eventListMapping[eventAddress].eventName,\n            eventListMapping[eventAddress].eventSymbol,\n            eventListMapping[eventAddress].ticketPrice,\n            eventListMapping[eventAddress].totalSupply,\n            eventListMapping[eventAddress].eventDate\n        );\n    }\n\n    // Creazione nuovo evento\n    event Created(address eventAddress);\n\n    function createNewEvent(string memory eventName, \n                            string memory eventSymbol,\n                            uint256 ticketPrice, \n                            uint256 totalSupply, \n                            uint256 eventDate) public onlyOwner returns (address) {\n\n        // Controllo se l'operatore e' un organizzatore\n        require(hasRole(ORGANIZER_ROLE, msg.sender), \"Caller is not allowed\");\n\n        uint eventID = eventList.length + 1;\n\n        Event newEvent = new Event( \n            eventID,\n            eventName,\n            eventSymbol,\n            ticketPrice,\n            totalSupply,\n            eventDate,\n            msg.sender\n        );\n\n        address newEventAddress = address(newEvent);\n        eventList.push(newEventAddress);\n\n        eventListMapping[newEventAddress] = EventStruct({\n            eventID: eventID,\n            eventName: eventName,\n            eventSymbol: eventSymbol,\n            ticketPrice: ticketPrice,\n            totalSupply: totalSupply,\n            eventDate: eventDate\n        });\n\n        emit Created(newEventAddress);\n\n        return newEventAddress;\n    }\n\n}",
  "sourcePath": "/Users/lorenzofederici/Univpm/1 anno/SC/ticketing-system/contracts/EventFactory.sol",
  "compiler": {
    "name": "solc",
    "version": "0.6.12+commit.27d51765.Emscripten.clang"
  },
  "schemaVersion": "3.3.3",
  "updatedAt": "2021-10-13T14:18:39.910Z",
  "devdoc": {
    "kind": "dev",
    "methods": {
      "getRoleAdmin(bytes32)": {
        "details": "Returns the admin role that controls `role`. See {grantRole} and {revokeRole}. To change a role's admin, use {_setRoleAdmin}."
      },
      "getRoleMember(bytes32,uint256)": {
        "details": "Returns one of the accounts that have `role`. `index` must be a value between 0 and {getRoleMemberCount}, non-inclusive. Role bearers are not sorted in any particular way, and their ordering may change at any point. WARNING: When using {getRoleMember} and {getRoleMemberCount}, make sure you perform all queries on the same block. See the following https://forum.openzeppelin.com/t/iterating-over-elements-on-enumerableset-in-openzeppelin-contracts/2296[forum post] for more information."
      },
      "getRoleMemberCount(bytes32)": {
        "details": "Returns the number of accounts that have `role`. Can be used together with {getRoleMember} to enumerate all bearers of a role."
      },
      "grantRole(bytes32,address)": {
        "details": "Grants `role` to `account`. If `account` had not been already granted `role`, emits a {RoleGranted} event. Requirements: - the caller must have ``role``'s admin role."
      },
      "hasRole(bytes32,address)": {
        "details": "Returns `true` if `account` has been granted `role`."
      },
      "owner()": {
        "details": "Returns the address of the current owner."
      },
      "renounceOwnership()": {
        "details": "Leaves the contract without owner. It will not be possible to call `onlyOwner` functions anymore. Can only be called by the current owner. NOTE: Renouncing ownership will leave the contract without an owner, thereby removing any functionality that is only available to the owner."
      },
      "renounceRole(bytes32,address)": {
        "details": "Revokes `role` from the calling account. Roles are often managed via {grantRole} and {revokeRole}: this function's purpose is to provide a mechanism for accounts to lose their privileges if they are compromised (such as when a trusted device is misplaced). If the calling account had been granted `role`, emits a {RoleRevoked} event. Requirements: - the caller must be `account`."
      },
      "revokeRole(bytes32,address)": {
        "details": "Revokes `role` from `account`. If `account` had been granted `role`, emits a {RoleRevoked} event. Requirements: - the caller must have ``role``'s admin role."
      },
      "transferOwnership(address)": {
        "details": "Transfers ownership of the contract to a new account (`newOwner`). Can only be called by the current owner."
      }
    },
    "version": 1
  },
  "userdoc": {
    "kind": "user",
    "methods": {},
    "version": 1
  }
}