{
  "contractName": "Event",
  "abi": [
    {
      "inputs": [
        {
          "internalType": "uint256",
          "name": "eventID",
          "type": "uint256"
        },
        {
          "internalType": "string",
          "name": "eventName",
          "type": "string"
        },
        {
          "internalType": "string",
          "name": "eventSymbol",
          "type": "string"
        },
        {
          "internalType": "uint256",
          "name": "ticketPrice",
          "type": "uint256"
        },
        {
          "internalType": "uint256",
          "name": "totalSupply",
          "type": "uint256"
        },
        {
          "internalType": "uint256",
          "name": "eventDate",
          "type": "uint256"
        },
        {
          "internalType": "address",
          "name": "reseller",
          "type": "address"
        }
      ],
      "stateMutability": "nonpayable",
      "type": "constructor"
    },
    {
      "anonymous": false,
      "inputs": [
        {
          "indexed": true,
          "internalType": "address",
          "name": "owner",
          "type": "address"
        },
        {
          "indexed": true,
          "internalType": "address",
          "name": "approved",
          "type": "address"
        },
        {
          "indexed": true,
          "internalType": "uint256",
          "name": "tokenId",
          "type": "uint256"
        }
      ],
      "name": "Approval",
      "type": "event"
    },
    {
      "anonymous": false,
      "inputs": [
        {
          "indexed": true,
          "internalType": "address",
          "name": "owner",
          "type": "address"
        },
        {
          "indexed": true,
          "internalType": "address",
          "name": "operator",
          "type": "address"
        },
        {
          "indexed": false,
          "internalType": "bool",
          "name": "approved",
          "type": "bool"
        }
      ],
      "name": "ApprovalForAll",
      "type": "event"
    },
    {
      "anonymous": false,
      "inputs": [
        {
          "indexed": true,
          "internalType": "bytes32",
          "name": "role",
          "type": "bytes32"
        },
        {
          "indexed": true,
          "internalType": "bytes32",
          "name": "previousAdminRole",
          "type": "bytes32"
        },
        {
          "indexed": true,
          "internalType": "bytes32",
          "name": "newAdminRole",
          "type": "bytes32"
        }
      ],
      "name": "RoleAdminChanged",
      "type": "event"
    },
    {
      "anonymous": false,
      "inputs": [
        {
          "indexed": true,
          "internalType": "bytes32",
          "name": "role",
          "type": "bytes32"
        },
        {
          "indexed": true,
          "internalType": "address",
          "name": "account",
          "type": "address"
        },
        {
          "indexed": true,
          "internalType": "address",
          "name": "sender",
          "type": "address"
        }
      ],
      "name": "RoleGranted",
      "type": "event"
    },
    {
      "anonymous": false,
      "inputs": [
        {
          "indexed": true,
          "internalType": "bytes32",
          "name": "role",
          "type": "bytes32"
        },
        {
          "indexed": true,
          "internalType": "address",
          "name": "account",
          "type": "address"
        },
        {
          "indexed": true,
          "internalType": "address",
          "name": "sender",
          "type": "address"
        }
      ],
      "name": "RoleRevoked",
      "type": "event"
    },
    {
      "anonymous": false,
      "inputs": [
        {
          "indexed": true,
          "internalType": "address",
          "name": "from",
          "type": "address"
        },
        {
          "indexed": true,
          "internalType": "address",
          "name": "to",
          "type": "address"
        },
        {
          "indexed": true,
          "internalType": "uint256",
          "name": "tokenId",
          "type": "uint256"
        }
      ],
      "name": "Transfer",
      "type": "event"
    },
    {
      "inputs": [],
      "name": "DEFAULT_ADMIN_ROLE",
      "outputs": [
        {
          "internalType": "bytes32",
          "name": "",
          "type": "bytes32"
        }
      ],
      "stateMutability": "view",
      "type": "function"
    },
    {
      "inputs": [],
      "name": "MINTER_ROLE",
      "outputs": [
        {
          "internalType": "bytes32",
          "name": "",
          "type": "bytes32"
        }
      ],
      "stateMutability": "view",
      "type": "function"
    },
    {
      "inputs": [
        {
          "internalType": "address",
          "name": "to",
          "type": "address"
        },
        {
          "internalType": "uint256",
          "name": "tokenId",
          "type": "uint256"
        }
      ],
      "name": "approve",
      "outputs": [],
      "stateMutability": "nonpayable",
      "type": "function"
    },
    {
      "inputs": [
        {
          "internalType": "address",
          "name": "owner",
          "type": "address"
        }
      ],
      "name": "balanceOf",
      "outputs": [
        {
          "internalType": "uint256",
          "name": "",
          "type": "uint256"
        }
      ],
      "stateMutability": "view",
      "type": "function"
    },
    {
      "inputs": [],
      "name": "baseURI",
      "outputs": [
        {
          "internalType": "string",
          "name": "",
          "type": "string"
        }
      ],
      "stateMutability": "view",
      "type": "function"
    },
    {
      "inputs": [
        {
          "internalType": "uint256",
          "name": "tokenId",
          "type": "uint256"
        }
      ],
      "name": "getApproved",
      "outputs": [
        {
          "internalType": "address",
          "name": "",
          "type": "address"
        }
      ],
      "stateMutability": "view",
      "type": "function"
    },
    {
      "inputs": [
        {
          "internalType": "bytes32",
          "name": "role",
          "type": "bytes32"
        }
      ],
      "name": "getRoleAdmin",
      "outputs": [
        {
          "internalType": "bytes32",
          "name": "",
          "type": "bytes32"
        }
      ],
      "stateMutability": "view",
      "type": "function"
    },
    {
      "inputs": [
        {
          "internalType": "bytes32",
          "name": "role",
          "type": "bytes32"
        },
        {
          "internalType": "uint256",
          "name": "index",
          "type": "uint256"
        }
      ],
      "name": "getRoleMember",
      "outputs": [
        {
          "internalType": "address",
          "name": "",
          "type": "address"
        }
      ],
      "stateMutability": "view",
      "type": "function"
    },
    {
      "inputs": [
        {
          "internalType": "bytes32",
          "name": "role",
          "type": "bytes32"
        }
      ],
      "name": "getRoleMemberCount",
      "outputs": [
        {
          "internalType": "uint256",
          "name": "",
          "type": "uint256"
        }
      ],
      "stateMutability": "view",
      "type": "function"
    },
    {
      "inputs": [
        {
          "internalType": "bytes32",
          "name": "role",
          "type": "bytes32"
        },
        {
          "internalType": "address",
          "name": "account",
          "type": "address"
        }
      ],
      "name": "grantRole",
      "outputs": [],
      "stateMutability": "nonpayable",
      "type": "function"
    },
    {
      "inputs": [
        {
          "internalType": "bytes32",
          "name": "role",
          "type": "bytes32"
        },
        {
          "internalType": "address",
          "name": "account",
          "type": "address"
        }
      ],
      "name": "hasRole",
      "outputs": [
        {
          "internalType": "bool",
          "name": "",
          "type": "bool"
        }
      ],
      "stateMutability": "view",
      "type": "function"
    },
    {
      "inputs": [
        {
          "internalType": "address",
          "name": "owner",
          "type": "address"
        },
        {
          "internalType": "address",
          "name": "operator",
          "type": "address"
        }
      ],
      "name": "isApprovedForAll",
      "outputs": [
        {
          "internalType": "bool",
          "name": "",
          "type": "bool"
        }
      ],
      "stateMutability": "view",
      "type": "function"
    },
    {
      "inputs": [],
      "name": "name",
      "outputs": [
        {
          "internalType": "string",
          "name": "",
          "type": "string"
        }
      ],
      "stateMutability": "view",
      "type": "function"
    },
    {
      "inputs": [
        {
          "internalType": "uint256",
          "name": "tokenId",
          "type": "uint256"
        }
      ],
      "name": "ownerOf",
      "outputs": [
        {
          "internalType": "address",
          "name": "",
          "type": "address"
        }
      ],
      "stateMutability": "view",
      "type": "function"
    },
    {
      "inputs": [
        {
          "internalType": "bytes32",
          "name": "role",
          "type": "bytes32"
        },
        {
          "internalType": "address",
          "name": "account",
          "type": "address"
        }
      ],
      "name": "renounceRole",
      "outputs": [],
      "stateMutability": "nonpayable",
      "type": "function"
    },
    {
      "inputs": [
        {
          "internalType": "bytes32",
          "name": "role",
          "type": "bytes32"
        },
        {
          "internalType": "address",
          "name": "account",
          "type": "address"
        }
      ],
      "name": "revokeRole",
      "outputs": [],
      "stateMutability": "nonpayable",
      "type": "function"
    },
    {
      "inputs": [
        {
          "internalType": "address",
          "name": "from",
          "type": "address"
        },
        {
          "internalType": "address",
          "name": "to",
          "type": "address"
        },
        {
          "internalType": "uint256",
          "name": "tokenId",
          "type": "uint256"
        }
      ],
      "name": "safeTransferFrom",
      "outputs": [],
      "stateMutability": "nonpayable",
      "type": "function"
    },
    {
      "inputs": [
        {
          "internalType": "address",
          "name": "from",
          "type": "address"
        },
        {
          "internalType": "address",
          "name": "to",
          "type": "address"
        },
        {
          "internalType": "uint256",
          "name": "tokenId",
          "type": "uint256"
        },
        {
          "internalType": "bytes",
          "name": "_data",
          "type": "bytes"
        }
      ],
      "name": "safeTransferFrom",
      "outputs": [],
      "stateMutability": "nonpayable",
      "type": "function"
    },
    {
      "inputs": [
        {
          "internalType": "address",
          "name": "operator",
          "type": "address"
        },
        {
          "internalType": "bool",
          "name": "approved",
          "type": "bool"
        }
      ],
      "name": "setApprovalForAll",
      "outputs": [],
      "stateMutability": "nonpayable",
      "type": "function"
    },
    {
      "inputs": [
        {
          "internalType": "bytes4",
          "name": "interfaceId",
          "type": "bytes4"
        }
      ],
      "name": "supportsInterface",
      "outputs": [
        {
          "internalType": "bool",
          "name": "",
          "type": "bool"
        }
      ],
      "stateMutability": "view",
      "type": "function"
    },
    {
      "inputs": [],
      "name": "symbol",
      "outputs": [
        {
          "internalType": "string",
          "name": "",
          "type": "string"
        }
      ],
      "stateMutability": "view",
      "type": "function"
    },
    {
      "inputs": [
        {
          "internalType": "uint256",
          "name": "index",
          "type": "uint256"
        }
      ],
      "name": "tokenByIndex",
      "outputs": [
        {
          "internalType": "uint256",
          "name": "",
          "type": "uint256"
        }
      ],
      "stateMutability": "view",
      "type": "function"
    },
    {
      "inputs": [
        {
          "internalType": "address",
          "name": "owner",
          "type": "address"
        },
        {
          "internalType": "uint256",
          "name": "index",
          "type": "uint256"
        }
      ],
      "name": "tokenOfOwnerByIndex",
      "outputs": [
        {
          "internalType": "uint256",
          "name": "",
          "type": "uint256"
        }
      ],
      "stateMutability": "view",
      "type": "function"
    },
    {
      "inputs": [
        {
          "internalType": "uint256",
          "name": "tokenId",
          "type": "uint256"
        }
      ],
      "name": "tokenURI",
      "outputs": [
        {
          "internalType": "string",
          "name": "",
          "type": "string"
        }
      ],
      "stateMutability": "view",
      "type": "function"
    },
    {
      "inputs": [],
      "name": "totalSupply",
      "outputs": [
        {
          "internalType": "uint256",
          "name": "",
          "type": "uint256"
        }
      ],
      "stateMutability": "view",
      "type": "function"
    },
    {
      "inputs": [
        {
          "internalType": "address",
          "name": "from",
          "type": "address"
        },
        {
          "internalType": "address",
          "name": "to",
          "type": "address"
        },
        {
          "internalType": "uint256",
          "name": "tokenId",
          "type": "uint256"
        }
      ],
      "name": "transferFrom",
      "outputs": [],
      "stateMutability": "nonpayable",
      "type": "function"
    },
    {
      "inputs": [
        {
          "internalType": "address",
          "name": "reseller",
          "type": "address"
        },
        {
          "internalType": "address",
          "name": "buyer",
          "type": "address"
        }
      ],
      "name": "deployTicket",
      "outputs": [
        {
          "internalType": "bool",
          "name": "",
          "type": "bool"
        }
      ],
      "stateMutability": "nonpayable",
      "type": "function"
    },
    {
      "inputs": [],
      "name": "getTicketPrice",
      "outputs": [
        {
          "internalType": "uint256",
          "name": "",
          "type": "uint256"
        }
      ],
      "stateMutability": "view",
      "type": "function"
    },
    {
      "inputs": [
        {
          "internalType": "uint256",
          "name": "ticketID",
          "type": "uint256"
        }
      ],
      "name": "getTicketState",
      "outputs": [
        {
          "internalType": "string",
          "name": "",
          "type": "string"
        }
      ],
      "stateMutability": "view",
      "type": "function"
    },
    {
      "inputs": [
        {
          "internalType": "address",
          "name": "customer",
          "type": "address"
        }
      ],
      "name": "getTicketsOfCustomer",
      "outputs": [
        {
          "internalType": "uint256[]",
          "name": "",
          "type": "uint256[]"
        }
      ],
      "stateMutability": "view",
      "type": "function"
    }
  ],
  "bytecode": "0x60806040523480156200001157600080fd5b506040516200292a3803806200292a833981810160405260e08110156200003757600080fd5b8151602083018051604051929492938301929190846401000000008211156200005f57600080fd5b9083019060208201858111156200007557600080fd5b82516401000000008111828201881017156200009057600080fd5b82525081516020918201929091019080838360005b83811015620000bf578181015183820152602001620000a5565b50505050905090810190601f168015620000ed5780820380516001836020036101000a031916815260200191505b50604052602001805160405193929190846401000000008211156200011157600080fd5b9083019060208201858111156200012757600080fd5b82516401000000008111828201881017156200014257600080fd5b82525081516020918201929091019080838360005b838110156200017157818101518382015260200162000157565b50505050905090810190601f1680156200019f5780820380516001836020036101000a031916815260200191505b506040908152602082015190820151606083015160809093015191945092508585620001eb7f01ffc9a70000000000000000000000000000000000000000000000000000000062000300565b815162000200906007906020850190620004e6565b50805162000216906008906020840190620004e6565b50620002427f80ac58cd0000000000000000000000000000000000000000000000000000000062000300565b6200026d7f5b5e139f0000000000000000000000000000000000000000000000000000000062000300565b620002987f780e9d630000000000000000000000000000000000000000000000000000000062000300565b50620002c790507f9f2df0fed2c77648de5860a4cc508cd0818c85b8b8a1ab4ceeef8d981c8956a682620003d2565b600c96909655600d92909255600e55600f555050601080546001600160a01b0319166001600160a01b0390921691909117905562000582565b7fffffffff0000000000000000000000000000000000000000000000000000000080821614156200039257604080517f08c379a000000000000000000000000000000000000000000000000000000000815260206004820152601c60248201527f4552433136353a20696e76616c696420696e7465726661636520696400000000604482015290519081900360640190fd5b7fffffffff00000000000000000000000000000000000000000000000000000000166000908152600160208190526040909120805460ff19169091179055565b620003de8282620003e2565b5050565b60008281526020818152604090912062000407918390620013146200045b821b17901c565b15620003de57620004176200047b565b6001600160a01b0316816001600160a01b0316837f2f8788117e7eff1d82e926ec794901d17c78024a50270940304540a733656f0d60405160405180910390a45050565b600062000472836001600160a01b0384166200047f565b90505b92915050565b3390565b60006200048d8383620004ce565b620004c55750815460018181018455600084815260208082209093018490558454848252828601909352604090209190915562000475565b50600062000475565b60009081526001919091016020526040902054151590565b828054600181600116156101000203166002900490600052602060002090601f016020900481019282601f106200052957805160ff191683800117855562000559565b8280016001018555821562000559579182015b82811115620005595782518255916020019190600101906200053c565b50620005679291506200056b565b5090565b5b808211156200056757600081556001016200056c565b61239880620005926000396000f3fe608060405234801561001057600080fd5b50600436106101da5760003560e01c806370a0823111610104578063a58b1571116100a2578063ca15c87311610071578063ca15c873146106c6578063d5391393146106e3578063d547741f146106eb578063e985e9c514610717576101da565b8063a58b15711461053f578063b632c9e41461056d578063b88d4fde146105e3578063c87b56dd146106a9576101da565b806391d14854116100de57806391d14854146104d557806395d89b4114610501578063a217fddf14610509578063a22cb46514610511576101da565b806370a082311461048457806387bb7ae0146104aa5780639010d07c146104b2576101da565b80632f2ff15d1161017c5780634f6ccce71161014b5780634f6ccce7146104255780636352211e146104425780636482db3f1461045f5780636c0360eb1461047c576101da565b80632f2ff15d1461036b5780632f745c591461039757806336568abe146103c357806342842e0e146103ef576101da565b8063095ea7b3116101b8578063095ea7b3146102d057806318160ddd146102fe57806323b872dd14610318578063248a9ca31461034e576101da565b806301ffc9a7146101df57806306fdde031461021a578063081812fc14610297575b600080fd5b610206600480360360208110156101f557600080fd5b50356001600160e01b031916610745565b604080519115158252519081900360200190f35b610222610768565b6040805160208082528351818301528351919283929083019185019080838360005b8381101561025c578181015183820152602001610244565b50505050905090810190601f1680156102895780820380516001836020036101000a031916815260200191505b509250505060405180910390f35b6102b4600480360360208110156102ad57600080fd5b50356107fe565b604080516001600160a01b039092168252519081900360200190f35b6102fc600480360360408110156102e657600080fd5b506001600160a01b038135169060200135610860565b005b61030661093b565b60408051918252519081900360200190f35b6102fc6004803603606081101561032e57600080fd5b506001600160a01b0381358116916020810135909116906040013561094c565b6103066004803603602081101561036457600080fd5b50356109a3565b6102fc6004803603604081101561038157600080fd5b50803590602001356001600160a01b03166109b8565b610306600480360360408110156103ad57600080fd5b506001600160a01b038135169060200135610a24565b6102fc600480360360408110156103d957600080fd5b50803590602001356001600160a01b0316610a4f565b6102fc6004803603606081101561040557600080fd5b506001600160a01b03813581169160208101359091169060400135610ab0565b6103066004803603602081101561043b57600080fd5b5035610acb565b6102b46004803603602081101561045857600080fd5b5035610ae1565b6102226004803603602081101561047557600080fd5b5035610b09565b610222610baa565b6103066004803603602081101561049a57600080fd5b50356001600160a01b0316610c0b565b610306610c73565b6102b4600480360360408110156104c857600080fd5b5080359060200135610c79565b610206600480360360408110156104eb57600080fd5b50803590602001356001600160a01b0316610c91565b610222610ca9565b610306610d0a565b6102fc6004803603604081101561052757600080fd5b506001600160a01b0381351690602001351515610d0f565b6102066004803603604081101561055557600080fd5b506001600160a01b0381358116916020013516610e14565b6105936004803603602081101561058357600080fd5b50356001600160a01b0316610f06565b60408051602080825283518183015283519192839290830191858101910280838360005b838110156105cf5781810151838201526020016105b7565b505050509050019250505060405180910390f35b6102fc600480360360808110156105f957600080fd5b6001600160a01b0382358116926020810135909116916040820135919081019060808101606082013564010000000081111561063457600080fd5b82018360208201111561064657600080fd5b8035906020019184600183028401116401000000008311171561066857600080fd5b91908080601f016020809104026020016040519081016040528093929190818152602001838380828437600092019190915250929550610f71945050505050565b610222600480360360208110156106bf57600080fd5b5035610fcf565b610306600480360360208110156106dc57600080fd5b5035611252565b610306611269565b6102fc6004803603604081101561070157600080fd5b50803590602001356001600160a01b031661128d565b6102066004803603604081101561072d57600080fd5b506001600160a01b03813581169160200135166112e6565b6001600160e01b0319811660009081526001602052604090205460ff165b919050565b60078054604080516020601f60026000196101006001881615020190951694909404938401819004810282018101909252828152606093909290918301828280156107f45780601f106107c9576101008083540402835291602001916107f4565b820191906000526020600020905b8154815290600101906020018083116107d757829003601f168201915b5050505050905090565b600061080982611329565b6108445760405162461bcd60e51b815260040180806020018281038252602c815260200180612226602c913960400191505060405180910390fd5b506000908152600560205260409020546001600160a01b031690565b600061086b82610ae1565b9050806001600160a01b0316836001600160a01b031614156108be5760405162461bcd60e51b81526004018080602001828103825260218152602001806122aa6021913960400191505060405180910390fd5b806001600160a01b03166108d0611336565b6001600160a01b031614806108f157506108f1816108ec611336565b6112e6565b61092c5760405162461bcd60e51b81526004018080602001828103825260388152602001806121796038913960400191505060405180910390fd5b610936838361133a565b505050565b600061094760036113a8565b905090565b61095d610957611336565b826113b3565b6109985760405162461bcd60e51b81526004018080602001828103825260318152602001806122cb6031913960400191505060405180910390fd5b610936838383611457565b60009081526020819052604090206002015490565b6000828152602081905260409020600201546109db906109d6611336565b610c91565b610a165760405162461bcd60e51b815260040180806020018281038252602f815260200180612098602f913960400191505060405180910390fd5b610a2082826115a3565b5050565b6001600160a01b0382166000908152600260205260408120610a46908361160c565b90505b92915050565b610a57611336565b6001600160a01b0316816001600160a01b031614610aa65760405162461bcd60e51b815260040180806020018281038252602f815260200180612334602f913960400191505060405180910390fd5b610a208282611618565b61093683838360405180602001604052806000815250610f71565b600080610ad9600384611681565b509392505050565b6000610a49826040518060600160405280602981526020016121db602991396003919061169d565b60008181526012602090815260409182902080548351601f6002600019610100600186161502019093169290920491820184900484028101840190945280845260609392830182828015610b9e5780601f10610b7357610100808354040283529160200191610b9e565b820191906000526020600020905b815481529060010190602001808311610b8157829003601f168201915b50505050509050919050565b600a8054604080516020601f60026000196101006001881615020190951694909404938401819004810282018101909252828152606093909290918301828280156107f45780601f106107c9576101008083540402835291602001916107f4565b60006001600160a01b038216610c525760405162461bcd60e51b815260040180806020018281038252602a8152602001806121b1602a913960400191505060405180910390fd5b6001600160a01b0382166000908152600260205260409020610a49906113a8565b600d5490565b6000828152602081905260408120610a46908361160c565b6000828152602081905260408120610a4690836116b4565b60088054604080516020601f60026000196101006001881615020190951694909404938401819004810282018101909252828152606093909290918301828280156107f45780601f106107c9576101008083540402835291602001916107f4565b600081565b610d17611336565b6001600160a01b0316826001600160a01b03161415610d7d576040805162461bcd60e51b815260206004820152601960248201527f4552433732313a20617070726f766520746f2063616c6c657200000000000000604482015290519081900360640190fd5b8060066000610d8a611336565b6001600160a01b03908116825260208083019390935260409182016000908120918716808252919093529120805460ff191692151592909217909155610dce611336565b6001600160a01b03167f17307eab39ab6107e8899845ad3d59bd9653f200f220920489ca2b5937696c318360405180821515815260200191505060405180910390a35050565b6000610e427f9f2df0fed2c77648de5860a4cc508cd0818c85b8b8a1ab4ceeef8d981c8956a66109d6611336565b610e7d5760405162461bcd60e51b81526004018080602001828103825260388152602001806122fc6038913960400191505060405180910390fd5b610e87600b6116c9565b6000610e93600b6116d2565b9050610e9f84826116d6565b604080516060810182526005602080830191825264189d5e595960da1b83850152908252600084815260128252929092208151805192939192610ee59284920190611fe2565b50905050610efc610ef582610ae1565b848361094c565b5060019392505050565b6001600160a01b038116600090815260136020908152604091829020805483518184028101840190945280845260609392830182828015610b9e57602002820191906000526020600020905b815481526020019060010190808311610f525750505050509050919050565b610f82610f7c611336565b836113b3565b610fbd5760405162461bcd60e51b81526004018080602001828103825260318152602001806122cb6031913960400191505060405180910390fd5b610fc984848484611804565b50505050565b6060610fda82611329565b6110155760405162461bcd60e51b815260040180806020018281038252602f81526020018061227b602f913960400191505060405180910390fd5b60008281526009602090815260409182902080548351601f60026000196101006001861615020190931692909204918201849004840281018401909452808452606093928301828280156110aa5780601f1061107f576101008083540402835291602001916110aa565b820191906000526020600020905b81548152906001019060200180831161108d57829003601f168201915b5050505050905060606110bb610baa565b90508051600014156110cf57509050610763565b8151156111905780826040516020018083805190602001908083835b6020831061110a5780518252601f1990920191602091820191016110eb565b51815160209384036101000a600019018019909216911617905285519190930192850191508083835b602083106111525780518252601f199092019160209182019101611133565b6001836020036101000a0380198251168184511680821785525050505050509050019250505060405160208183030381529060405292505050610763565b8061119a85611856565b6040516020018083805190602001908083835b602083106111cc5780518252601f1990920191602091820191016111ad565b51815160209384036101000a600019018019909216911617905285519190930192850191508083835b602083106112145780518252601f1990920191602091820191016111f5565b6001836020036101000a0380198251168184511680821785525050505050509050019250505060405160208183030381529060405292505050919050565b6000818152602081905260408120610a49906113a8565b7f9f2df0fed2c77648de5860a4cc508cd0818c85b8b8a1ab4ceeef8d981c8956a681565b6000828152602081905260409020600201546112ab906109d6611336565b610aa65760405162461bcd60e51b81526004018080602001828103825260308152602001806121496030913960400191505060405180910390fd5b6001600160a01b03918216600090815260066020908152604080832093909416825291909152205460ff1690565b6000610a46836001600160a01b038416611931565b6000610a4960038361197b565b3390565b600081815260056020526040902080546001600160a01b0319166001600160a01b038416908117909155819061136f82610ae1565b6001600160a01b03167f8c5be1e5ebec7d5bd14f71427d1e84f3dd0314c0f7b2291e5b200ac8c7c3b92560405160405180910390a45050565b6000610a49826116d2565b60006113be82611329565b6113f95760405162461bcd60e51b815260040180806020018281038252602c81526020018061211d602c913960400191505060405180910390fd5b600061140483610ae1565b9050806001600160a01b0316846001600160a01b0316148061143f5750836001600160a01b0316611434846107fe565b6001600160a01b0316145b8061144f575061144f81856112e6565b949350505050565b826001600160a01b031661146a82610ae1565b6001600160a01b0316146114af5760405162461bcd60e51b81526004018080602001828103825260298152602001806122526029913960400191505060405180910390fd5b6001600160a01b0382166114f45760405162461bcd60e51b81526004018080602001828103825260248152602001806120f96024913960400191505060405180910390fd5b6114ff838383610936565b61150a60008261133a565b6001600160a01b038316600090815260026020526040902061152c9082611987565b506001600160a01b038216600090815260026020526040902061154f9082611993565b5061155c6003828461199f565b5080826001600160a01b0316846001600160a01b03167fddf252ad1be2c89b69c2b068fc378daa952ba7f163c4a11628f55a4df523b3ef60405160405180910390a4505050565b60008281526020819052604090206115bb9082611314565b15610a20576115c8611336565b6001600160a01b0316816001600160a01b0316837f2f8788117e7eff1d82e926ec794901d17c78024a50270940304540a733656f0d60405160405180910390a45050565b6000610a4683836119b5565b60008281526020819052604090206116309082611a19565b15610a205761163d611336565b6001600160a01b0316816001600160a01b0316837ff6391f5c32d9c69d2a47ea670b442974b53935d1edc7fd64eb21e047a839171b60405160405180910390a45050565b60008080806116908686611a2e565b9097909650945050505050565b60006116aa848484611aa9565b90505b9392505050565b6000610a46836001600160a01b038416611b73565b80546001019055565b5490565b6001600160a01b038216611731576040805162461bcd60e51b815260206004820181905260248201527f4552433732313a206d696e7420746f20746865207a65726f2061646472657373604482015290519081900360640190fd5b61173a81611329565b1561178c576040805162461bcd60e51b815260206004820152601c60248201527f4552433732313a20746f6b656e20616c7265616479206d696e74656400000000604482015290519081900360640190fd5b61179860008383610936565b6001600160a01b03821660009081526002602052604090206117ba9082611993565b506117c76003828461199f565b5060405181906001600160a01b038416906000907fddf252ad1be2c89b69c2b068fc378daa952ba7f163c4a11628f55a4df523b3ef908290a45050565b61180f848484611457565b61181b84848484611b8b565b610fc95760405162461bcd60e51b81526004018080602001828103825260328152602001806120c76032913960400191505060405180910390fd5b60608161187b57506040805180820190915260018152600360fc1b6020820152610763565b8160005b811561189357600101600a8204915061187f565b60608167ffffffffffffffff811180156118ac57600080fd5b506040519080825280601f01601f1916602001820160405280156118d7576020820181803683370190505b50859350905060001982015b831561192857600a840660300160f81b8282806001900393508151811061190657fe5b60200101906001600160f81b031916908160001a905350600a840493506118e3565b50949350505050565b600061193d8383611b73565b61197357508154600181810184556000848152602080822090930184905584548482528286019093526040902091909155610a49565b506000610a49565b6000610a468383611b73565b6000610a468383611cf3565b6000610a468383611931565b60006116aa84846001600160a01b038516611db9565b815460009082106119f75760405162461bcd60e51b81526004018080602001828103825260228152602001806120766022913960400191505060405180910390fd5b826000018281548110611a0657fe5b9060005260206000200154905092915050565b6000610a46836001600160a01b038416611cf3565b815460009081908310611a725760405162461bcd60e51b81526004018080602001828103825260228152602001806122046022913960400191505060405180910390fd5b6000846000018481548110611a8357fe5b906000526020600020906002020190508060000154816001015492509250509250929050565b60008281526001840160205260408120548281611b445760405162461bcd60e51b81526004018080602001828103825283818151815260200191508051906020019080838360005b83811015611b09578181015183820152602001611af1565b50505050905090810190601f168015611b365780820380516001836020036101000a031916815260200191505b509250505060405180910390fd5b50846000016001820381548110611b5757fe5b9060005260206000209060020201600101549150509392505050565b60009081526001919091016020526040902054151590565b6000611b9f846001600160a01b0316611e50565b611bab5750600161144f565b6060611cb9630a85bd0160e11b611bc0611336565b88878760405160240180856001600160a01b03168152602001846001600160a01b0316815260200183815260200180602001828103825283818151815260200191508051906020019080838360005b83811015611c27578181015183820152602001611c0f565b50505050905090810190601f168015611c545780820380516001836020036101000a031916815260200191505b5095505050505050604051602081830303815290604052906001600160e01b0319166020820180516001600160e01b0383818316178352505050506040518060600160405280603281526020016120c7603291396001600160a01b0388169190611e56565b90506000818060200190516020811015611cd257600080fd5b50516001600160e01b031916630a85bd0160e11b1492505050949350505050565b60008181526001830160205260408120548015611daf5783546000198083019190810190600090879083908110611d2657fe5b9060005260206000200154905080876000018481548110611d4357fe5b600091825260208083209091019290925582815260018981019092526040902090840190558654879080611d7357fe5b60019003818190600052602060002001600090559055866001016000878152602001908152602001600020600090556001945050505050610a49565b6000915050610a49565b600082815260018401602052604081205480611e1e5750506040805180820182528381526020808201848152865460018181018955600089815284812095516002909302909501918255915190820155865486845281880190925292909120556116ad565b82856000016001830381548110611e3157fe5b90600052602060002090600202016001018190555060009150506116ad565b3b151590565b60606116aa848460008585611e6a85611e50565b611ebb576040805162461bcd60e51b815260206004820152601d60248201527f416464726573733a2063616c6c20746f206e6f6e2d636f6e7472616374000000604482015290519081900360640190fd5b60006060866001600160a01b031685876040518082805190602001908083835b60208310611efa5780518252601f199092019160209182019101611edb565b6001836020036101000a03801982511681845116808217855250505050505090500191505060006040518083038185875af1925050503d8060008114611f5c576040519150601f19603f3d011682016040523d82523d6000602084013e611f61565b606091505b5091509150611f71828286611f7c565b979650505050505050565b60608315611f8b5750816116ad565b825115611f9b5782518084602001fd5b60405162461bcd60e51b8152602060048201818152845160248401528451859391928392604401919085019080838360008315611b09578181015183820152602001611af1565b828054600181600116156101000203166002900490600052602060002090601f016020900481019282601f1061202357805160ff1916838001178555612050565b82800160010185558215612050579182015b82811115612050578251825591602001919060010190612035565b5061205c929150612060565b5090565b5b8082111561205c576000815560010161206156fe456e756d657261626c655365743a20696e646578206f7574206f6620626f756e6473416363657373436f6e74726f6c3a2073656e646572206d75737420626520616e2061646d696e20746f206772616e744552433732313a207472616e7366657220746f206e6f6e20455243373231526563656976657220696d706c656d656e7465724552433732313a207472616e7366657220746f20746865207a65726f20616464726573734552433732313a206f70657261746f7220717565727920666f72206e6f6e6578697374656e7420746f6b656e416363657373436f6e74726f6c3a2073656e646572206d75737420626520616e2061646d696e20746f207265766f6b654552433732313a20617070726f76652063616c6c6572206973206e6f74206f776e6572206e6f7220617070726f76656420666f7220616c6c4552433732313a2062616c616e636520717565727920666f7220746865207a65726f20616464726573734552433732313a206f776e657220717565727920666f72206e6f6e6578697374656e7420746f6b656e456e756d657261626c654d61703a20696e646578206f7574206f6620626f756e64734552433732313a20617070726f76656420717565727920666f72206e6f6e6578697374656e7420746f6b656e4552433732313a207472616e73666572206f6620746f6b656e2074686174206973206e6f74206f776e4552433732314d657461646174613a2055524920717565727920666f72206e6f6e6578697374656e7420746f6b656e4552433732313a20617070726f76616c20746f2063757272656e74206f776e65724552433732313a207472616e736665722063616c6c6572206973206e6f74206f776e6572206e6f7220617070726f7665644c277574656e7465206465766520617665726520696c2072756f6c6f206469206d696e7465722070657220706f746572206d696e61726521416363657373436f6e74726f6c3a2063616e206f6e6c792072656e6f756e636520726f6c657320666f722073656c66a2646970667358221220cb971f57afc99c6fa71247ee006480cbbbc6bc362220a079975f20334f52026a64736f6c634300060c0033",
  "immutableReferences": {},
  "source": "// SPDX-License-Identifier: MIT\npragma solidity >=0.4.22 <0.9.0;\n\nimport \"@openzeppelin/contracts/utils/Context.sol\";\nimport \"@openzeppelin/contracts/access/AccessControl.sol\";\nimport \"@openzeppelin/contracts/token/ERC721/ERC721.sol\";\nimport \"@openzeppelin/contracts/utils/Counters.sol\";\n\ncontract Event is Context, AccessControl, ERC721 {\n    using Counters for Counters.Counter;\n\n    bytes32 public constant MINTER_ROLE = keccak256(\"MINTER_ROLE\");\n\n    struct TicketDetails {\n        string state;\n    }\n\n    // counter dei tickets \n    Counters.Counter private _ticketIds;\n    \n    uint private _eventID;                                    // id dell'evento\n    uint256 private _ticketPrice;                             // prezzo\n    uint256 private _totalSupply;                             // biglietti rimanenti\n    uint256 private _eventDate;                               // data del evento\n    address private _reseller;                               // organizzatore\n    address[] private _soldTicketsList;                        // address biglietti acquistati\n    \n    mapping(uint256 => TicketDetails) private _ticketDetails; // dettagli dei biglietti\n    mapping(address => uint256[]) private _purchasedTickets;  // biglietti acquistati\n\n    //TODO: da valutare se serve...\n    //uint256[] private soldTickets;    //lista biglietti venduti\n    address[] private _customers;      //clienti\n\n    constructor(\n        uint eventID,\n        string memory eventName,    // nome dell'evento\n        string memory eventSymbol,  // simbolo dell'evento\n        uint256 ticketPrice,        // prezzo di un biglietto\n        uint256 totalSupply,        // biglietti disponibili alla creazione\n        uint256 eventDate,          // data del evento\n        address reseller            // indirizzo del rivenditore\n    ) public ERC721(eventName, eventSymbol) {\n\n      _setupRole(MINTER_ROLE, reseller);\n\n      _eventID = eventID;\n      _ticketPrice = ticketPrice;\n      _totalSupply = totalSupply;\n      _eventDate = eventDate;\n      _reseller = reseller;\n    }\n\n    modifier isValidTicketCount {\n      require(\n          _ticketIds.current() < _totalSupply,\n          \"Superato limite massimo dei Ticket!\"\n      );\n      _;\n    }\n\n    modifier isMinterRole {\n      require(\n          hasRole(MINTER_ROLE, _msgSender()),\n          \"L'utente deve avere il ruolo di minter per poter minare!\"\n      );\n      _;\n    }\n\n    /*\n     * Mint new tickets and assign it to reseller\n     * Access controlled by minter only\n     * Returns new ticketId\n     */\n    function deployTicket(address reseller, address buyer) public virtual isMinterRole returns (bool) {\n        _ticketIds.increment();\n        uint256 newTicketId = _ticketIds.current();\n        _mint(reseller, newTicketId);\n\n        // definizioni per i ticket \n        // @state -> definisce lo stato attuale del ticket \n        //           - buyed: appena acquistato \n        //           - pending: check-in\n        //           - accepted: biglietto verificato dal controllore\n        //           - denied: biglietto regettato dal controllore\n        _ticketDetails[newTicketId] = TicketDetails({\n            state: \"buyed\"\n        });\n        \n        // trasferisce la propriet del ticket dal reseller al cliente\n        transferFrom(ownerOf(newTicketId), buyer, newTicketId);\n\n        return true;\n    }\n\n\n    // TODO: funzioni utility da controllare!\n    // Get ticket actual price\n    function getTicketPrice() public view returns (uint256) {\n        return _ticketPrice;\n    }\n\n    // // Get current ticketId\n    // function ticketCounts() public view returns (uint256) {\n    //     return _ticketIds.current();\n    // }\n\n    // // Get selling price for the ticket\n    // function getSellingPrice(uint256 ticketId) public view returns (uint256) {\n    //     return _ticketDetails[ticketId].sellingPrice;\n    // }\n\n    // // Get all tickets available for sale\n    // function getTicketsForSale() public view returns (uint256[] memory) {\n    //     return ticketsForSale;\n    // }\n\n    // Get ticket details from tickerID\n    function getTicketState(uint256 ticketID) public view returns (string memory) {\n        return _ticketDetails[ticketID].state;\n    }\n  \n     // Get all tickets owned by a customer\n    function getTicketsOfCustomer(address customer) public view returns (uint256[] memory) {\n        return _purchasedTickets[customer];\n    }\n\n\n\n\n\n\n\n\n\n\n\n\n\n\n\n\n\n\n\n/*     function getEventDetails() public view returns (\n      uint eventID\n      string memory eventName,\n      uint256 ticketPrice,\n      uint256 totalSupply,\n      uint256 eventDate\n    ) {\n      return(\n        _eventID = eventID\n        _eventName = eventName\n        _ticketPrice = ticketPrice\n        _totalSupply = totalSupply\n        _eventDate = eventDate\n        _organizer = organizer\n      )\n    } */\n\n}",
  "sourcePath": "/Users/lorenzofederici/Univpm/1 anno/SC/ticketing-system/contracts/Event.sol",
  "compiler": {
    "name": "solc",
    "version": "0.6.12+commit.27d51765.Emscripten.clang"
  },
  "schemaVersion": "3.3.3",
  "updatedAt": "2021-10-13T14:18:39.905Z",
  "devdoc": {
    "kind": "dev",
    "methods": {
      "approve(address,uint256)": {
        "details": "See {IERC721-approve}."
      },
      "balanceOf(address)": {
        "details": "See {IERC721-balanceOf}."
      },
      "baseURI()": {
        "details": "Returns the base URI set via {_setBaseURI}. This will be automatically added as a prefix in {tokenURI} to each token's URI, or to the token ID if no specific URI is set for that token ID."
      },
      "getApproved(uint256)": {
        "details": "See {IERC721-getApproved}."
      },
      "getRoleAdmin(bytes32)": {
        "details": "Returns the admin role that controls `role`. See {grantRole} and {revokeRole}. To change a role's admin, use {_setRoleAdmin}."
      },
      "getRoleMember(bytes32,uint256)": {
        "details": "Returns one of the accounts that have `role`. `index` must be a value between 0 and {getRoleMemberCount}, non-inclusive. Role bearers are not sorted in any particular way, and their ordering may change at any point. WARNING: When using {getRoleMember} and {getRoleMemberCount}, make sure you perform all queries on the same block. See the following https://forum.openzeppelin.com/t/iterating-over-elements-on-enumerableset-in-openzeppelin-contracts/2296[forum post] for more information."
      },
      "getRoleMemberCount(bytes32)": {
        "details": "Returns the number of accounts that have `role`. Can be used together with {getRoleMember} to enumerate all bearers of a role."
      },
      "grantRole(bytes32,address)": {
        "details": "Grants `role` to `account`. If `account` had not been already granted `role`, emits a {RoleGranted} event. Requirements: - the caller must have ``role``'s admin role."
      },
      "hasRole(bytes32,address)": {
        "details": "Returns `true` if `account` has been granted `role`."
      },
      "isApprovedForAll(address,address)": {
        "details": "See {IERC721-isApprovedForAll}."
      },
      "name()": {
        "details": "See {IERC721Metadata-name}."
      },
      "ownerOf(uint256)": {
        "details": "See {IERC721-ownerOf}."
      },
      "renounceRole(bytes32,address)": {
        "details": "Revokes `role` from the calling account. Roles are often managed via {grantRole} and {revokeRole}: this function's purpose is to provide a mechanism for accounts to lose their privileges if they are compromised (such as when a trusted device is misplaced). If the calling account had been granted `role`, emits a {RoleRevoked} event. Requirements: - the caller must be `account`."
      },
      "revokeRole(bytes32,address)": {
        "details": "Revokes `role` from `account`. If `account` had been granted `role`, emits a {RoleRevoked} event. Requirements: - the caller must have ``role``'s admin role."
      },
      "safeTransferFrom(address,address,uint256)": {
        "details": "See {IERC721-safeTransferFrom}."
      },
      "safeTransferFrom(address,address,uint256,bytes)": {
        "details": "See {IERC721-safeTransferFrom}."
      },
      "setApprovalForAll(address,bool)": {
        "details": "See {IERC721-setApprovalForAll}."
      },
      "supportsInterface(bytes4)": {
        "details": "See {IERC165-supportsInterface}. Time complexity O(1), guaranteed to always use less than 30 000 gas."
      },
      "symbol()": {
        "details": "See {IERC721Metadata-symbol}."
      },
      "tokenByIndex(uint256)": {
        "details": "See {IERC721Enumerable-tokenByIndex}."
      },
      "tokenOfOwnerByIndex(address,uint256)": {
        "details": "See {IERC721Enumerable-tokenOfOwnerByIndex}."
      },
      "tokenURI(uint256)": {
        "details": "See {IERC721Metadata-tokenURI}."
      },
      "totalSupply()": {
        "details": "See {IERC721Enumerable-totalSupply}."
      },
      "transferFrom(address,address,uint256)": {
        "details": "See {IERC721-transferFrom}."
      }
    },
    "version": 1
  },
  "userdoc": {
    "kind": "user",
    "methods": {},
    "version": 1
  }
}