{
  "contractName": "Reseller",
  "abi": [
    {
      "inputs": [
        {
          "internalType": "contract EventFactory",
          "name": "eventFactory",
          "type": "address"
        }
      ],
      "stateMutability": "nonpayable",
      "type": "constructor"
    },
    {
      "inputs": [
        {
          "internalType": "address",
          "name": "evento",
          "type": "address"
        }
      ],
      "name": "purchaseTicket",
      "outputs": [],
      "stateMutability": "payable",
      "type": "function"
    },
    {
      "inputs": [
        {
          "internalType": "contract Event",
          "name": "eventID",
          "type": "address"
        },
        {
          "internalType": "uint256",
          "name": "ticketID",
          "type": "uint256"
        }
      ],
      "name": "checkIN",
      "outputs": [],
      "stateMutability": "nonpayable",
      "type": "function"
    }
  ],
  "bytecode": "0x608060405234801561001057600080fd5b5060405161039a38038061039a8339818101604052602081101561003357600080fd5b5051600080546001600160a01b039092166001600160a01b0319928316179055600280549091163017905561032d8061006d6000396000f3fe6080604052600436106100295760003560e01c80634effe9a41461002e578063a7157e9114610069575b600080fd5b34801561003a57600080fd5b506100676004803603604081101561005157600080fd5b506001600160a01b03813516906020013561008f565b005b6100676004803603602081101561007f57600080fd5b50356001600160a01b0316610093565b5050565b600154604051339134916064600a84020491828403916000916001600160a01b03169083908381818185875af1925050503d80600081146100f0576040519150601f19603f3d011682016040523d82523d6000602084013e6100f5565b606091505b50509050806101355760405162461bcd60e51b81526004018080602001828103825260258152602001806102d36025913960400191505060405180910390fd5b6002546040516000916001600160a01b03169085908381818185875af1925050503d8060008114610182576040519150601f19603f3d011682016040523d82523d6000602084013e610187565b606091505b50509050806101c75760405162461bcd60e51b815260040180806020018281038252602a8152602001806102a9602a913960400191505060405180910390fd5b6002546040805163a58b157160e01b81526001600160a01b039283166004820152888316602482015290516000928a169163a58b157191604480830192602092919082900301818787803b15801561021e57600080fd5b505af1158015610232573d6000803e3d6000fd5b505050506040513d602081101561024857600080fd5b505190508061029e576040805162461bcd60e51b815260206004820152601760248201527f4661696c656420746f206465706c6f79207469636b6574000000000000000000604482015290519081900360640190fd5b505050505050505056fe4661696c656420746f2073656e6420457468657220746f20746865207469636b6574206f66666963652e4661696c656420746f2073656e6420457468657220746f20746865206f7267616e69736572a2646970667358221220d35cfcd007cf2455aacf8e3b1ab7e03fc75bf67a94d16cfb0efdddc52ebaddf764736f6c634300060c0033",
  "immutableReferences": {},
  "source": "// SPDX-License-Identifier: MIT\npragma solidity >=0.4.22 <0.9.0;\n\nimport \"./Event.sol\";\nimport \"./EventFactory.sol\";\n\ncontract Reseller {\n    EventFactory private _eventFactory;     // todo\n    address private _organiser;             // organiser address (account)\n    address private _reseller;              // ticket office address\n\n    constructor(EventFactory eventFactory) public {\n        _eventFactory = eventFactory;\n         \n        // set the address of the ticket office's smart contract \n        // in ordeer to get commissions after a sale\n        _reseller = address(this);  \n    }\n\n    /*\n     * Purchase tickets from the ticket office directly\n     * @ticketID -> ID ticket da acquistare\n     */\n    function purchaseTicket(address evento) public payable {\n        address buyer = msg.sender;                         // buyer account\n        uint256 salePrice = msg.value;                      // sale price \n\n        // calc the commissions (10%)\n        uint256 commissions = (salePrice * 10) / 100;\n        uint256 finalPrice = salePrice - commissions;\n\n        // send ETH from buyer to the organiser\n        //(bool sent_org, bytes memory data_org) = payable(_organiser).call{value: finalPrice}(\"\");\n        (bool sent_org, ) = payable(_organiser).call{value: finalPrice}(\"\");\n        require(sent_org, \"Failed to send Ether to the organiser\");\n\n        // TO-DO: send ETH from buyer to the ticket office\n        (bool sent_to, ) = payable(_reseller).call{value: commissions}(\"\");\n        require(sent_to, \"Failed to send Ether to the ticket office.\");\n        \n        // transfer ticket to the new owner (= buyer)\n        bool ticketTransfered = Event(evento).deployTicket(_reseller, buyer);\n        require(ticketTransfered, \"Failed to deploy ticket\");\n    }\n\n    /*\n     * Customer shows ticket to the controller\n     */\n    function checkIN(Event eventID, uint256 ticketID) public {\n        \n    }\n\n}",
  "sourcePath": "/Users/edoardoconti/UNIVPM/SC/ticketing-system/contracts/Reseller.sol",
  "compiler": {
    "name": "solc",
    "version": "0.6.12+commit.27d51765.Emscripten.clang"
  },
  "schemaVersion": "3.3.3",
  "updatedAt": "2021-10-12T20:55:03.019Z",
  "devdoc": {
    "kind": "dev",
    "methods": {},
    "version": 1
  },
  "userdoc": {
    "kind": "user",
    "methods": {},
    "version": 1
  }
}