{
  "contractName": "Reseller",
  "abi": [
    {
      "inputs": [],
      "stateMutability": "nonpayable",
      "type": "constructor"
    },
    {
      "inputs": [
        {
          "internalType": "address",
          "name": "evento",
          "type": "address"
        }
      ],
      "name": "purchaseTicket",
      "outputs": [],
      "stateMutability": "payable",
      "type": "function"
    },
    {
      "inputs": [
        {
          "internalType": "contract Event",
          "name": "eventID",
          "type": "address"
        },
        {
          "internalType": "uint256",
          "name": "ticketID",
          "type": "uint256"
        }
      ],
      "name": "checkIN",
      "outputs": [],
      "stateMutability": "nonpayable",
      "type": "function"
    }
  ],
  "bytecode": "0x608060405234801561001057600080fd5b50600180546001600160a01b031916301790556102e0806100326000396000f3fe6080604052600436106100295760003560e01c80634effe9a41461002e578063a7157e9114610069575b600080fd5b34801561003a57600080fd5b506100676004803603604081101561005157600080fd5b506001600160a01b03813516906020013561008f565b005b6100676004803603602081101561007f57600080fd5b50356001600160a01b0316610093565b5050565b600033905060003490506000836001600160a01b03166387bb7ae06040518163ffffffff1660e01b815260040160206040518083038186803b1580156100d857600080fd5b505afa1580156100ec573d6000803e3d6000fd5b505050506040513d602081101561010257600080fd5b5051600080546040519293506064600a8602049283860392916001600160a01b03169083908381818185875af1925050503d806000811461015f576040519150601f19603f3d011682016040523d82523d6000602084013e610164565b606091505b50509050806101a45760405162461bcd60e51b81526004018080602001828103825260258152602001806102866025913960400191505060405180910390fd5b6001546040805163a58b157160e01b81526001600160a01b039283166004820152888316602482015290516000928a169163a58b157191604480830192602092919082900301818787803b1580156101fb57600080fd5b505af115801561020f573d6000803e3d6000fd5b505050506040513d602081101561022557600080fd5b505190508061027b576040805162461bcd60e51b815260206004820152601760248201527f4661696c656420746f206465706c6f79207469636b6574000000000000000000604482015290519081900360640190fd5b505050505050505056fe4661696c656420746f2073656e6420457468657220746f20746865206f7267616e69736572a2646970667358221220540f6dc021a99073410f872cc54446251fa583627ea28df9be3188a70142709e64736f6c634300060c0033",
  "immutableReferences": {},
  "source": "// SPDX-License-Identifier: MIT\npragma solidity >=0.4.22 <0.9.0;\n\nimport \"./Event.sol\";\n\n\ncontract Reseller {\n    //EventFactory private _eventFactory;     // todo\n    address private _organiser;             // organiser address (account)\n    address private _reseller;              // ticket office address\n\n    //constructor(EventFactory eventFactory) public {\n    constructor() public {\n        //_eventFactory = eventFactory;\n         \n        // set the address of the ticket office's smart contract \n        // in ordeer to get commissions after a sale\n        _reseller = address(this);  \n    }\n\n    /*\n     * Purchase tickets from the ticket office directly\n     * @ticketID -> ID ticket da acquistare\n     */\n    function purchaseTicket(address evento) public payable {\n        address buyer = msg.sender;                         // buyer account\n        uint256 sentValue = msg.value;\n        uint256 ticketPrice = Event(evento).getTicketPrice();\n        // require(sentValue == );\n\n        // calc the commissions (10%)\n        uint256 commissions = (sentValue * 10) / 100;\n        uint256 finalPrice = sentValue - commissions;\n\n        // send ETH from buyer to the organiser\n        //(bool sent_org, bytes memory data_org) = payable(_organiser).call{value: finalPrice}(\"\");\n        (bool sent_org, ) = payable(_organiser).call{value: finalPrice}(\"\");\n        require(sent_org, \"Failed to send Ether to the organiser\");\n\n        // TO-DO: send ETH from buyer to the ticket office\n        //(bool sent_to, ) = payable(_reseller).call{value: commissions}(\"\");\n        //require(sent_to, \"Failed to send Ether to the ticket office.\");\n        \n        // transfer ticket to the new owner (= buyer)\n        bool ticketTransfered = Event(evento).deployTicket(_reseller, buyer);\n        require(ticketTransfered, \"Failed to deploy ticket\");\n    }\n\n    /*\n     * Customer shows ticket to the controller\n     */\n    function checkIN(Event eventID, uint256 ticketID) public {\n        \n    }\n\n}",
  "sourcePath": "/Users/lorenzofederici/Univpm/1 anno/SC/ticketing-system/contracts/Reseller.sol",
  "compiler": {
    "name": "solc",
    "version": "0.6.12+commit.27d51765.Emscripten.clang"
  },
  "schemaVersion": "3.3.3",
  "updatedAt": "2021-10-13T14:18:39.912Z",
  "devdoc": {
    "kind": "dev",
    "methods": {},
    "version": 1
  },
  "userdoc": {
    "kind": "user",
    "methods": {},
    "version": 1
  }
}